{
  "contractName": "Tamtam",
  "abi": [
    {
      "inputs": [
        {
          "internalType": "uint256",
          "name": "initMintFee",
          "type": "uint256"
        }
      ],
      "stateMutability": "nonpayable",
      "type": "constructor"
    },
    {
      "anonymous": false,
      "inputs": [
        {
          "indexed": true,
          "internalType": "address",
          "name": "owner",
          "type": "address"
        },
        {
          "indexed": true,
          "internalType": "address",
          "name": "approved",
          "type": "address"
        },
        {
          "indexed": true,
          "internalType": "uint256",
          "name": "tokenId",
          "type": "uint256"
        }
      ],
      "name": "Approval",
      "type": "event"
    },
    {
      "anonymous": false,
      "inputs": [
        {
          "indexed": true,
          "internalType": "address",
          "name": "owner",
          "type": "address"
        },
        {
          "indexed": true,
          "internalType": "address",
          "name": "operator",
          "type": "address"
        },
        {
          "indexed": false,
          "internalType": "bool",
          "name": "approved",
          "type": "bool"
        }
      ],
      "name": "ApprovalForAll",
      "type": "event"
    },
    {
      "anonymous": false,
      "inputs": [
        {
          "indexed": true,
          "internalType": "address",
          "name": "previousOwner",
          "type": "address"
        },
        {
          "indexed": true,
          "internalType": "address",
          "name": "newOwner",
          "type": "address"
        }
      ],
      "name": "OwnershipTransferred",
      "type": "event"
    },
    {
      "anonymous": false,
      "inputs": [
        {
          "indexed": true,
          "internalType": "address",
          "name": "from",
          "type": "address"
        },
        {
          "indexed": true,
          "internalType": "address",
          "name": "to",
          "type": "address"
        },
        {
          "indexed": true,
          "internalType": "uint256",
          "name": "tokenId",
          "type": "uint256"
        }
      ],
      "name": "Transfer",
      "type": "event"
    },
    {
      "inputs": [
        {
          "internalType": "address",
          "name": "to",
          "type": "address"
        },
        {
          "internalType": "uint256",
          "name": "tokenId",
          "type": "uint256"
        }
      ],
      "name": "approve",
      "outputs": [],
      "stateMutability": "nonpayable",
      "type": "function"
    },
    {
      "inputs": [
        {
          "internalType": "address",
          "name": "owner",
          "type": "address"
        }
      ],
      "name": "balanceOf",
      "outputs": [
        {
          "internalType": "uint256",
          "name": "",
          "type": "uint256"
        }
      ],
      "stateMutability": "view",
      "type": "function",
      "constant": true
    },
    {
      "inputs": [
        {
          "internalType": "uint256",
          "name": "tokenId",
          "type": "uint256"
        }
      ],
      "name": "getApproved",
      "outputs": [
        {
          "internalType": "address",
          "name": "",
          "type": "address"
        }
      ],
      "stateMutability": "view",
      "type": "function",
      "constant": true
    },
    {
      "inputs": [
        {
          "internalType": "address",
          "name": "owner",
          "type": "address"
        },
        {
          "internalType": "address",
          "name": "operator",
          "type": "address"
        }
      ],
      "name": "isApprovedForAll",
      "outputs": [
        {
          "internalType": "bool",
          "name": "",
          "type": "bool"
        }
      ],
      "stateMutability": "view",
      "type": "function",
      "constant": true
    },
    {
      "inputs": [],
      "name": "mintFee",
      "outputs": [
        {
          "internalType": "uint256",
          "name": "",
          "type": "uint256"
        }
      ],
      "stateMutability": "view",
      "type": "function",
      "constant": true
    },
    {
      "inputs": [],
      "name": "name",
      "outputs": [
        {
          "internalType": "string",
          "name": "",
          "type": "string"
        }
      ],
      "stateMutability": "view",
      "type": "function",
      "constant": true
    },
    {
      "inputs": [],
      "name": "owner",
      "outputs": [
        {
          "internalType": "address",
          "name": "",
          "type": "address"
        }
      ],
      "stateMutability": "view",
      "type": "function",
      "constant": true
    },
    {
      "inputs": [
        {
          "internalType": "uint256",
          "name": "tokenId",
          "type": "uint256"
        }
      ],
      "name": "ownerOf",
      "outputs": [
        {
          "internalType": "address",
          "name": "",
          "type": "address"
        }
      ],
      "stateMutability": "view",
      "type": "function",
      "constant": true
    },
    {
      "inputs": [],
      "name": "renounceOwnership",
      "outputs": [],
      "stateMutability": "nonpayable",
      "type": "function"
    },
    {
      "inputs": [
        {
          "internalType": "address",
          "name": "from",
          "type": "address"
        },
        {
          "internalType": "address",
          "name": "to",
          "type": "address"
        },
        {
          "internalType": "uint256",
          "name": "tokenId",
          "type": "uint256"
        }
      ],
      "name": "safeTransferFrom",
      "outputs": [],
      "stateMutability": "nonpayable",
      "type": "function"
    },
    {
      "inputs": [
        {
          "internalType": "address",
          "name": "from",
          "type": "address"
        },
        {
          "internalType": "address",
          "name": "to",
          "type": "address"
        },
        {
          "internalType": "uint256",
          "name": "tokenId",
          "type": "uint256"
        },
        {
          "internalType": "bytes",
          "name": "_data",
          "type": "bytes"
        }
      ],
      "name": "safeTransferFrom",
      "outputs": [],
      "stateMutability": "nonpayable",
      "type": "function"
    },
    {
      "inputs": [
        {
          "internalType": "address",
          "name": "operator",
          "type": "address"
        },
        {
          "internalType": "bool",
          "name": "approved",
          "type": "bool"
        }
      ],
      "name": "setApprovalForAll",
      "outputs": [],
      "stateMutability": "nonpayable",
      "type": "function"
    },
    {
      "inputs": [
        {
          "internalType": "bytes4",
          "name": "interfaceId",
          "type": "bytes4"
        }
      ],
      "name": "supportsInterface",
      "outputs": [
        {
          "internalType": "bool",
          "name": "",
          "type": "bool"
        }
      ],
      "stateMutability": "view",
      "type": "function",
      "constant": true
    },
    {
      "inputs": [],
      "name": "symbol",
      "outputs": [
        {
          "internalType": "string",
          "name": "",
          "type": "string"
        }
      ],
      "stateMutability": "view",
      "type": "function",
      "constant": true
    },
    {
      "inputs": [
        {
          "internalType": "uint256",
          "name": "tokenId",
          "type": "uint256"
        }
      ],
      "name": "tokenURI",
      "outputs": [
        {
          "internalType": "string",
          "name": "",
          "type": "string"
        }
      ],
      "stateMutability": "view",
      "type": "function",
      "constant": true
    },
    {
      "inputs": [
        {
          "internalType": "address",
          "name": "from",
          "type": "address"
        },
        {
          "internalType": "address",
          "name": "to",
          "type": "address"
        },
        {
          "internalType": "uint256",
          "name": "tokenId",
          "type": "uint256"
        }
      ],
      "name": "transferFrom",
      "outputs": [],
      "stateMutability": "nonpayable",
      "type": "function"
    },
    {
      "inputs": [
        {
          "internalType": "address",
          "name": "newOwner",
          "type": "address"
        }
      ],
      "name": "transferOwnership",
      "outputs": [],
      "stateMutability": "nonpayable",
      "type": "function"
    },
    {
      "inputs": [
        {
          "internalType": "uint256",
          "name": "tokenId",
          "type": "uint256"
        }
      ],
      "name": "nftState",
      "outputs": [
        {
          "components": [
            {
              "internalType": "string",
              "name": "workId",
              "type": "string"
            },
            {
              "internalType": "uint8",
              "name": "royalty",
              "type": "uint8"
            },
            {
              "internalType": "address",
              "name": "royaltyReceiver",
              "type": "address"
            },
            {
              "internalType": "bool",
              "name": "isTrading",
              "type": "bool"
            },
            {
              "internalType": "uint256",
              "name": "price",
              "type": "uint256"
            },
            {
              "internalType": "bool",
              "name": "resale",
              "type": "bool"
            }
          ],
          "internalType": "struct NFTState",
          "name": "",
          "type": "tuple"
        }
      ],
      "stateMutability": "view",
      "type": "function",
      "constant": true
    },
    {
      "inputs": [
        {
          "internalType": "uint256",
          "name": "newMintFee",
          "type": "uint256"
        }
      ],
      "name": "setMintFee",
      "outputs": [],
      "stateMutability": "nonpayable",
      "type": "function"
    },
    {
      "inputs": [
        {
          "internalType": "uint256",
          "name": "tokenId",
          "type": "uint256"
        },
        {
          "components": [
            {
              "internalType": "string",
              "name": "workId",
              "type": "string"
            },
            {
              "internalType": "uint8",
              "name": "royalty",
              "type": "uint8"
            },
            {
              "internalType": "address",
              "name": "royaltyReceiver",
              "type": "address"
            },
            {
              "internalType": "bool",
              "name": "isTrading",
              "type": "bool"
            },
            {
              "internalType": "uint256",
              "name": "price",
              "type": "uint256"
            },
            {
              "internalType": "bool",
              "name": "resale",
              "type": "bool"
            }
          ],
          "internalType": "struct NFTState",
          "name": "state1",
          "type": "tuple"
        }
      ],
      "name": "setNFTState",
      "outputs": [],
      "stateMutability": "nonpayable",
      "type": "function"
    },
    {
      "inputs": [
        {
          "internalType": "address",
          "name": "tokenOwner",
          "type": "address"
        },
        {
          "internalType": "string",
          "name": "workId",
          "type": "string"
        },
        {
          "internalType": "uint8",
          "name": "royalty",
          "type": "uint8"
        },
        {
          "internalType": "address",
          "name": "royaltyReceiver",
          "type": "address"
        },
        {
          "internalType": "string",
          "name": "uri",
          "type": "string"
        }
      ],
      "name": "mint",
      "outputs": [
        {
          "internalType": "uint256",
          "name": "",
          "type": "uint256"
        }
      ],
      "stateMutability": "payable",
      "type": "function",
      "payable": true
    },
    {
      "inputs": [
        {
          "internalType": "uint256",
          "name": "tokenId",
          "type": "uint256"
        }
      ],
      "name": "buyNFT",
      "outputs": [],
      "stateMutability": "payable",
      "type": "function",
      "payable": true
    }
  ],
  "bytecode": "0x60806040523480156200001157600080fd5b50604051620050a3380380620050a38339818101604052810190620000379190620002c3565b6040518060400160405280600681526020017f54616d74616d00000000000000000000000000000000000000000000000000008152506040518060400160405280600681526020017f54414d54414d00000000000000000000000000000000000000000000000000008152508160009080519060200190620000bb929190620001d3565b508060019080519060200190620000d4929190620001d3565b505050620000f7620000eb6200010560201b60201c565b6200010d60201b60201c565b80600981905550506200035a565b600033905090565b6000600760009054906101000a900473ffffffffffffffffffffffffffffffffffffffff16905081600760006101000a81548173ffffffffffffffffffffffffffffffffffffffff021916908373ffffffffffffffffffffffffffffffffffffffff1602179055508173ffffffffffffffffffffffffffffffffffffffff168173ffffffffffffffffffffffffffffffffffffffff167f8be0079c531659141344cd1fd0a4f28419497f9722a3daafe3b4186f6b6457e060405160405180910390a35050565b828054620001e19062000324565b90600052602060002090601f01602090048101928262000205576000855562000251565b82601f106200022057805160ff191683800117855562000251565b8280016001018555821562000251579182015b828111156200025057825182559160200191906001019062000233565b5b50905062000260919062000264565b5090565b5b808211156200027f57600081600090555060010162000265565b5090565b600080fd5b6000819050919050565b6200029d8162000288565b8114620002a957600080fd5b50565b600081519050620002bd8162000292565b92915050565b600060208284031215620002dc57620002db62000283565b5b6000620002ec84828501620002ac565b91505092915050565b7f4e487b7100000000000000000000000000000000000000000000000000000000600052602260045260246000fd5b600060028204905060018216806200033d57607f821691505b60208210811415620003545762000353620002f5565b5b50919050565b614d39806200036a6000396000f3fe6080604052600436106101355760003560e01c8063715018a6116100ab578063a22cb4651161006f578063a22cb4651461041e578063b88d4fde14610447578063c87b56dd14610470578063e985e9c5146104ad578063eddd0d9c146104ea578063f2fde38b1461051357610135565b8063715018a6146103445780637c35fd1a1461035b5780637e7b840a146103985780638da5cb5b146103c857806395d89b41146103f357610135565b806313d895db116100fd57806313d895db1461023357806323b872dd1461025c57806342842e0e1461028557806351ed8288146102ae5780636352211e146102ca57806370a082311461030757610135565b806301ffc9a71461013a57806306fdde0314610177578063081812fc146101a2578063095ea7b3146101df57806313966db514610208575b600080fd5b34801561014657600080fd5b50610161600480360381019061015c91906129fa565b61053c565b60405161016e9190612a42565b60405180910390f35b34801561018357600080fd5b5061018c61061e565b6040516101999190612af6565b60405180910390f35b3480156101ae57600080fd5b506101c960048036038101906101c49190612b4e565b6106b0565b6040516101d69190612bbc565b60405180910390f35b3480156101eb57600080fd5b5061020660048036038101906102019190612c03565b610735565b005b34801561021457600080fd5b5061021d61084d565b60405161022a9190612c52565b60405180910390f35b34801561023f57600080fd5b5061025a60048036038101906102559190612c91565b610853565b005b34801561026857600080fd5b50610283600480360381019061027e9190612ced565b610b79565b005b34801561029157600080fd5b506102ac60048036038101906102a79190612ced565b610bd9565b005b6102c860048036038101906102c39190612b4e565b610bf9565b005b3480156102d657600080fd5b506102f160048036038101906102ec9190612b4e565b610e27565b6040516102fe9190612bbc565b60405180910390f35b34801561031357600080fd5b5061032e60048036038101906103299190612d40565b610ed9565b60405161033b9190612c52565b60405180910390f35b34801561035057600080fd5b50610359610f91565b005b34801561036757600080fd5b50610382600480360381019061037d9190612b4e565b611019565b60405161038f9190612e89565b60405180910390f35b6103b260048036038101906103ad9190612f3c565b6111d3565b6040516103bf9190612c52565b60405180910390f35b3480156103d457600080fd5b506103dd61142f565b6040516103ea9190612bbc565b60405180910390f35b3480156103ff57600080fd5b50610408611459565b6040516104159190612af6565b60405180910390f35b34801561042a57600080fd5b5061044560048036038101906104409190613024565b6114eb565b005b34801561045357600080fd5b5061046e60048036038101906104699190613194565b611501565b005b34801561047c57600080fd5b5061049760048036038101906104929190612b4e565b611563565b6040516104a49190612af6565b60405180910390f35b3480156104b957600080fd5b506104d460048036038101906104cf9190613217565b6116b5565b6040516104e19190612a42565b60405180910390f35b3480156104f657600080fd5b50610511600480360381019061050c9190612b4e565b611749565b005b34801561051f57600080fd5b5061053a60048036038101906105359190612d40565b6117cf565b005b60007f80ac58cd000000000000000000000000000000000000000000000000000000007bffffffffffffffffffffffffffffffffffffffffffffffffffffffff1916827bffffffffffffffffffffffffffffffffffffffffffffffffffffffff1916148061060757507f5b5e139f000000000000000000000000000000000000000000000000000000007bffffffffffffffffffffffffffffffffffffffffffffffffffffffff1916827bffffffffffffffffffffffffffffffffffffffffffffffffffffffff1916145b806106175750610616826118c7565b5b9050919050565b60606000805461062d90613286565b80601f016020809104026020016040519081016040528092919081815260200182805461065990613286565b80156106a65780601f1061067b576101008083540402835291602001916106a6565b820191906000526020600020905b81548152906001019060200180831161068957829003601f168201915b5050505050905090565b60006106bb82611931565b6106fa576040517f08c379a00000000000000000000000000000000000000000000000000000000081526004016106f19061332a565b60405180910390fd5b6004600083815260200190815260200160002060009054906101000a900473ffffffffffffffffffffffffffffffffffffffff169050919050565b600061074082610e27565b90508073ffffffffffffffffffffffffffffffffffffffff168373ffffffffffffffffffffffffffffffffffffffff1614156107b1576040517f08c379a00000000000000000000000000000000000000000000000000000000081526004016107a8906133bc565b60405180910390fd5b8073ffffffffffffffffffffffffffffffffffffffff166107d061199d565b73ffffffffffffffffffffffffffffffffffffffff1614806107ff57506107fe816107f961199d565b6116b5565b5b61083e576040517f08c379a00000000000000000000000000000000000000000000000000000000081526004016108359061344e565b60405180910390fd5b61084883836119a5565b505050565b60095481565b61085c82611931565b61089b576040517f08c379a0000000000000000000000000000000000000000000000000000000008152600401610892906134ba565b60405180910390fd5b6108a482610e27565b73ffffffffffffffffffffffffffffffffffffffff163373ffffffffffffffffffffffffffffffffffffffff1614610911576040517f08c379a000000000000000000000000000000000000000000000000000000000815260040161090890613526565b60405180910390fd5b6000600a600084815260200190815260200160002090506109448160000183806000019061093f9190613555565b611a5e565b610983576040517f08c379a000000000000000000000000000000000000000000000000000000000815260040161097a90613604565b60405180910390fd5b8160200160208101906109969190613624565b60ff168160010160009054906101000a900460ff1660ff16146109ee576040517f08c379a00000000000000000000000000000000000000000000000000000000081526004016109e59061369d565b60405180910390fd5b816040016020810190610a019190612d40565b73ffffffffffffffffffffffffffffffffffffffff168160010160019054906101000a900473ffffffffffffffffffffffffffffffffffffffff1673ffffffffffffffffffffffffffffffffffffffff1614610a92576040517f08c379a0000000000000000000000000000000000000000000000000000000008152600401610a899061372f565b60405180910390fd5b8160a0016020810190610aa5919061374f565b15158160030160009054906101000a900460ff16151514610afb576040517f08c379a0000000000000000000000000000000000000000000000000000000008152600401610af2906137c8565b60405180910390fd5b606382608001351180610b12575060008260800135145b610b51576040517f08c379a0000000000000000000000000000000000000000000000000000000008152600401610b489061385a565b60405180910390fd5b81600a60008581526020019081526020016000208181610b719190613e75565b905050505050565b610b8a610b8461199d565b82611aba565b610bc9576040517f08c379a0000000000000000000000000000000000000000000000000000000008152600401610bc090613ef5565b60405180910390fd5b610bd4838383611b98565b505050565b610bf483838360405180602001604052806000815250611501565b505050565b610c0281611931565b610c41576040517f08c379a0000000000000000000000000000000000000000000000000000000008152600401610c38906134ba565b60405180910390fd5b6000600a600083815260200190815260200160002090508060010160159054906101000a900460ff16610ca9576040517f08c379a0000000000000000000000000000000000000000000000000000000008152600401610ca090613f61565b60405180910390fd5b80600201543414610cef576040517f08c379a0000000000000000000000000000000000000000000000000000000008152600401610ce690613ff3565b60405180910390fd5b6000610d1082600201548360010160009054906101000a900460ff16611dff565b905060008260030160009054906101000a900460ff1615610d3f57610d388360020154611e39565b9050610d6c565b610d4c8360020154611e57565b905060018360030160006101000a81548160ff0219169083151502179055505b6000818334610d7b9190614042565b610d859190614042565b90506000610d9286610e27565b9050600033905060008660010160019054906101000a900473ffffffffffffffffffffffffffffffffffffffff16905060008760010160156101000a81548160ff021916908315150217905550600087600201819055506060610df784848b84611e6b565b610e018288611ec7565b610e0b8486611ec7565b610e1c610e1661142f565b87611ec7565b505050505050505050565b6000806002600084815260200190815260200160002060009054906101000a900473ffffffffffffffffffffffffffffffffffffffff169050600073ffffffffffffffffffffffffffffffffffffffff168173ffffffffffffffffffffffffffffffffffffffff161415610ed0576040517f08c379a0000000000000000000000000000000000000000000000000000000008152600401610ec7906140e8565b60405180910390fd5b80915050919050565b60008073ffffffffffffffffffffffffffffffffffffffff168273ffffffffffffffffffffffffffffffffffffffff161415610f4a576040517f08c379a0000000000000000000000000000000000000000000000000000000008152600401610f419061417a565b60405180910390fd5b600360008373ffffffffffffffffffffffffffffffffffffffff1673ffffffffffffffffffffffffffffffffffffffff168152602001908152602001600020549050919050565b610f9961199d565b73ffffffffffffffffffffffffffffffffffffffff16610fb761142f565b73ffffffffffffffffffffffffffffffffffffffff161461100d576040517f08c379a0000000000000000000000000000000000000000000000000000000008152600401611004906141e6565b60405180910390fd5b6110176000611f78565b565b611021612898565b61102a82611931565b611069576040517f08c379a0000000000000000000000000000000000000000000000000000000008152600401611060906134ba565b60405180910390fd5b600a60008381526020019081526020016000206040518060c001604052908160008201805461109790613286565b80601f01602080910402602001604051908101604052809291908181526020018280546110c390613286565b80156111105780601f106110e557610100808354040283529160200191611110565b820191906000526020600020905b8154815290600101906020018083116110f357829003601f168201915b505050505081526020016001820160009054906101000a900460ff1660ff1660ff1681526020016001820160019054906101000a900473ffffffffffffffffffffffffffffffffffffffff1673ffffffffffffffffffffffffffffffffffffffff1673ffffffffffffffffffffffffffffffffffffffff1681526020016001820160159054906101000a900460ff16151515158152602001600282015481526020016003820160009054906101000a900460ff1615151515815250509050919050565b60006009543414611219576040517f08c379a000000000000000000000000000000000000000000000000000000000815260040161121090614278565b60405180910390fd5b600b8560ff161061122957600080fd5b611233600861203e565b600061123f6008612054565b905061124b8982612062565b6112998185858080601f016020809104026020016040519081016040528093929190818152602001838380828437600081840152601f19601f82011690508083019250505050505050612080565b6040518060c0016040528089898080601f016020809104026020016040519081016040528093929190818152602001838380828437600081840152601f19601f8201169050808301925050505050505081526020018760ff1681526020018673ffffffffffffffffffffffffffffffffffffffff1681526020016000151581526020016000815260200160001515815250600a600083815260200190815260200160002060008201518160000190805190602001906113599291906128eb565b5060208201518160010160006101000a81548160ff021916908360ff16021790555060408201518160010160016101000a81548173ffffffffffffffffffffffffffffffffffffffff021916908373ffffffffffffffffffffffffffffffffffffffff16021790555060608201518160010160156101000a81548160ff0219169083151502179055506080820151816002015560a08201518160030160006101000a81548160ff02191690831515021790555090505061142061141a61142f565b34611ec7565b80915050979650505050505050565b6000600760009054906101000a900473ffffffffffffffffffffffffffffffffffffffff16905090565b60606001805461146890613286565b80601f016020809104026020016040519081016040528092919081815260200182805461149490613286565b80156114e15780601f106114b6576101008083540402835291602001916114e1565b820191906000526020600020905b8154815290600101906020018083116114c457829003601f168201915b5050505050905090565b6114fd6114f661199d565b83836120f4565b5050565b61151261150c61199d565b83611aba565b611551576040517f08c379a000000000000000000000000000000000000000000000000000000000815260040161154890613ef5565b60405180910390fd5b61155d84848484611e6b565b50505050565b606061156e82611931565b6115ad576040517f08c379a00000000000000000000000000000000000000000000000000000000081526004016115a49061430a565b60405180910390fd5b60006006600084815260200190815260200160002080546115cd90613286565b80601f01602080910402602001604051908101604052809291908181526020018280546115f990613286565b80156116465780601f1061161b57610100808354040283529160200191611646565b820191906000526020600020905b81548152906001019060200180831161162957829003601f168201915b505050505090506000611657612261565b905060008151141561166d5781925050506116b0565b6000825111156116a257808260405160200161168a929190614366565b604051602081830303815290604052925050506116b0565b6116ab84612278565b925050505b919050565b6000600560008473ffffffffffffffffffffffffffffffffffffffff1673ffffffffffffffffffffffffffffffffffffffff16815260200190815260200160002060008373ffffffffffffffffffffffffffffffffffffffff1673ffffffffffffffffffffffffffffffffffffffff16815260200190815260200160002060009054906101000a900460ff16905092915050565b61175161199d565b73ffffffffffffffffffffffffffffffffffffffff1661176f61142f565b73ffffffffffffffffffffffffffffffffffffffff16146117c5576040517f08c379a00000000000000000000000000000000000000000000000000000000081526004016117bc906141e6565b60405180910390fd5b8060098190555050565b6117d761199d565b73ffffffffffffffffffffffffffffffffffffffff166117f561142f565b73ffffffffffffffffffffffffffffffffffffffff161461184b576040517f08c379a0000000000000000000000000000000000000000000000000000000008152600401611842906141e6565b60405180910390fd5b600073ffffffffffffffffffffffffffffffffffffffff168173ffffffffffffffffffffffffffffffffffffffff1614156118bb576040517f08c379a00000000000000000000000000000000000000000000000000000000081526004016118b2906143fc565b60405180910390fd5b6118c481611f78565b50565b60007f01ffc9a7000000000000000000000000000000000000000000000000000000007bffffffffffffffffffffffffffffffffffffffffffffffffffffffff1916827bffffffffffffffffffffffffffffffffffffffffffffffffffffffff1916149050919050565b60008073ffffffffffffffffffffffffffffffffffffffff166002600084815260200190815260200160002060009054906101000a900473ffffffffffffffffffffffffffffffffffffffff1673ffffffffffffffffffffffffffffffffffffffff1614159050919050565b600033905090565b816004600083815260200190815260200160002060006101000a81548173ffffffffffffffffffffffffffffffffffffffff021916908373ffffffffffffffffffffffffffffffffffffffff160217905550808273ffffffffffffffffffffffffffffffffffffffff16611a1883610e27565b73ffffffffffffffffffffffffffffffffffffffff167f8c5be1e5ebec7d5bd14f71427d1e84f3dd0314c0f7b2291e5b200ac8c7c3b92560405160405180910390a45050565b60008282604051602001611a73929190614441565b6040516020818303038152906040528051906020012084604051602001611a9a91906144ee565b604051602081830303815290604052805190602001201490509392505050565b6000611ac582611931565b611b04576040517f08c379a0000000000000000000000000000000000000000000000000000000008152600401611afb90614577565b60405180910390fd5b6000611b0f83610e27565b90508073ffffffffffffffffffffffffffffffffffffffff168473ffffffffffffffffffffffffffffffffffffffff161480611b7e57508373ffffffffffffffffffffffffffffffffffffffff16611b66846106b0565b73ffffffffffffffffffffffffffffffffffffffff16145b80611b8f5750611b8e81856116b5565b5b91505092915050565b8273ffffffffffffffffffffffffffffffffffffffff16611bb882610e27565b73ffffffffffffffffffffffffffffffffffffffff1614611c0e576040517f08c379a0000000000000000000000000000000000000000000000000000000008152600401611c0590614609565b60405180910390fd5b600073ffffffffffffffffffffffffffffffffffffffff168273ffffffffffffffffffffffffffffffffffffffff161415611c7e576040517f08c379a0000000000000000000000000000000000000000000000000000000008152600401611c759061469b565b60405180910390fd5b611c8983838361231f565b611c946000826119a5565b6001600360008573ffffffffffffffffffffffffffffffffffffffff1673ffffffffffffffffffffffffffffffffffffffff1681526020019081526020016000206000828254611ce49190614042565b925050819055506001600360008473ffffffffffffffffffffffffffffffffffffffff1673ffffffffffffffffffffffffffffffffffffffff1681526020019081526020016000206000828254611d3b91906146bb565b92505081905550816002600083815260200190815260200160002060006101000a81548173ffffffffffffffffffffffffffffffffffffffff021916908373ffffffffffffffffffffffffffffffffffffffff160217905550808273ffffffffffffffffffffffffffffffffffffffff168473ffffffffffffffffffffffffffffffffffffffff167fddf252ad1be2c89b69c2b068fc378daa952ba7f163c4a11628f55a4df523b3ef60405160405180910390a4611dfa838383612352565b505050565b6000808260ff161415611e155760009050611e33565b8160ff16606484611e269190614740565b611e309190614771565b90505b92915050565b60006002611e4683611e57565b611e509190614740565b9050919050565b6000611e64826005611dff565b9050919050565b611e76848484611b98565b611e8284848484612357565b611ec1576040517f08c379a0000000000000000000000000000000000000000000000000000000008152600401611eb89061483d565b60405180910390fd5b50505050565b60008273ffffffffffffffffffffffffffffffffffffffff1682604051611eed9061488e565b60006040518083038185875af1925050503d8060008114611f2a576040519150601f19603f3d011682016040523d82523d6000602084013e611f2f565b606091505b5050905080611f73576040517f08c379a0000000000000000000000000000000000000000000000000000000008152600401611f6a906148ef565b60405180910390fd5b505050565b6000600760009054906101000a900473ffffffffffffffffffffffffffffffffffffffff16905081600760006101000a81548173ffffffffffffffffffffffffffffffffffffffff021916908373ffffffffffffffffffffffffffffffffffffffff1602179055508173ffffffffffffffffffffffffffffffffffffffff168173ffffffffffffffffffffffffffffffffffffffff167f8be0079c531659141344cd1fd0a4f28419497f9722a3daafe3b4186f6b6457e060405160405180910390a35050565b6001816000016000828254019250508190555050565b600081600001549050919050565b61207c8282604051806020016040528060008152506124df565b5050565b61208982611931565b6120c8576040517f08c379a00000000000000000000000000000000000000000000000000000000081526004016120bf90614981565b60405180910390fd5b806006600084815260200190815260200160002090805190602001906120ef9291906128eb565b505050565b8173ffffffffffffffffffffffffffffffffffffffff168373ffffffffffffffffffffffffffffffffffffffff161415612163576040517f08c379a000000000000000000000000000000000000000000000000000000000815260040161215a906149ed565b60405180910390fd5b80600560008573ffffffffffffffffffffffffffffffffffffffff1673ffffffffffffffffffffffffffffffffffffffff16815260200190815260200160002060008473ffffffffffffffffffffffffffffffffffffffff1673ffffffffffffffffffffffffffffffffffffffff16815260200190815260200160002060006101000a81548160ff0219169083151502179055508173ffffffffffffffffffffffffffffffffffffffff168373ffffffffffffffffffffffffffffffffffffffff167f17307eab39ab6107e8899845ad3d59bd9653f200f220920489ca2b5937696c31836040516122549190612a42565b60405180910390a3505050565b606060405180602001604052806000815250905090565b606061228382611931565b6122c2576040517f08c379a00000000000000000000000000000000000000000000000000000000081526004016122b990614a7f565b60405180910390fd5b60006122cc612261565b905060008151116122ec5760405180602001604052806000815250612317565b806122f68461253a565b604051602001612307929190614366565b6040516020818303038152906040525b915050919050565b600a600082815260200190815260200160002060010160159054906101000a900460ff161561234d57600080fd5b505050565b505050565b60006123788473ffffffffffffffffffffffffffffffffffffffff1661269b565b156124d2578373ffffffffffffffffffffffffffffffffffffffff1663150b7a026123a161199d565b8786866040518563ffffffff1660e01b81526004016123c39493929190614af4565b6020604051808303816000875af19250505080156123ff57506040513d601f19601f820116820180604052508101906123fc9190614b55565b60015b612482573d806000811461242f576040519150601f19603f3d011682016040523d82523d6000602084013e612434565b606091505b5060008151141561247a576040517f08c379a00000000000000000000000000000000000000000000000000000000081526004016124719061483d565b60405180910390fd5b805181602001fd5b63150b7a0260e01b7bffffffffffffffffffffffffffffffffffffffffffffffffffffffff1916817bffffffffffffffffffffffffffffffffffffffffffffffffffffffff1916149150506124d7565b600190505b949350505050565b6124e983836126be565b6124f66000848484612357565b612535576040517f08c379a000000000000000000000000000000000000000000000000000000000815260040161252c9061483d565b60405180910390fd5b505050565b60606000821415612582576040518060400160405280600181526020017f30000000000000000000000000000000000000000000000000000000000000008152509050612696565b600082905060005b600082146125b457808061259d90614b82565b915050600a826125ad9190614740565b915061258a565b60008167ffffffffffffffff8111156125d0576125cf613069565b5b6040519080825280601f01601f1916602001820160405280156126025781602001600182028036833780820191505090505b5090505b6000851461268f5760018261261b9190614042565b9150600a8561262a9190614bcb565b603061263691906146bb565b60f81b81838151811061264c5761264b614bfc565b5b60200101907effffffffffffffffffffffffffffffffffffffffffffffffffffffffffffff1916908160001a905350600a856126889190614740565b9450612606565b8093505050505b919050565b6000808273ffffffffffffffffffffffffffffffffffffffff163b119050919050565b600073ffffffffffffffffffffffffffffffffffffffff168273ffffffffffffffffffffffffffffffffffffffff16141561272e576040517f08c379a000000000000000000000000000000000000000000000000000000000815260040161272590614c77565b60405180910390fd5b61273781611931565b15612777576040517f08c379a000000000000000000000000000000000000000000000000000000000815260040161276e90614ce3565b60405180910390fd5b6127836000838361231f565b6001600360008473ffffffffffffffffffffffffffffffffffffffff1673ffffffffffffffffffffffffffffffffffffffff16815260200190815260200160002060008282546127d391906146bb565b92505081905550816002600083815260200190815260200160002060006101000a81548173ffffffffffffffffffffffffffffffffffffffff021916908373ffffffffffffffffffffffffffffffffffffffff160217905550808273ffffffffffffffffffffffffffffffffffffffff16600073ffffffffffffffffffffffffffffffffffffffff167fddf252ad1be2c89b69c2b068fc378daa952ba7f163c4a11628f55a4df523b3ef60405160405180910390a461289460008383612352565b5050565b6040518060c0016040528060608152602001600060ff168152602001600073ffffffffffffffffffffffffffffffffffffffff168152602001600015158152602001600081526020016000151581525090565b8280546128f790613286565b90600052602060002090601f0160209004810192826129195760008555612960565b82601f1061293257805160ff1916838001178555612960565b82800160010185558215612960579182015b8281111561295f578251825591602001919060010190612944565b5b50905061296d9190612971565b5090565b5b8082111561298a576000816000905550600101612972565b5090565b6000604051905090565b600080fd5b600080fd5b60007fffffffff0000000000000000000000000000000000000000000000000000000082169050919050565b6129d7816129a2565b81146129e257600080fd5b50565b6000813590506129f4816129ce565b92915050565b600060208284031215612a1057612a0f612998565b5b6000612a1e848285016129e5565b91505092915050565b60008115159050919050565b612a3c81612a27565b82525050565b6000602082019050612a576000830184612a33565b92915050565b600081519050919050565b600082825260208201905092915050565b60005b83811015612a97578082015181840152602081019050612a7c565b83811115612aa6576000848401525b50505050565b6000601f19601f8301169050919050565b6000612ac882612a5d565b612ad28185612a68565b9350612ae2818560208601612a79565b612aeb81612aac565b840191505092915050565b60006020820190508181036000830152612b108184612abd565b905092915050565b6000819050919050565b612b2b81612b18565b8114612b3657600080fd5b50565b600081359050612b4881612b22565b92915050565b600060208284031215612b6457612b63612998565b5b6000612b7284828501612b39565b91505092915050565b600073ffffffffffffffffffffffffffffffffffffffff82169050919050565b6000612ba682612b7b565b9050919050565b612bb681612b9b565b82525050565b6000602082019050612bd16000830184612bad565b92915050565b612be081612b9b565b8114612beb57600080fd5b50565b600081359050612bfd81612bd7565b92915050565b60008060408385031215612c1a57612c19612998565b5b6000612c2885828601612bee565b9250506020612c3985828601612b39565b9150509250929050565b612c4c81612b18565b82525050565b6000602082019050612c676000830184612c43565b92915050565b600080fd5b600060c08284031215612c8857612c87612c6d565b5b81905092915050565b60008060408385031215612ca857612ca7612998565b5b6000612cb685828601612b39565b925050602083013567ffffffffffffffff811115612cd757612cd661299d565b5b612ce385828601612c72565b9150509250929050565b600080600060608486031215612d0657612d05612998565b5b6000612d1486828701612bee565b9350506020612d2586828701612bee565b9250506040612d3686828701612b39565b9150509250925092565b600060208284031215612d5657612d55612998565b5b6000612d6484828501612bee565b91505092915050565b600082825260208201905092915050565b6000612d8982612a5d565b612d938185612d6d565b9350612da3818560208601612a79565b612dac81612aac565b840191505092915050565b600060ff82169050919050565b612dcd81612db7565b82525050565b612ddc81612b9b565b82525050565b612deb81612a27565b82525050565b612dfa81612b18565b82525050565b600060c0830160008301518482036000860152612e1d8282612d7e565b9150506020830151612e326020860182612dc4565b506040830151612e456040860182612dd3565b506060830151612e586060860182612de2565b506080830151612e6b6080860182612df1565b5060a0830151612e7e60a0860182612de2565b508091505092915050565b60006020820190508181036000830152612ea38184612e00565b905092915050565b600080fd5b600080fd5b600080fd5b60008083601f840112612ed057612ecf612eab565b5b8235905067ffffffffffffffff811115612eed57612eec612eb0565b5b602083019150836001820283011115612f0957612f08612eb5565b5b9250929050565b612f1981612db7565b8114612f2457600080fd5b50565b600081359050612f3681612f10565b92915050565b600080600080600080600060a0888a031215612f5b57612f5a612998565b5b6000612f698a828b01612bee565b975050602088013567ffffffffffffffff811115612f8a57612f8961299d565b5b612f968a828b01612eba565b96509650506040612fa98a828b01612f27565b9450506060612fba8a828b01612bee565b935050608088013567ffffffffffffffff811115612fdb57612fda61299d565b5b612fe78a828b01612eba565b925092505092959891949750929550565b61300181612a27565b811461300c57600080fd5b50565b60008135905061301e81612ff8565b92915050565b6000806040838503121561303b5761303a612998565b5b600061304985828601612bee565b925050602061305a8582860161300f565b9150509250929050565b600080fd5b7f4e487b7100000000000000000000000000000000000000000000000000000000600052604160045260246000fd5b6130a182612aac565b810181811067ffffffffffffffff821117156130c0576130bf613069565b5b80604052505050565b60006130d361298e565b90506130df8282613098565b919050565b600067ffffffffffffffff8211156130ff576130fe613069565b5b61310882612aac565b9050602081019050919050565b82818337600083830152505050565b6000613137613132846130e4565b6130c9565b90508281526020810184848401111561315357613152613064565b5b61315e848285613115565b509392505050565b600082601f83011261317b5761317a612eab565b5b813561318b848260208601613124565b91505092915050565b600080600080608085870312156131ae576131ad612998565b5b60006131bc87828801612bee565b94505060206131cd87828801612bee565b93505060406131de87828801612b39565b925050606085013567ffffffffffffffff8111156131ff576131fe61299d565b5b61320b87828801613166565b91505092959194509250565b6000806040838503121561322e5761322d612998565b5b600061323c85828601612bee565b925050602061324d85828601612bee565b9150509250929050565b7f4e487b7100000000000000000000000000000000000000000000000000000000600052602260045260246000fd5b6000600282049050600182168061329e57607f821691505b602082108114156132b2576132b1613257565b5b50919050565b7f4552433732313a20617070726f76656420717565727920666f72206e6f6e657860008201527f697374656e7420746f6b656e0000000000000000000000000000000000000000602082015250565b6000613314602c83612a68565b915061331f826132b8565b604082019050919050565b6000602082019050818103600083015261334381613307565b9050919050565b7f4552433732313a20617070726f76616c20746f2063757272656e74206f776e6560008201527f7200000000000000000000000000000000000000000000000000000000000000602082015250565b60006133a6602183612a68565b91506133b18261334a565b604082019050919050565b600060208201905081810360008301526133d581613399565b9050919050565b7f4552433732313a20617070726f76652063616c6c6572206973206e6f74206f7760008201527f6e6572206e6f7220617070726f76656420666f7220616c6c0000000000000000602082015250565b6000613438603883612a68565b9150613443826133dc565b604082019050919050565b600060208201905081810360008301526134678161342b565b9050919050565b7f74617267657420746f6b656e20646f6573206e6f742065786973740000000000600082015250565b60006134a4601b83612a68565b91506134af8261346e565b602082019050919050565b600060208201905081810360008301526134d381613497565b9050919050565b7f6f6e6c79206f776e65722063616e20736574204e465420737461746500000000600082015250565b6000613510601c83612a68565b915061351b826134da565b602082019050919050565b6000602082019050818103600083015261353f81613503565b9050919050565b600080fd5b600080fd5b600080fd5b6000808335600160200384360303811261357257613571613546565b5b80840192508235915067ffffffffffffffff8211156135945761359361354b565b5b6020830192506001820236038313156135b0576135af613550565b5b509250929050565b7f6d6f64696679696e6720776f726b496420697320666f7262696464656e000000600082015250565b60006135ee601d83612a68565b91506135f9826135b8565b602082019050919050565b6000602082019050818103600083015261361d816135e1565b9050919050565b60006020828403121561363a57613639612998565b5b600061364884828501612f27565b91505092915050565b7f6d6f64696679696e6720726f79616c747920697320666f7262696464656e0000600082015250565b6000613687601e83612a68565b915061369282613651565b602082019050919050565b600060208201905081810360008301526136b68161367a565b9050919050565b7f6d6f64696679696e6720726f79616c747920726563656976657220697320666f60008201527f7262696464656e00000000000000000000000000000000000000000000000000602082015250565b6000613719602783612a68565b9150613724826136bd565b604082019050919050565b600060208201905081810360008301526137488161370c565b9050919050565b60006020828403121561376557613764612998565b5b60006137738482850161300f565b91505092915050565b7f6d6f64696679696e6720726573616c6520697320666f7262696464656e000000600082015250565b60006137b2601d83612a68565b91506137bd8261377c565b602082019050919050565b600060208201905081810360008301526137e1816137a5565b9050919050565b7f7072696365206d757374206265207a65726f206f72206d6f7265207468616e2060008201527f3939207765690000000000000000000000000000000000000000000000000000602082015250565b6000613844602683612a68565b915061384f826137e8565b604082019050919050565b6000602082019050818103600083015261387381613837565b9050919050565b600082905092915050565b60008190508160005260206000209050919050565b60006020601f8301049050919050565b600082821b905092915050565b6000600883026138e77fffffffffffffffffffffffffffffffffffffffffffffffffffffffffffffffff826138aa565b6138f186836138aa565b95508019841693508086168417925050509392505050565b6000819050919050565b600061392e61392961392484612b18565b613909565b612b18565b9050919050565b6000819050919050565b61394883613913565b61395c61395482613935565b8484546138b7565b825550505050565b600090565b613971613964565b61397c81848461393f565b505050565b5b818110156139a057613995600082613969565b600181019050613982565b5050565b601f8211156139e5576139b681613885565b6139bf8461389a565b810160208510156139ce578190505b6139e26139da8561389a565b830182613981565b50505b505050565b600082821c905092915050565b6000613a08600019846008026139ea565b1980831691505092915050565b6000613a2183836139f7565b9150826002028217905092915050565b613a3b838361387a565b67ffffffffffffffff811115613a5457613a53613069565b5b613a5e8254613286565b613a698282856139a4565b6000601f831160018114613a985760008415613a86578287013590505b613a908582613a15565b865550613af8565b601f198416613aa686613885565b60005b82811015613ace57848901358255600182019150602085019450602081019050613aa9565b86831015613aeb5784890135613ae7601f8916826139f7565b8355505b6001600288020188555050505b50505050505050565b613b0c838383613a31565b505050565b60008135613b1e81612f10565b80915050919050565b60008160001b9050919050565b600060ff613b4184613b27565b9350801983169250808416831791505092915050565b6000613b72613b6d613b6884612db7565b613909565b612db7565b9050919050565b6000819050919050565b613b8c82613b57565b613b9f613b9882613b79565b8354613b34565b8255505050565b60008135613bb381612bd7565b80915050919050565b60008160081b9050919050565b600074ffffffffffffffffffffffffffffffffffffffff00613bea84613bbc565b9350801983169250808416831791505092915050565b6000613c1b613c16613c1184612b7b565b613909565b612b7b565b9050919050565b6000613c2d82613c00565b9050919050565b6000613c3f82613c22565b9050919050565b6000819050919050565b613c5982613c34565b613c6c613c6582613c46565b8354613bc9565b8255505050565b60008135613c8081612ff8565b80915050919050565b60008160a81b9050919050565b600075ff000000000000000000000000000000000000000000613cb884613c89565b9350801983169250808416831791505092915050565b6000613cd982612a27565b9050919050565b6000819050919050565b613cf382613cce565b613d06613cff82613ce0565b8354613c96565b8255505050565b60008135613d1a81612b22565b80915050919050565b60007fffffffffffffffffffffffffffffffffffffffffffffffffffffffffffffffff613d4f84613b27565b9350801983169250808416831791505092915050565b613d6e82613913565b613d81613d7a82613935565b8354613d23565b8255505050565b613d9182613cce565b613da4613d9d82613ce0565b8354613b34565b8255505050565b6000810160008301613dbd8185613555565b613dc8818386613b01565b50505050600181016020830180613dde81613b11565b9050613dea8184613b83565b505050600181016040830180613dff81613ba6565b9050613e0b8184613c50565b505050600181016060830180613e2081613c73565b9050613e2c8184613cea565b505050600281016080830180613e4181613d0d565b9050613e4d8184613d65565b5050506003810160a0830180613e6281613c73565b9050613e6e8184613d88565b5050505050565b613e7f8282613dab565b5050565b7f4552433732313a207472616e736665722063616c6c6572206973206e6f74206f60008201527f776e6572206e6f7220617070726f766564000000000000000000000000000000602082015250565b6000613edf603183612a68565b9150613eea82613e83565b604082019050919050565b60006020820190508181036000830152613f0e81613ed2565b9050919050565b7f74617267657420746f6b656e206973206e6f7420666f722073616c6500000000600082015250565b6000613f4b601c83612a68565b9150613f5682613f15565b602082019050919050565b60006020820190508181036000830152613f7a81613f3e565b9050919050565b7f73656e742076616c756520646f6573206e6f74206d6174636820746f6b656e2060008201527f7072696365000000000000000000000000000000000000000000000000000000602082015250565b6000613fdd602583612a68565b9150613fe882613f81565b604082019050919050565b6000602082019050818103600083015261400c81613fd0565b9050919050565b7f4e487b7100000000000000000000000000000000000000000000000000000000600052601160045260246000fd5b600061404d82612b18565b915061405883612b18565b92508282101561406b5761406a614013565b5b828203905092915050565b7f4552433732313a206f776e657220717565727920666f72206e6f6e657869737460008201527f656e7420746f6b656e0000000000000000000000000000000000000000000000602082015250565b60006140d2602983612a68565b91506140dd82614076565b604082019050919050565b60006020820190508181036000830152614101816140c5565b9050919050565b7f4552433732313a2062616c616e636520717565727920666f7220746865207a6560008201527f726f206164647265737300000000000000000000000000000000000000000000602082015250565b6000614164602a83612a68565b915061416f82614108565b604082019050919050565b6000602082019050818103600083015261419381614157565b9050919050565b7f4f776e61626c653a2063616c6c6572206973206e6f7420746865206f776e6572600082015250565b60006141d0602083612a68565b91506141db8261419a565b602082019050919050565b600060208201905081810360008301526141ff816141c3565b9050919050565b7f73656e742076616c756520646f6573206e6f74206d61746368206d696e74206660008201527f6565000000000000000000000000000000000000000000000000000000000000602082015250565b6000614262602283612a68565b915061426d82614206565b604082019050919050565b6000602082019050818103600083015261429181614255565b9050919050565b7f45524337323155524953746f726167653a2055524920717565727920666f722060008201527f6e6f6e6578697374656e7420746f6b656e000000000000000000000000000000602082015250565b60006142f4603183612a68565b91506142ff82614298565b604082019050919050565b60006020820190508181036000830152614323816142e7565b9050919050565b600081905092915050565b600061434082612a5d565b61434a818561432a565b935061435a818560208601612a79565b80840191505092915050565b60006143728285614335565b915061437e8284614335565b91508190509392505050565b7f4f776e61626c653a206e6577206f776e657220697320746865207a65726f206160008201527f6464726573730000000000000000000000000000000000000000000000000000602082015250565b60006143e6602683612a68565b91506143f18261438a565b604082019050919050565b60006020820190508181036000830152614415816143d9565b9050919050565b6000614428838561432a565b9350614435838584613115565b82840190509392505050565b600061444e82848661441c565b91508190509392505050565b60008190508160005260206000209050919050565b6000815461447c81613286565b614486818661432a565b945060018216600081146144a157600181146144b2576144e5565b60ff198316865281860193506144e5565b6144bb8561445a565b60005b838110156144dd578154818901526001820191506020810190506144be565b838801955050505b50505092915050565b60006144fa828461446f565b915081905092915050565b7f4552433732313a206f70657261746f7220717565727920666f72206e6f6e657860008201527f697374656e7420746f6b656e0000000000000000000000000000000000000000602082015250565b6000614561602c83612a68565b915061456c82614505565b604082019050919050565b6000602082019050818103600083015261459081614554565b9050919050565b7f4552433732313a207472616e736665722066726f6d20696e636f72726563742060008201527f6f776e6572000000000000000000000000000000000000000000000000000000602082015250565b60006145f3602583612a68565b91506145fe82614597565b604082019050919050565b60006020820190508181036000830152614622816145e6565b9050919050565b7f4552433732313a207472616e7366657220746f20746865207a65726f2061646460008201527f7265737300000000000000000000000000000000000000000000000000000000602082015250565b6000614685602483612a68565b915061469082614629565b604082019050919050565b600060208201905081810360008301526146b481614678565b9050919050565b60006146c682612b18565b91506146d183612b18565b9250827fffffffffffffffffffffffffffffffffffffffffffffffffffffffffffffffff0382111561470657614705614013565b5b828201905092915050565b7f4e487b7100000000000000000000000000000000000000000000000000000000600052601260045260246000fd5b600061474b82612b18565b915061475683612b18565b92508261476657614765614711565b5b828204905092915050565b600061477c82612b18565b915061478783612b18565b9250817fffffffffffffffffffffffffffffffffffffffffffffffffffffffffffffffff04831182151516156147c0576147bf614013565b5b828202905092915050565b7f4552433732313a207472616e7366657220746f206e6f6e20455243373231526560008201527f63656976657220696d706c656d656e7465720000000000000000000000000000602082015250565b6000614827603283612a68565b9150614832826147cb565b604082019050919050565b600060208201905081810360008301526148568161481a565b9050919050565b600081905092915050565b50565b600061487860008361485d565b915061488382614868565b600082019050919050565b60006148998261486b565b9150819050919050565b7f6661696c656420746f207472616e736665722065746865720000000000000000600082015250565b60006148d9601883612a68565b91506148e4826148a3565b602082019050919050565b60006020820190508181036000830152614908816148cc565b9050919050565b7f45524337323155524953746f726167653a2055524920736574206f66206e6f6e60008201527f6578697374656e7420746f6b656e000000000000000000000000000000000000602082015250565b600061496b602e83612a68565b91506149768261490f565b604082019050919050565b6000602082019050818103600083015261499a8161495e565b9050919050565b7f4552433732313a20617070726f766520746f2063616c6c657200000000000000600082015250565b60006149d7601983612a68565b91506149e2826149a1565b602082019050919050565b60006020820190508181036000830152614a06816149ca565b9050919050565b7f4552433732314d657461646174613a2055524920717565727920666f72206e6f60008201527f6e6578697374656e7420746f6b656e0000000000000000000000000000000000602082015250565b6000614a69602f83612a68565b9150614a7482614a0d565b604082019050919050565b60006020820190508181036000830152614a9881614a5c565b9050919050565b600081519050919050565b600082825260208201905092915050565b6000614ac682614a9f565b614ad08185614aaa565b9350614ae0818560208601612a79565b614ae981612aac565b840191505092915050565b6000608082019050614b096000830187612bad565b614b166020830186612bad565b614b236040830185612c43565b8181036060830152614b358184614abb565b905095945050505050565b600081519050614b4f816129ce565b92915050565b600060208284031215614b6b57614b6a612998565b5b6000614b7984828501614b40565b91505092915050565b6000614b8d82612b18565b91507fffffffffffffffffffffffffffffffffffffffffffffffffffffffffffffffff821415614bc057614bbf614013565b5b600182019050919050565b6000614bd682612b18565b9150614be183612b18565b925082614bf157614bf0614711565b5b828206905092915050565b7f4e487b7100000000000000000000000000000000000000000000000000000000600052603260045260246000fd5b7f4552433732313a206d696e7420746f20746865207a65726f2061646472657373600082015250565b6000614c61602083612a68565b9150614c6c82614c2b565b602082019050919050565b60006020820190508181036000830152614c9081614c54565b9050919050565b7f4552433732313a20746f6b656e20616c7265616479206d696e74656400000000600082015250565b6000614ccd601c83612a68565b9150614cd882614c97565b602082019050919050565b60006020820190508181036000830152614cfc81614cc0565b905091905056fea2646970667358221220e47a8d609eb1879d27670e6a2e200f57faf046e36335620541300947d679f41564736f6c634300080b0033",
  "immutableReferences": {},
  "source": "// SPDX-License-Identifier: MIT\npragma solidity ^0.8.0;\n\nimport \"@openzeppelin/contracts/access/Ownable.sol\";\nimport \"@openzeppelin/contracts/token/ERC721/ERC721.sol\";\nimport \"@openzeppelin/contracts/token/ERC721/extensions/ERC721URIStorage.sol\";\nimport \"@openzeppelin/contracts/utils/Counters.sol\";\n\nstruct NFTState {\n    // immutable states\n    string workId;\n    uint8 royalty;\n    address royaltyReceiver; // TODO; for management purpose it may be mutable in some condition\n    // mutable states\n    bool isTrading;\n    uint256 price;\n    // mutable but only mutated by contract\n    bool resale;\n}\n\ncontract Tamtam is ERC721URIStorage, Ownable {\n    using Counters for Counters.Counter;\n\n    Counters.Counter private _tokenIdCounter;\n    uint256 public mintFee;\n\n    mapping (uint256 => NFTState) _nftStateMap;\n\n    constructor(uint256 initMintFee) ERC721(\"Tamtam\", \"TAMTAM\") {\n        mintFee = initMintFee;\n    }\n\n    function equalString(\n        string storage a,\n        string calldata b\n    )\n        internal pure\n        returns (bool)\n    {\n        return keccak256(abi.encodePacked(a)) == keccak256(abi.encodePacked(b));\n    }\n\n    function nftState(uint256 tokenId) external view returns (NFTState memory) {\n        require (_exists(tokenId), \"target token does not exist\");\n        return _nftStateMap[tokenId];\n    }\n\n    function setMintFee(uint256 newMintFee) external onlyOwner() {\n        mintFee = newMintFee;\n    }\n\n    function setNFTState(\n        uint256 tokenId,\n        NFTState calldata state1\n    )\n        external\n    {\n        require (_exists(tokenId), \"target token does not exist\");\n        require (msg.sender == ownerOf(tokenId), \"only owner can set NFT state\");\n\n        NFTState storage state0 = _nftStateMap[tokenId];\n        require (equalString(state0.workId, state1.workId), \"modifying workId is forbidden\");\n        require (state0.royalty == state1.royalty, \"modifying royalty is forbidden\");\n        require (state0.royaltyReceiver == state1.royaltyReceiver, \"modifying royalty receiver is forbidden\");\n        require (state0.resale == state1.resale, \"modifying resale is forbidden\");\n        require (state1.price > 99 || state1.price == 0, \"price must be zero or more than 99 wei\");\n\n        _nftStateMap[tokenId] = state1;\n    }\n\n    function transferEther(address to, uint256 amount) internal {\n        (bool success, ) = to.call{value: amount}(\"\");\n        require (success, \"failed to transfer ether\");\n    }\n\n    function mint(\n        address tokenOwner,\n        string calldata workId,\n        uint8 royalty,\n        address royaltyReceiver,\n        string calldata uri\n    )\n        external payable\n        returns (uint256)\n    {\n        require (msg.value == mintFee, \"sent value does not match mint fee\");\n        require (royalty < 11);\n\n        _tokenIdCounter.increment();\n        uint256 tokenId = _tokenIdCounter.current();\n\n        _safeMint(tokenOwner, tokenId);\n        _setTokenURI(tokenId, uri);\n        _nftStateMap[tokenId] = NFTState({\n            workId: workId,\n            royalty: royalty,\n            royaltyReceiver: royaltyReceiver,\n            isTrading: false,\n            price: 0,\n            resale: false\n        });\n\n        transferEther(owner(), msg.value);\n\n        return tokenId;\n    }\n\n    function calcIntegerFee(uint256 price, uint8 percent)\n        internal pure\n        returns (uint256)\n    {\n        if (percent == 0) {\n            return 0;\n        }\n        /* 1. `price` is guaranteed to be larger than 99 (<= 100)\n         * 2. `percent` is guaranteed to be 0 ~ 10\n         *    1. 0 ~ 10 when calculating creator royalty\n         *    2. 5 when calculating first sale platform fee\n         *    3. 2.5 when calculating resale platform fee; this case MUST use\n         *       `calcResaleFee` function instead\n         * 3. decimal point is dropped */\n        return price / 100 * percent;\n    }\n\n    function calcFirstSaleFee(uint256 price) internal pure returns (uint256) {\n        return calcIntegerFee(price, 5);\n    }\n\n    function calcResaleFee(uint256 price) internal pure returns (uint256) {\n        // Solidity does not provide floating number operations\n        return calcFirstSaleFee(price) / 2;\n    }\n\n    function buyNFT(uint256 tokenId) external payable {\n        require (_exists(tokenId), \"target token does not exist\");\n\n        // TODO; benchmark if using `memory` costs less\n        NFTState storage state = _nftStateMap[tokenId];\n        require (state.isTrading, \"target token is not for sale\");\n        require (msg.value == state.price, \"sent value does not match token price\");\n\n        uint256 creatorRoyalty = calcIntegerFee(state.price, state.royalty);\n        uint256 platformFee;\n        if (state.resale) {\n            platformFee = calcResaleFee(state.price);\n        } else {\n            platformFee = calcFirstSaleFee(state.price);\n            state.resale = true;\n        }\n        uint256 payment = msg.value - creatorRoyalty - platformFee;\n\n        address seller = ownerOf(tokenId);\n        address to = msg.sender;\n        address creator = state.royaltyReceiver;\n\n        state.isTrading = false;\n        state.price = 0;\n\n        bytes memory data;\n        _safeTransfer(seller, to, tokenId, data);\n\n        transferEther(creator, creatorRoyalty);\n        transferEther(seller, payment);\n        transferEther(owner(), platformFee);\n    }\n\n    function _beforeTokenTransfer(\n        address /* from */,\n        address /* to */,\n        uint256 tokenId\n    ) internal view override {\n        require (!_nftStateMap[tokenId].isTrading);\n    }\n}\n",
  "sourcePath": "/home/asdf/project/gitlab.lsware.net/nft-plus/tamtam-nft/contracts/Tamtam.sol",
  "compiler": {
    "name": "solc",
    "version": "0.8.11+commit.d7f03943.Emscripten.clang"
  },
  "schemaVersion": "3.4.4",
  "updatedAt": "2022-02-17T05:18:36.188Z",
  "networkType": "ethereum",
  "devdoc": {
    "kind": "dev",
    "methods": {
      "approve(address,uint256)": {
        "details": "See {IERC721-approve}."
      },
      "balanceOf(address)": {
        "details": "See {IERC721-balanceOf}."
      },
      "getApproved(uint256)": {
        "details": "See {IERC721-getApproved}."
      },
      "isApprovedForAll(address,address)": {
        "details": "See {IERC721-isApprovedForAll}."
      },
      "name()": {
        "details": "See {IERC721Metadata-name}."
      },
      "owner()": {
        "details": "Returns the address of the current owner."
      },
      "ownerOf(uint256)": {
        "details": "See {IERC721-ownerOf}."
      },
      "renounceOwnership()": {
        "details": "Leaves the contract without owner. It will not be possible to call `onlyOwner` functions anymore. Can only be called by the current owner. NOTE: Renouncing ownership will leave the contract without an owner, thereby removing any functionality that is only available to the owner."
      },
      "safeTransferFrom(address,address,uint256)": {
        "details": "See {IERC721-safeTransferFrom}."
      },
      "safeTransferFrom(address,address,uint256,bytes)": {
        "details": "See {IERC721-safeTransferFrom}."
      },
      "setApprovalForAll(address,bool)": {
        "details": "See {IERC721-setApprovalForAll}."
      },
      "supportsInterface(bytes4)": {
        "details": "See {IERC165-supportsInterface}."
      },
      "symbol()": {
        "details": "See {IERC721Metadata-symbol}."
      },
      "tokenURI(uint256)": {
        "details": "See {IERC721Metadata-tokenURI}."
      },
      "transferFrom(address,address,uint256)": {
        "details": "See {IERC721-transferFrom}."
      },
      "transferOwnership(address)": {
        "details": "Transfers ownership of the contract to a new account (`newOwner`). Can only be called by the current owner."
      }
    },
    "version": 1
  },
  "userdoc": {
    "kind": "user",
    "methods": {},
    "version": 1
  }
}