{
    "_format": "hh-sol-artifact-1",
    "contractName": "LicenseNFT",
    "sourceName": "contracts/LicenseNFT.sol",
    "abi": [
        {
            "inputs": [
                {
                    "internalType": "address",
                    "name": "initialOwner",
                    "type": "address"
                },
                {
                    "internalType": "address",
                    "name": "_srcNftAddress",
                    "type": "address"
                }
            ],
            "stateMutability": "nonpayable",
            "type": "constructor"
        },
        {
            "inputs": [],
            "name": "AccessControlBadConfirmation",
            "type": "error"
        },
        {
            "inputs": [
                {
                    "internalType": "address",
                    "name": "account",
                    "type": "address"
                },
                {
                    "internalType": "bytes32",
                    "name": "neededRole",
                    "type": "bytes32"
                }
            ],
            "name": "AccessControlUnauthorizedAccount",
            "type": "error"
        },
        {
            "inputs": [
                {
                    "internalType": "address",
                    "name": "sender",
                    "type": "address"
                },
                {
                    "internalType": "uint256",
                    "name": "tokenId",
                    "type": "uint256"
                },
                {
                    "internalType": "address",
                    "name": "owner",
                    "type": "address"
                }
            ],
            "name": "ERC721IncorrectOwner",
            "type": "error"
        },
        {
            "inputs": [
                {
                    "internalType": "address",
                    "name": "operator",
                    "type": "address"
                },
                {
                    "internalType": "uint256",
                    "name": "tokenId",
                    "type": "uint256"
                }
            ],
            "name": "ERC721InsufficientApproval",
            "type": "error"
        },
        {
            "inputs": [
                {
                    "internalType": "address",
                    "name": "approver",
                    "type": "address"
                }
            ],
            "name": "ERC721InvalidApprover",
            "type": "error"
        },
        {
            "inputs": [
                {
                    "internalType": "address",
                    "name": "operator",
                    "type": "address"
                }
            ],
            "name": "ERC721InvalidOperator",
            "type": "error"
        },
        {
            "inputs": [
                {
                    "internalType": "address",
                    "name": "owner",
                    "type": "address"
                }
            ],
            "name": "ERC721InvalidOwner",
            "type": "error"
        },
        {
            "inputs": [
                {
                    "internalType": "address",
                    "name": "receiver",
                    "type": "address"
                }
            ],
            "name": "ERC721InvalidReceiver",
            "type": "error"
        },
        {
            "inputs": [
                {
                    "internalType": "address",
                    "name": "sender",
                    "type": "address"
                }
            ],
            "name": "ERC721InvalidSender",
            "type": "error"
        },
        {
            "inputs": [
                {
                    "internalType": "uint256",
                    "name": "tokenId",
                    "type": "uint256"
                }
            ],
            "name": "ERC721NonexistentToken",
            "type": "error"
        },
        {
            "anonymous": false,
            "inputs": [
                {
                    "indexed": true,
                    "internalType": "address",
                    "name": "owner",
                    "type": "address"
                },
                {
                    "indexed": true,
                    "internalType": "address",
                    "name": "approved",
                    "type": "address"
                },
                {
                    "indexed": true,
                    "internalType": "uint256",
                    "name": "tokenId",
                    "type": "uint256"
                }
            ],
            "name": "Approval",
            "type": "event"
        },
        {
            "anonymous": false,
            "inputs": [
                {
                    "indexed": true,
                    "internalType": "address",
                    "name": "owner",
                    "type": "address"
                },
                {
                    "indexed": true,
                    "internalType": "address",
                    "name": "operator",
                    "type": "address"
                },
                {
                    "indexed": false,
                    "internalType": "bool",
                    "name": "approved",
                    "type": "bool"
                }
            ],
            "name": "ApprovalForAll",
            "type": "event"
        },
        {
            "anonymous": false,
            "inputs": [
                {
                    "indexed": true,
                    "internalType": "address",
                    "name": "owner",
                    "type": "address"
                },
                {
                    "indexed": true,
                    "internalType": "uint256",
                    "name": "tokenId",
                    "type": "uint256"
                }
            ],
            "name": "Burned",
            "type": "event"
        },
        {
            "anonymous": false,
            "inputs": [
                {
                    "indexed": false,
                    "internalType": "uint256",
                    "name": "tokenId",
                    "type": "uint256"
                },
                {
                    "indexed": false,
                    "internalType": "address",
                    "name": "to",
                    "type": "address"
                },
                {
                    "indexed": false,
                    "internalType": "uint256",
                    "name": "srcTokenId",
                    "type": "uint256"
                },
                {
                    "indexed": false,
                    "internalType": "enum LicenseNFT.CopyrightType[]",
                    "name": "copyrightTypes",
                    "type": "uint8[]"
                },
                {
                    "indexed": false,
                    "internalType": "string[2]",
                    "name": "userInfo",
                    "type": "string[2]"
                },
                {
                    "indexed": false,
                    "internalType": "string[3]",
                    "name": "licenseContractInfo",
                    "type": "string[3]"
                }
            ],
            "name": "Minted",
            "type": "event"
        },
        {
            "anonymous": false,
            "inputs": [
                {
                    "indexed": true,
                    "internalType": "bytes32",
                    "name": "role",
                    "type": "bytes32"
                },
                {
                    "indexed": true,
                    "internalType": "bytes32",
                    "name": "previousAdminRole",
                    "type": "bytes32"
                },
                {
                    "indexed": true,
                    "internalType": "bytes32",
                    "name": "newAdminRole",
                    "type": "bytes32"
                }
            ],
            "name": "RoleAdminChanged",
            "type": "event"
        },
        {
            "anonymous": false,
            "inputs": [
                {
                    "indexed": true,
                    "internalType": "bytes32",
                    "name": "role",
                    "type": "bytes32"
                },
                {
                    "indexed": true,
                    "internalType": "address",
                    "name": "account",
                    "type": "address"
                },
                {
                    "indexed": true,
                    "internalType": "address",
                    "name": "sender",
                    "type": "address"
                }
            ],
            "name": "RoleGranted",
            "type": "event"
        },
        {
            "anonymous": false,
            "inputs": [
                {
                    "indexed": true,
                    "internalType": "bytes32",
                    "name": "role",
                    "type": "bytes32"
                },
                {
                    "indexed": true,
                    "internalType": "address",
                    "name": "account",
                    "type": "address"
                },
                {
                    "indexed": true,
                    "internalType": "address",
                    "name": "sender",
                    "type": "address"
                }
            ],
            "name": "RoleRevoked",
            "type": "event"
        },
        {
            "anonymous": false,
            "inputs": [
                {
                    "indexed": true,
                    "internalType": "address",
                    "name": "from",
                    "type": "address"
                },
                {
                    "indexed": true,
                    "internalType": "address",
                    "name": "to",
                    "type": "address"
                },
                {
                    "indexed": true,
                    "internalType": "uint256",
                    "name": "tokenId",
                    "type": "uint256"
                }
            ],
            "name": "Transfer",
            "type": "event"
        },
        {
            "inputs": [],
            "name": "DEFAULT_ADMIN_ROLE",
            "outputs": [
                {
                    "internalType": "bytes32",
                    "name": "",
                    "type": "bytes32"
                }
            ],
            "stateMutability": "view",
            "type": "function"
        },
        {
            "inputs": [
                {
                    "internalType": "address",
                    "name": "to",
                    "type": "address"
                },
                {
                    "internalType": "uint256",
                    "name": "tokenId",
                    "type": "uint256"
                }
            ],
            "name": "approve",
            "outputs": [],
            "stateMutability": "nonpayable",
            "type": "function"
        },
        {
            "inputs": [
                {
                    "internalType": "address",
                    "name": "owner",
                    "type": "address"
                }
            ],
            "name": "balanceOf",
            "outputs": [
                {
                    "internalType": "uint256",
                    "name": "",
                    "type": "uint256"
                }
            ],
            "stateMutability": "view",
            "type": "function"
        },
        {
            "inputs": [
                {
                    "internalType": "uint256",
                    "name": "tokenId",
                    "type": "uint256"
                }
            ],
            "name": "burn",
            "outputs": [],
            "stateMutability": "nonpayable",
            "type": "function"
        },
        {
            "inputs": [
                {
                    "internalType": "uint256",
                    "name": "tokenId",
                    "type": "uint256"
                }
            ],
            "name": "getApproved",
            "outputs": [
                {
                    "internalType": "address",
                    "name": "",
                    "type": "address"
                }
            ],
            "stateMutability": "view",
            "type": "function"
        },
        {
            "inputs": [
                {
                    "internalType": "bytes32",
                    "name": "role",
                    "type": "bytes32"
                }
            ],
            "name": "getRoleAdmin",
            "outputs": [
                {
                    "internalType": "bytes32",
                    "name": "",
                    "type": "bytes32"
                }
            ],
            "stateMutability": "view",
            "type": "function"
        },
        {
            "inputs": [
                {
                    "internalType": "uint256",
                    "name": "_tokenId",
                    "type": "uint256"
                }
            ],
            "name": "getTokenInfo",
            "outputs": [
                {
                    "components": [
                        {
                            "internalType": "enum LicenseNFT.CopyrightType[]",
                            "name": "copyrightTypes",
                            "type": "uint8[]"
                        },
                        {
                            "components": [
                                {
                                    "internalType": "string",
                                    "name": "userName",
                                    "type": "string"
                                },
                                {
                                    "internalType": "string",
                                    "name": "userId",
                                    "type": "string"
                                }
                            ],
                            "internalType": "struct LicenseNFT.UserInfo",
                            "name": "userInfo",
                            "type": "tuple"
                        },
                        {
                            "components": [
                                {
                                    "internalType": "string",
                                    "name": "licneseInfo",
                                    "type": "string"
                                },
                                {
                                    "internalType": "string",
                                    "name": "constraints",
                                    "type": "string"
                                },
                                {
                                    "internalType": "string",
                                    "name": "lreif",
                                    "type": "string"
                                }
                            ],
                            "internalType": "struct LicenseNFT.LicenseContractInfo",
                            "name": "licenseContractInfo",
                            "type": "tuple"
                        }
                    ],
                    "internalType": "struct LicenseNFT.TokenInfo",
                    "name": "",
                    "type": "tuple"
                }
            ],
            "stateMutability": "view",
            "type": "function"
        },
        {
            "inputs": [
                {
                    "internalType": "bytes32",
                    "name": "role",
                    "type": "bytes32"
                },
                {
                    "internalType": "address",
                    "name": "account",
                    "type": "address"
                }
            ],
            "name": "grantRole",
            "outputs": [],
            "stateMutability": "nonpayable",
            "type": "function"
        },
        {
            "inputs": [
                {
                    "internalType": "bytes32",
                    "name": "role",
                    "type": "bytes32"
                },
                {
                    "internalType": "address",
                    "name": "account",
                    "type": "address"
                }
            ],
            "name": "hasRole",
            "outputs": [
                {
                    "internalType": "bool",
                    "name": "",
                    "type": "bool"
                }
            ],
            "stateMutability": "view",
            "type": "function"
        },
        {
            "inputs": [
                {
                    "internalType": "address",
                    "name": "owner",
                    "type": "address"
                },
                {
                    "internalType": "address",
                    "name": "operator",
                    "type": "address"
                }
            ],
            "name": "isApprovedForAll",
            "outputs": [
                {
                    "internalType": "bool",
                    "name": "",
                    "type": "bool"
                }
            ],
            "stateMutability": "view",
            "type": "function"
        },
        {
            "inputs": [],
            "name": "name",
            "outputs": [
                {
                    "internalType": "string",
                    "name": "",
                    "type": "string"
                }
            ],
            "stateMutability": "view",
            "type": "function"
        },
        {
            "inputs": [
                {
                    "internalType": "uint256",
                    "name": "tokenId",
                    "type": "uint256"
                }
            ],
            "name": "ownerOf",
            "outputs": [
                {
                    "internalType": "address",
                    "name": "",
                    "type": "address"
                }
            ],
            "stateMutability": "view",
            "type": "function"
        },
        {
            "inputs": [
                {
                    "internalType": "bytes32",
                    "name": "role",
                    "type": "bytes32"
                },
                {
                    "internalType": "address",
                    "name": "callerConfirmation",
                    "type": "address"
                }
            ],
            "name": "renounceRole",
            "outputs": [],
            "stateMutability": "nonpayable",
            "type": "function"
        },
        {
            "inputs": [
                {
                    "internalType": "bytes32",
                    "name": "role",
                    "type": "bytes32"
                },
                {
                    "internalType": "address",
                    "name": "account",
                    "type": "address"
                }
            ],
            "name": "revokeRole",
            "outputs": [],
            "stateMutability": "nonpayable",
            "type": "function"
        },
        {
            "inputs": [
                {
                    "internalType": "address",
                    "name": "to",
                    "type": "address"
                },
                {
                    "internalType": "uint256",
                    "name": "srcTokenId",
                    "type": "uint256"
                },
                {
                    "internalType": "string[2]",
                    "name": "userInfos",
                    "type": "string[2]"
                },
                {
                    "internalType": "string[3]",
                    "name": "licenseContractInfos",
                    "type": "string[3]"
                }
            ],
            "name": "safeMint",
            "outputs": [],
            "stateMutability": "nonpayable",
            "type": "function"
        },
        {
            "inputs": [
                {
                    "internalType": "address",
                    "name": "from",
                    "type": "address"
                },
                {
                    "internalType": "address",
                    "name": "to",
                    "type": "address"
                },
                {
                    "internalType": "uint256",
                    "name": "tokenId",
                    "type": "uint256"
                }
            ],
            "name": "safeTransferFrom",
            "outputs": [],
            "stateMutability": "nonpayable",
            "type": "function"
        },
        {
            "inputs": [
                {
                    "internalType": "address",
                    "name": "from",
                    "type": "address"
                },
                {
                    "internalType": "address",
                    "name": "to",
                    "type": "address"
                },
                {
                    "internalType": "uint256",
                    "name": "tokenId",
                    "type": "uint256"
                },
                {
                    "internalType": "bytes",
                    "name": "data",
                    "type": "bytes"
                }
            ],
            "name": "safeTransferFrom",
            "outputs": [],
            "stateMutability": "nonpayable",
            "type": "function"
        },
        {
            "inputs": [
                {
                    "internalType": "address",
                    "name": "operator",
                    "type": "address"
                },
                {
                    "internalType": "bool",
                    "name": "approved",
                    "type": "bool"
                }
            ],
            "name": "setApprovalForAll",
            "outputs": [],
            "stateMutability": "nonpayable",
            "type": "function"
        },
        {
            "inputs": [
                {
                    "internalType": "uint256",
                    "name": "",
                    "type": "uint256"
                }
            ],
            "name": "srcTokenIds",
            "outputs": [
                {
                    "internalType": "uint256",
                    "name": "",
                    "type": "uint256"
                }
            ],
            "stateMutability": "view",
            "type": "function"
        },
        {
            "inputs": [
                {
                    "internalType": "bytes4",
                    "name": "interfaceId",
                    "type": "bytes4"
                }
            ],
            "name": "supportsInterface",
            "outputs": [
                {
                    "internalType": "bool",
                    "name": "",
                    "type": "bool"
                }
            ],
            "stateMutability": "view",
            "type": "function"
        },
        {
            "inputs": [],
            "name": "symbol",
            "outputs": [
                {
                    "internalType": "string",
                    "name": "",
                    "type": "string"
                }
            ],
            "stateMutability": "view",
            "type": "function"
        },
        {
            "inputs": [
                {
                    "internalType": "uint256",
                    "name": "",
                    "type": "uint256"
                },
                {
                    "internalType": "uint256",
                    "name": "",
                    "type": "uint256"
                }
            ],
            "name": "tokenIds",
            "outputs": [
                {
                    "internalType": "uint256",
                    "name": "",
                    "type": "uint256"
                }
            ],
            "stateMutability": "view",
            "type": "function"
        },
        {
            "inputs": [
                {
                    "internalType": "uint256",
                    "name": "tokenId",
                    "type": "uint256"
                }
            ],
            "name": "tokenURI",
            "outputs": [
                {
                    "internalType": "string",
                    "name": "",
                    "type": "string"
                }
            ],
            "stateMutability": "view",
            "type": "function"
        },
        {
            "inputs": [],
            "name": "totalSupply",
            "outputs": [
                {
                    "internalType": "uint256",
                    "name": "",
                    "type": "uint256"
                }
            ],
            "stateMutability": "view",
            "type": "function"
        },
        {
            "inputs": [
                {
                    "internalType": "address",
                    "name": "from",
                    "type": "address"
                },
                {
                    "internalType": "address",
                    "name": "to",
                    "type": "address"
                },
                {
                    "internalType": "uint256",
                    "name": "tokenId",
                    "type": "uint256"
                }
            ],
            "name": "transferFrom",
            "outputs": [],
            "stateMutability": "nonpayable",
            "type": "function"
        }
    ],
    "bytecode": "0x60a06040523480156200001157600080fd5b50604051620045bb380380620045bb8339818101604052810190620000379190620002fc565b6040518060400160405280600a81526020017f4c6963656e73654e4654000000000000000000000000000000000000000000008152506040518060400160405280600381526020017f4c4e5400000000000000000000000000000000000000000000000000000000008152508160009081620000b49190620005bd565b508060019081620000c69190620005bd565b5050508073ffffffffffffffffffffffffffffffffffffffff1660808173ffffffffffffffffffffffffffffffffffffffff1681525050620001126000801b836200011b60201b60201c565b505050620006a4565b60006200012f83836200021f60201b60201c565b620002145760016006600085815260200190815260200160002060000160008473ffffffffffffffffffffffffffffffffffffffff1673ffffffffffffffffffffffffffffffffffffffff16815260200190815260200160002060006101000a81548160ff021916908315150217905550620001b06200028a60201b60201c565b73ffffffffffffffffffffffffffffffffffffffff168273ffffffffffffffffffffffffffffffffffffffff16847f2f8788117e7eff1d82e926ec794901d17c78024a50270940304540a733656f0d60405160405180910390a46001905062000219565b600090505b92915050565b60006006600084815260200190815260200160002060000160008373ffffffffffffffffffffffffffffffffffffffff1673ffffffffffffffffffffffffffffffffffffffff16815260200190815260200160002060009054906101000a900460ff16905092915050565b600033905090565b600080fd5b600073ffffffffffffffffffffffffffffffffffffffff82169050919050565b6000620002c48262000297565b9050919050565b620002d681620002b7565b8114620002e257600080fd5b50565b600081519050620002f681620002cb565b92915050565b6000806040838503121562000316576200031562000292565b5b60006200032685828601620002e5565b92505060206200033985828601620002e5565b9150509250929050565b600081519050919050565b7f4e487b7100000000000000000000000000000000000000000000000000000000600052604160045260246000fd5b7f4e487b7100000000000000000000000000000000000000000000000000000000600052602260045260246000fd5b60006002820490506001821680620003c557607f821691505b602082108103620003db57620003da6200037d565b5b50919050565b60008190508160005260206000209050919050565b60006020601f8301049050919050565b600082821b905092915050565b600060088302620004457fffffffffffffffffffffffffffffffffffffffffffffffffffffffffffffffff8262000406565b62000451868362000406565b95508019841693508086168417925050509392505050565b6000819050919050565b6000819050919050565b60006200049e62000498620004928462000469565b62000473565b62000469565b9050919050565b6000819050919050565b620004ba836200047d565b620004d2620004c982620004a5565b84845462000413565b825550505050565b600090565b620004e9620004da565b620004f6818484620004af565b505050565b5b818110156200051e5762000512600082620004df565b600181019050620004fc565b5050565b601f8211156200056d576200053781620003e1565b6200054284620003f6565b8101602085101562000552578190505b6200056a6200056185620003f6565b830182620004fb565b50505b505050565b600082821c905092915050565b6000620005926000198460080262000572565b1980831691505092915050565b6000620005ad83836200057f565b9150826002028217905092915050565b620005c88262000343565b67ffffffffffffffff811115620005e457620005e36200034e565b5b620005f08254620003ac565b620005fd82828562000522565b600060209050601f83116001811462000635576000841562000620578287015190505b6200062c85826200059f565b8655506200069c565b601f1984166200064586620003e1565b60005b828110156200066f5784890151825560018201915060208501945060208101905062000648565b868310156200068f57848901516200068b601f8916826200057f565b8355505b6001600288020188555050505b505050505050565b608051613efb620006c0600039600061144e0152613efb6000f3fe608060405234801561001057600080fd5b50600436106101735760003560e01c80635f7b6c06116100de578063a217fddf11610097578063c87b56dd11610071578063c87b56dd1461046c578063d547741f1461049c578063e985e9c5146104b8578063eed8cc35146104e857610173565b8063a217fddf14610416578063a22cb46514610434578063b88d4fde1461045057610173565b80635f7b6c06146103085780636352211e1461033857806370a08231146103685780638c7a63ae1461039857806391d14854146103c857806395d89b41146103f857610173565b806323b872dd1161013057806323b872dd1461024c578063248a9ca3146102685780632f2ff15d1461029857806336568abe146102b457806342842e0e146102d057806342966c68146102ec57610173565b806301ffc9a71461017857806306fdde03146101a8578063081812fc146101c6578063095ea7b3146101f65780630a16ed0e1461021257806318160ddd1461022e575b600080fd5b610192600480360381019061018d91906128b4565b610518565b60405161019f91906128fc565b60405180910390f35b6101b061052a565b6040516101bd91906129a7565b60405180910390f35b6101e060048036038101906101db91906129ff565b6105bc565b6040516101ed9190612a6d565b60405180910390f35b610210600480360381019061020b9190612ab4565b6105d8565b005b61022c60048036038101906102279190612dcc565b6105ee565b005b61023661084b565b6040516102439190612e7a565b60405180910390f35b61026660048036038101906102619190612e95565b610851565b005b610282600480360381019061027d9190612f1e565b610907565b60405161028f9190612f5a565b60405180910390f35b6102b260048036038101906102ad9190612f75565b610927565b005b6102ce60048036038101906102c99190612f75565b610949565b005b6102ea60048036038101906102e59190612e95565b6109c4565b005b610306600480360381019061030191906129ff565b6109e4565b005b610322600480360381019061031d91906129ff565b610b35565b60405161032f9190612e7a565b60405180910390f35b610352600480360381019061034d91906129ff565b610b4d565b60405161035f9190612a6d565b60405180910390f35b610382600480360381019061037d9190612fb5565b610b5f565b60405161038f9190612e7a565b60405180910390f35b6103b260048036038101906103ad91906129ff565b610c19565b6040516103bf9190613252565b60405180910390f35b6103e260048036038101906103dd9190612f75565b610fd5565b6040516103ef91906128fc565b60405180910390f35b610400611040565b60405161040d91906129a7565b60405180910390f35b61041e6110d2565b60405161042b9190612f5a565b60405180910390f35b61044e600480360381019061044991906132a0565b6110d9565b005b61046a60048036038101906104659190613381565b6110ef565b005b610486600480360381019061048191906129ff565b61110c565b60405161049391906129a7565b60405180910390f35b6104b660048036038101906104b19190612f75565b611175565b005b6104d260048036038101906104cd9190613404565b611197565b6040516104df91906128fc565b60405180910390f35b61050260048036038101906104fd9190613444565b61122b565b60405161050f9190612e7a565b60405180910390f35b60006105238261125c565b9050919050565b606060008054610539906134b3565b80601f0160208091040260200160405190810160405280929190818152602001828054610565906134b3565b80156105b25780601f10610587576101008083540402835291602001916105b2565b820191906000526020600020905b81548152906001019060200180831161059557829003601f168201915b5050505050905090565b60006105c7826112d6565b506105d18261135e565b9050919050565b6105ea82826105e561139b565b6113a3565b5050565b6000600b600081548092919061060390613513565b919050559050600a600081548092919061061c90613513565b919050555083600860008381526020019081526020016000208190555060096000858152602001908152602001600020819080600181540180825580915050600190039060005260206000200160009091909190915055600061067e856113b5565b905060405180606001604052808281526020016040518060400160405280876000600281106106b0576106af61355b565b5b60200201518152602001876001600281106106ce576106cd61355b565b5b602002015181525081526020016040518060600160405280866000600381106106fa576106f961355b565b5b60200201518152602001866001600381106107185761071761355b565b5b60200201518152602001866002600381106107365761073561355b565b5b6020020151815250815250600760008481526020019081526020016000206000820151816000019080519060200190610770929190612684565b50602082015181600101600082015181600001908161078f9190613736565b5060208201518160010190816107a59190613736565b50505060408201518160030160008201518160000190816107c69190613736565b5060208201518160010190816107dc9190613736565b5060408201518160020190816107f29190613736565b5050509050506108028683611534565b7f753707b031a04d6c3ea71ee7cef4c9d821bdcdd6aae0918d2bb6f38b040d672d82878784888860405161083b969594939291906139cf565b60405180910390a1505050505050565b600a5481565b600073ffffffffffffffffffffffffffffffffffffffff168373ffffffffffffffffffffffffffffffffffffffff1614806108b85750600073ffffffffffffffffffffffffffffffffffffffff168273ffffffffffffffffffffffffffffffffffffffff16145b6108f7576040517f08c379a00000000000000000000000000000000000000000000000000000000081526004016108ee90613a91565b60405180910390fd5b610902838383611552565b505050565b600060066000838152602001908152602001600020600101549050919050565b61093082610907565b61093981611654565b6109438383611668565b50505050565b61095161139b565b73ffffffffffffffffffffffffffffffffffffffff168173ffffffffffffffffffffffffffffffffffffffff16146109b5576040517f6697b23200000000000000000000000000000000000000000000000000000000815260040160405180910390fd5b6109bf828261175a565b505050565b6109df838383604051806020016040528060008152506110ef565b505050565b6000801b6109f181611654565b60006109fc83610b4d565b905060096000600860008681526020019081526020016000205481526020019081526020016000206000610a30919061273a565b60086000848152602001908152602001600020600090556007600084815260200190815260200160002060008082016000610a6b919061275b565b6001820160008082016000610a809190612783565b600182016000610a909190612783565b50506003820160008082016000610aa79190612783565b600182016000610ab79190612783565b600282016000610ac79190612783565b50505050610ad48361184d565b600a6000815480929190610ae790613ab1565b9190505550828173ffffffffffffffffffffffffffffffffffffffff167f696de425f79f4a40bc6d2122ca50507f0efbeabbff86a84871b7196ab8ea8df760405160405180910390a3505050565b60086020528060005260406000206000915090505481565b6000610b58826112d6565b9050919050565b60008073ffffffffffffffffffffffffffffffffffffffff168273ffffffffffffffffffffffffffffffffffffffff1603610bd25760006040517f89c62b64000000000000000000000000000000000000000000000000000000008152600401610bc99190612a6d565b60405180910390fd5b600360008373ffffffffffffffffffffffffffffffffffffffff1673ffffffffffffffffffffffffffffffffffffffff168152602001908152602001600020549050919050565b610c216127c3565b6007600083815260200190815260200160002060405180606001604052908160008201805480602002602001604051908101604052809291908181526020018280548015610cc357602002820191906000526020600020906000905b82829054906101000a900460ff166006811115610c9d57610c9c61300e565b5b81526020019060010190602082600001049283019260010382029150808411610c7d5790505b5050505050815260200160018201604051806040016040529081600082018054610cec906134b3565b80601f0160208091040260200160405190810160405280929190818152602001828054610d18906134b3565b8015610d655780601f10610d3a57610100808354040283529160200191610d65565b820191906000526020600020905b815481529060010190602001808311610d4857829003601f168201915b50505050508152602001600182018054610d7e906134b3565b80601f0160208091040260200160405190810160405280929190818152602001828054610daa906134b3565b8015610df75780601f10610dcc57610100808354040283529160200191610df7565b820191906000526020600020905b815481529060010190602001808311610dda57829003601f168201915b505050505081525050815260200160038201604051806060016040529081600082018054610e24906134b3565b80601f0160208091040260200160405190810160405280929190818152602001828054610e50906134b3565b8015610e9d5780601f10610e7257610100808354040283529160200191610e9d565b820191906000526020600020905b815481529060010190602001808311610e8057829003601f168201915b50505050508152602001600182018054610eb6906134b3565b80601f0160208091040260200160405190810160405280929190818152602001828054610ee2906134b3565b8015610f2f5780601f10610f0457610100808354040283529160200191610f2f565b820191906000526020600020905b815481529060010190602001808311610f1257829003601f168201915b50505050508152602001600282018054610f48906134b3565b80601f0160208091040260200160405190810160405280929190818152602001828054610f74906134b3565b8015610fc15780601f10610f9657610100808354040283529160200191610fc1565b820191906000526020600020905b815481529060010190602001808311610fa457829003601f168201915b505050505081525050815250509050919050565b60006006600084815260200190815260200160002060000160008373ffffffffffffffffffffffffffffffffffffffff1673ffffffffffffffffffffffffffffffffffffffff16815260200190815260200160002060009054906101000a900460ff16905092915050565b60606001805461104f906134b3565b80601f016020809104026020016040519081016040528092919081815260200182805461107b906134b3565b80156110c85780601f1061109d576101008083540402835291602001916110c8565b820191906000526020600020905b8154815290600101906020018083116110ab57829003601f168201915b5050505050905090565b6000801b81565b6110eb6110e461139b565b83836118d3565b5050565b6110fa848484610851565b61110684848484611a42565b50505050565b6060611117826112d6565b506000611122611bf9565b90506000815111611142576040518060200160405280600081525061116d565b8061114c84611c10565b60405160200161115d929190613b16565b6040516020818303038152906040525b915050919050565b61117e82610907565b61118781611654565b611191838361175a565b50505050565b6000600560008473ffffffffffffffffffffffffffffffffffffffff1673ffffffffffffffffffffffffffffffffffffffff16815260200190815260200160002060008373ffffffffffffffffffffffffffffffffffffffff1673ffffffffffffffffffffffffffffffffffffffff16815260200190815260200160002060009054906101000a900460ff16905092915050565b6009602052816000526040600020818154811061124757600080fd5b90600052602060002001600091509150505481565b60007f7965db0b000000000000000000000000000000000000000000000000000000007bffffffffffffffffffffffffffffffffffffffffffffffffffffffff1916827bffffffffffffffffffffffffffffffffffffffffffffffffffffffff191614806112cf57506112ce82611cde565b5b9050919050565b6000806112e283611dc0565b9050600073ffffffffffffffffffffffffffffffffffffffff168173ffffffffffffffffffffffffffffffffffffffff160361135557826040517f7e27328900000000000000000000000000000000000000000000000000000000815260040161134c9190612e7a565b60405180910390fd5b80915050919050565b60006004600083815260200190815260200160002060009054906101000a900473ffffffffffffffffffffffffffffffffffffffff169050919050565b600033905090565b6113b08383836001611dfd565b505050565b60606000826040516024016113ca9190612e7a565b6040516020818303038152906040527fb6185412000000000000000000000000000000000000000000000000000000007bffffffffffffffffffffffffffffffffffffffffffffffffffffffff19166020820180517bffffffffffffffffffffffffffffffffffffffffffffffffffffffff838183161783525050505090506000807f000000000000000000000000000000000000000000000000000000000000000073ffffffffffffffffffffffffffffffffffffffff16836040516114919190613b81565b600060405180830381855afa9150503d80600081146114cc576040519150601f19603f3d011682016040523d82523d6000602084013e6114d1565b606091505b509150915081611516576040517f08c379a000000000000000000000000000000000000000000000000000000000815260040161150d90613be4565b60405180910390fd5b8080602001905181019061152a9190613cec565b9350505050919050565b61154e828260405180602001604052806000815250611fc2565b5050565b600073ffffffffffffffffffffffffffffffffffffffff168273ffffffffffffffffffffffffffffffffffffffff16036115c45760006040517f64a0ae920000000000000000000000000000000000000000000000000000000081526004016115bb9190612a6d565b60405180910390fd5b60006115d883836115d361139b565b611fde565b90508373ffffffffffffffffffffffffffffffffffffffff168173ffffffffffffffffffffffffffffffffffffffff161461164e578382826040517f64283d7b00000000000000000000000000000000000000000000000000000000815260040161164593929190613d35565b60405180910390fd5b50505050565b6116658161166061139b565b6121f8565b50565b60006116748383610fd5565b61174f5760016006600085815260200190815260200160002060000160008473ffffffffffffffffffffffffffffffffffffffff1673ffffffffffffffffffffffffffffffffffffffff16815260200190815260200160002060006101000a81548160ff0219169083151502179055506116ec61139b565b73ffffffffffffffffffffffffffffffffffffffff168273ffffffffffffffffffffffffffffffffffffffff16847f2f8788117e7eff1d82e926ec794901d17c78024a50270940304540a733656f0d60405160405180910390a460019050611754565b600090505b92915050565b60006117668383610fd5565b156118425760006006600085815260200190815260200160002060000160008473ffffffffffffffffffffffffffffffffffffffff1673ffffffffffffffffffffffffffffffffffffffff16815260200190815260200160002060006101000a81548160ff0219169083151502179055506117df61139b565b73ffffffffffffffffffffffffffffffffffffffff168273ffffffffffffffffffffffffffffffffffffffff16847ff6391f5c32d9c69d2a47ea670b442974b53935d1edc7fd64eb21e047a839171b60405160405180910390a460019050611847565b600090505b92915050565b600061185c6000836000611fde565b9050600073ffffffffffffffffffffffffffffffffffffffff168173ffffffffffffffffffffffffffffffffffffffff16036118cf57816040517f7e2732890000000000000000000000000000000000000000000000000000000081526004016118c69190612e7a565b60405180910390fd5b5050565b600073ffffffffffffffffffffffffffffffffffffffff168273ffffffffffffffffffffffffffffffffffffffff160361194457816040517f5b08ba1800000000000000000000000000000000000000000000000000000000815260040161193b9190612a6d565b60405180910390fd5b80600560008573ffffffffffffffffffffffffffffffffffffffff1673ffffffffffffffffffffffffffffffffffffffff16815260200190815260200160002060008473ffffffffffffffffffffffffffffffffffffffff1673ffffffffffffffffffffffffffffffffffffffff16815260200190815260200160002060006101000a81548160ff0219169083151502179055508173ffffffffffffffffffffffffffffffffffffffff168373ffffffffffffffffffffffffffffffffffffffff167f17307eab39ab6107e8899845ad3d59bd9653f200f220920489ca2b5937696c3183604051611a3591906128fc565b60405180910390a3505050565b60008373ffffffffffffffffffffffffffffffffffffffff163b1115611bf3578273ffffffffffffffffffffffffffffffffffffffff1663150b7a02611a8661139b565b8685856040518563ffffffff1660e01b8152600401611aa89493929190613db6565b6020604051808303816000875af1925050508015611ae457506040513d601f19601f82011682018060405250810190611ae19190613e17565b60015b611b68573d8060008114611b14576040519150601f19603f3d011682016040523d82523d6000602084013e611b19565b606091505b506000815103611b6057836040517f64a0ae92000000000000000000000000000000000000000000000000000000008152600401611b579190612a6d565b60405180910390fd5b805181602001fd5b63150b7a0260e01b7bffffffffffffffffffffffffffffffffffffffffffffffffffffffff1916817bffffffffffffffffffffffffffffffffffffffffffffffffffffffff191614611bf157836040517f64a0ae92000000000000000000000000000000000000000000000000000000008152600401611be89190612a6d565b60405180910390fd5b505b50505050565b606060405180602001604052806000815250905090565b606060006001611c1f84612249565b01905060008167ffffffffffffffff811115611c3e57611c3d612af9565b5b6040519080825280601f01601f191660200182016040528015611c705781602001600182028036833780820191505090505b509050600082602001820190505b600115611cd3578080600190039150507f3031323334353637383961626364656600000000000000000000000000000000600a86061a8153600a8581611cc757611cc6613e44565b5b04945060008503611c7e575b819350505050919050565b60007f80ac58cd000000000000000000000000000000000000000000000000000000007bffffffffffffffffffffffffffffffffffffffffffffffffffffffff1916827bffffffffffffffffffffffffffffffffffffffffffffffffffffffff19161480611da957507f5b5e139f000000000000000000000000000000000000000000000000000000007bffffffffffffffffffffffffffffffffffffffffffffffffffffffff1916827bffffffffffffffffffffffffffffffffffffffffffffffffffffffff1916145b80611db95750611db88261239c565b5b9050919050565b60006002600083815260200190815260200160002060009054906101000a900473ffffffffffffffffffffffffffffffffffffffff169050919050565b8080611e365750600073ffffffffffffffffffffffffffffffffffffffff168273ffffffffffffffffffffffffffffffffffffffff1614155b15611f6a576000611e46846112d6565b9050600073ffffffffffffffffffffffffffffffffffffffff168373ffffffffffffffffffffffffffffffffffffffff1614158015611eb157508273ffffffffffffffffffffffffffffffffffffffff168173ffffffffffffffffffffffffffffffffffffffff1614155b8015611ec45750611ec28184611197565b155b15611f0657826040517fa9fbf51f000000000000000000000000000000000000000000000000000000008152600401611efd9190612a6d565b60405180910390fd5b8115611f6857838573ffffffffffffffffffffffffffffffffffffffff168273ffffffffffffffffffffffffffffffffffffffff167f8c5be1e5ebec7d5bd14f71427d1e84f3dd0314c0f7b2291e5b200ac8c7c3b92560405160405180910390a45b505b836004600085815260200190815260200160002060006101000a81548173ffffffffffffffffffffffffffffffffffffffff021916908373ffffffffffffffffffffffffffffffffffffffff16021790555050505050565b611fcc8383612406565b611fd96000848484611a42565b505050565b600080611fea84611dc0565b9050600073ffffffffffffffffffffffffffffffffffffffff168373ffffffffffffffffffffffffffffffffffffffff161461202c5761202b8184866124ff565b5b600073ffffffffffffffffffffffffffffffffffffffff168173ffffffffffffffffffffffffffffffffffffffff16146120bd5761206e600085600080611dfd565b6001600360008373ffffffffffffffffffffffffffffffffffffffff1673ffffffffffffffffffffffffffffffffffffffff168152602001908152602001600020600082825403925050819055505b600073ffffffffffffffffffffffffffffffffffffffff168573ffffffffffffffffffffffffffffffffffffffff1614612140576001600360008773ffffffffffffffffffffffffffffffffffffffff1673ffffffffffffffffffffffffffffffffffffffff168152602001908152602001600020600082825401925050819055505b846002600086815260200190815260200160002060006101000a81548173ffffffffffffffffffffffffffffffffffffffff021916908373ffffffffffffffffffffffffffffffffffffffff160217905550838573ffffffffffffffffffffffffffffffffffffffff168273ffffffffffffffffffffffffffffffffffffffff167fddf252ad1be2c89b69c2b068fc378daa952ba7f163c4a11628f55a4df523b3ef60405160405180910390a4809150509392505050565b6122028282610fd5565b6122455780826040517fe2517d3f00000000000000000000000000000000000000000000000000000000815260040161223c929190613e73565b60405180910390fd5b5050565b600080600090507a184f03e93ff9f4daa797ed6e38ed64bf6a1f01000000000000000083106122a7577a184f03e93ff9f4daa797ed6e38ed64bf6a1f010000000000000000838161229d5761229c613e44565b5b0492506040810190505b6d04ee2d6d415b85acef810000000083106122e4576d04ee2d6d415b85acef810000000083816122da576122d9613e44565b5b0492506020810190505b662386f26fc10000831061231357662386f26fc10000838161230957612308613e44565b5b0492506010810190505b6305f5e100831061233c576305f5e100838161233257612331613e44565b5b0492506008810190505b612710831061236157612710838161235757612356613e44565b5b0492506004810190505b60648310612384576064838161237a57612379613e44565b5b0492506002810190505b600a8310612393576001810190505b80915050919050565b60007f01ffc9a7000000000000000000000000000000000000000000000000000000007bffffffffffffffffffffffffffffffffffffffffffffffffffffffff1916827bffffffffffffffffffffffffffffffffffffffffffffffffffffffff1916149050919050565b600073ffffffffffffffffffffffffffffffffffffffff168273ffffffffffffffffffffffffffffffffffffffff16036124785760006040517f64a0ae9200000000000000000000000000000000000000000000000000000000815260040161246f9190612a6d565b60405180910390fd5b600061248683836000611fde565b9050600073ffffffffffffffffffffffffffffffffffffffff168173ffffffffffffffffffffffffffffffffffffffff16146124fa5760006040517f73c6ac6e0000000000000000000000000000000000000000000000000000000081526004016124f19190612a6d565b60405180910390fd5b505050565b61250a8383836125c3565b6125be57600073ffffffffffffffffffffffffffffffffffffffff168373ffffffffffffffffffffffffffffffffffffffff160361257f57806040517f7e2732890000000000000000000000000000000000000000000000000000000081526004016125769190612e7a565b60405180910390fd5b81816040517f177e802f0000000000000000000000000000000000000000000000000000000081526004016125b5929190613e9c565b60405180910390fd5b505050565b60008073ffffffffffffffffffffffffffffffffffffffff168373ffffffffffffffffffffffffffffffffffffffff161415801561267b57508273ffffffffffffffffffffffffffffffffffffffff168473ffffffffffffffffffffffffffffffffffffffff16148061263c575061263b8484611197565b5b8061267a57508273ffffffffffffffffffffffffffffffffffffffff166126628361135e565b73ffffffffffffffffffffffffffffffffffffffff16145b5b90509392505050565b82805482825590600052602060002090601f016020900481019282156127295791602002820160005b838211156126fa57835183826101000a81548160ff021916908360068111156126d9576126d861300e565b5b021790555092602001926001016020816000010492830192600103026126ad565b80156127275782816101000a81549060ff02191690556001016020816000010492830192600103026126fa565b505b50905061273691906127f0565b5090565b508054600082559060005260206000209081019061275891906127f0565b50565b50805460008255601f01602090049060005260206000209081019061278091906127f0565b50565b50805461278f906134b3565b6000825580601f106127a157506127c0565b601f0160209004906000526020600020908101906127bf91906127f0565b5b50565b6040518060600160405280606081526020016127dd61280d565b81526020016127ea612827565b81525090565b5b808211156128095760008160009055506001016127f1565b5090565b604051806040016040528060608152602001606081525090565b60405180606001604052806060815260200160608152602001606081525090565b6000604051905090565b600080fd5b600080fd5b60007fffffffff0000000000000000000000000000000000000000000000000000000082169050919050565b6128918161285c565b811461289c57600080fd5b50565b6000813590506128ae81612888565b92915050565b6000602082840312156128ca576128c9612852565b5b60006128d88482850161289f565b91505092915050565b60008115159050919050565b6128f6816128e1565b82525050565b600060208201905061291160008301846128ed565b92915050565b600081519050919050565b600082825260208201905092915050565b60005b83811015612951578082015181840152602081019050612936565b60008484015250505050565b6000601f19601f8301169050919050565b600061297982612917565b6129838185612922565b9350612993818560208601612933565b61299c8161295d565b840191505092915050565b600060208201905081810360008301526129c1818461296e565b905092915050565b6000819050919050565b6129dc816129c9565b81146129e757600080fd5b50565b6000813590506129f9816129d3565b92915050565b600060208284031215612a1557612a14612852565b5b6000612a23848285016129ea565b91505092915050565b600073ffffffffffffffffffffffffffffffffffffffff82169050919050565b6000612a5782612a2c565b9050919050565b612a6781612a4c565b82525050565b6000602082019050612a826000830184612a5e565b92915050565b612a9181612a4c565b8114612a9c57600080fd5b50565b600081359050612aae81612a88565b92915050565b60008060408385031215612acb57612aca612852565b5b6000612ad985828601612a9f565b9250506020612aea858286016129ea565b9150509250929050565b600080fd5b7f4e487b7100000000000000000000000000000000000000000000000000000000600052604160045260246000fd5b612b318261295d565b810181811067ffffffffffffffff82111715612b5057612b4f612af9565b5b80604052505050565b6000612b63612848565b9050612b6f8282612b28565b919050565b600067ffffffffffffffff821115612b8f57612b8e612af9565b5b602082029050919050565b600080fd5b600080fd5b600067ffffffffffffffff821115612bbf57612bbe612af9565b5b612bc88261295d565b9050602081019050919050565b82818337600083830152505050565b6000612bf7612bf284612ba4565b612b59565b905082815260208101848484011115612c1357612c12612b9f565b5b612c1e848285612bd5565b509392505050565b600082601f830112612c3b57612c3a612af4565b5b8135612c4b848260208601612be4565b91505092915050565b6000612c67612c6284612b74565b612b59565b90508060208402830185811115612c8157612c80612b9a565b5b835b81811015612cc857803567ffffffffffffffff811115612ca657612ca5612af4565b5b808601612cb38982612c26565b85526020850194505050602081019050612c83565b5050509392505050565b600082601f830112612ce757612ce6612af4565b5b6002612cf4848285612c54565b91505092915050565b600067ffffffffffffffff821115612d1857612d17612af9565b5b602082029050919050565b6000612d36612d3184612cfd565b612b59565b90508060208402830185811115612d5057612d4f612b9a565b5b835b81811015612d9757803567ffffffffffffffff811115612d7557612d74612af4565b5b808601612d828982612c26565b85526020850194505050602081019050612d52565b5050509392505050565b600082601f830112612db657612db5612af4565b5b6003612dc3848285612d23565b91505092915050565b60008060008060808587031215612de657612de5612852565b5b6000612df487828801612a9f565b9450506020612e05878288016129ea565b935050604085013567ffffffffffffffff811115612e2657612e25612857565b5b612e3287828801612cd2565b925050606085013567ffffffffffffffff811115612e5357612e52612857565b5b612e5f87828801612da1565b91505092959194509250565b612e74816129c9565b82525050565b6000602082019050612e8f6000830184612e6b565b92915050565b600080600060608486031215612eae57612ead612852565b5b6000612ebc86828701612a9f565b9350506020612ecd86828701612a9f565b9250506040612ede868287016129ea565b9150509250925092565b6000819050919050565b612efb81612ee8565b8114612f0657600080fd5b50565b600081359050612f1881612ef2565b92915050565b600060208284031215612f3457612f33612852565b5b6000612f4284828501612f09565b91505092915050565b612f5481612ee8565b82525050565b6000602082019050612f6f6000830184612f4b565b92915050565b60008060408385031215612f8c57612f8b612852565b5b6000612f9a85828601612f09565b9250506020612fab85828601612a9f565b9150509250929050565b600060208284031215612fcb57612fca612852565b5b6000612fd984828501612a9f565b91505092915050565b600081519050919050565b600082825260208201905092915050565b6000819050602082019050919050565b7f4e487b7100000000000000000000000000000000000000000000000000000000600052602160045260246000fd5b6007811061304e5761304d61300e565b5b50565b600081905061305f8261303d565b919050565b600061306f82613051565b9050919050565b61307f81613064565b82525050565b60006130918383613076565b60208301905092915050565b6000602082019050919050565b60006130b582612fe2565b6130bf8185612fed565b93506130ca83612ffe565b8060005b838110156130fb5781516130e28882613085565b97506130ed8361309d565b9250506001810190506130ce565b5085935050505092915050565b600082825260208201905092915050565b600061312482612917565b61312e8185613108565b935061313e818560208601612933565b6131478161295d565b840191505092915050565b6000604083016000830151848203600086015261316f8282613119565b915050602083015184820360208601526131898282613119565b9150508091505092915050565b600060608301600083015184820360008601526131b38282613119565b915050602083015184820360208601526131cd8282613119565b915050604083015184820360408601526131e78282613119565b9150508091505092915050565b6000606083016000830151848203600086015261321182826130aa565b9150506020830151848203602086015261322b8282613152565b915050604083015184820360408601526132458282613196565b9150508091505092915050565b6000602082019050818103600083015261326c81846131f4565b905092915050565b61327d816128e1565b811461328857600080fd5b50565b60008135905061329a81613274565b92915050565b600080604083850312156132b7576132b6612852565b5b60006132c585828601612a9f565b92505060206132d68582860161328b565b9150509250929050565b600067ffffffffffffffff8211156132fb576132fa612af9565b5b6133048261295d565b9050602081019050919050565b600061332461331f846132e0565b612b59565b9050828152602081018484840111156133405761333f612b9f565b5b61334b848285612bd5565b509392505050565b600082601f83011261336857613367612af4565b5b8135613378848260208601613311565b91505092915050565b6000806000806080858703121561339b5761339a612852565b5b60006133a987828801612a9f565b94505060206133ba87828801612a9f565b93505060406133cb878288016129ea565b925050606085013567ffffffffffffffff8111156133ec576133eb612857565b5b6133f887828801613353565b91505092959194509250565b6000806040838503121561341b5761341a612852565b5b600061342985828601612a9f565b925050602061343a85828601612a9f565b9150509250929050565b6000806040838503121561345b5761345a612852565b5b6000613469858286016129ea565b925050602061347a858286016129ea565b9150509250929050565b7f4e487b7100000000000000000000000000000000000000000000000000000000600052602260045260246000fd5b600060028204905060018216806134cb57607f821691505b6020821081036134de576134dd613484565b5b50919050565b7f4e487b7100000000000000000000000000000000000000000000000000000000600052601160045260246000fd5b600061351e826129c9565b91507fffffffffffffffffffffffffffffffffffffffffffffffffffffffffffffffff82036135505761354f6134e4565b5b600182019050919050565b7f4e487b7100000000000000000000000000000000000000000000000000000000600052603260045260246000fd5b60008190508160005260206000209050919050565b60006020601f8301049050919050565b600082821b905092915050565b6000600883026135ec7fffffffffffffffffffffffffffffffffffffffffffffffffffffffffffffffff826135af565b6135f686836135af565b95508019841693508086168417925050509392505050565b6000819050919050565b600061363361362e613629846129c9565b61360e565b6129c9565b9050919050565b6000819050919050565b61364d83613618565b6136616136598261363a565b8484546135bc565b825550505050565b600090565b613676613669565b613681818484613644565b505050565b5b818110156136a55761369a60008261366e565b600181019050613687565b5050565b601f8211156136ea576136bb8161358a565b6136c48461359f565b810160208510156136d3578190505b6136e76136df8561359f565b830182613686565b50505b505050565b600082821c905092915050565b600061370d600019846008026136ef565b1980831691505092915050565b600061372683836136fc565b9150826002028217905092915050565b61373f82612917565b67ffffffffffffffff81111561375857613757612af9565b5b61376282546134b3565b61376d8282856136a9565b600060209050601f8311600181146137a0576000841561378e578287015190505b613798858261371a565b865550613800565b601f1984166137ae8661358a565b60005b828110156137d6578489015182556001820191506020850194506020810190506137b1565b868310156137f357848901516137ef601f8916826136fc565b8355505b6001600288020188555050505b505050505050565b600082825260208201905092915050565b600061382482612fe2565b61382e8185613808565b935061383983612ffe565b8060005b8381101561386a5781516138518882613085565b975061385c8361309d565b92505060018101905061383d565b5085935050505092915050565b600060029050919050565b600081905092915050565b6000819050919050565b60006138a38383613119565b905092915050565b6000602082019050919050565b60006138c382613877565b6138cd8185613882565b9350836020820285016138df8561388d565b8060005b8581101561391b57848403895281516138fc8582613897565b9450613907836138ab565b925060208a019950506001810190506138e3565b50829750879550505050505092915050565b600060039050919050565b600081905092915050565b6000819050919050565b6000602082019050919050565b60006139658261392d565b61396f8185613938565b93508360208202850161398185613943565b8060005b858110156139bd578484038952815161399e8582613897565b94506139a98361394d565b925060208a01995050600181019050613985565b50829750879550505050505092915050565b600060c0820190506139e46000830189612e6b565b6139f16020830188612a5e565b6139fe6040830187612e6b565b8181036060830152613a108186613819565b90508181036080830152613a2481856138b8565b905081810360a0830152613a38818461395a565b9050979650505050505050565b7f546f6b656e206e6f74207472616e7366657261626c6500000000000000000000600082015250565b6000613a7b601683612922565b9150613a8682613a45565b602082019050919050565b60006020820190508181036000830152613aaa81613a6e565b9050919050565b6000613abc826129c9565b915060008203613acf57613ace6134e4565b5b600182039050919050565b600081905092915050565b6000613af082612917565b613afa8185613ada565b9350613b0a818560208601612933565b80840191505092915050565b6000613b228285613ae5565b9150613b2e8284613ae5565b91508190509392505050565b600081519050919050565b600081905092915050565b6000613b5b82613b3a565b613b658185613b45565b9350613b75818560208601612933565b80840191505092915050565b6000613b8d8284613b50565b915081905092915050565b7f63616c6c20676574546f6b656e496e666f206661696c65640000000000000000600082015250565b6000613bce601883612922565b9150613bd982613b98565b602082019050919050565b60006020820190508181036000830152613bfd81613bc1565b9050919050565b600067ffffffffffffffff821115613c1f57613c1e612af9565b5b602082029050602081019050919050565b60078110613c3d57600080fd5b50565b600081519050613c4f81613c30565b92915050565b6000613c68613c6384613c04565b612b59565b90508083825260208201905060208402830185811115613c8b57613c8a612b9a565b5b835b81811015613cb45780613ca08882613c40565b845260208401935050602081019050613c8d565b5050509392505050565b600082601f830112613cd357613cd2612af4565b5b8151613ce3848260208601613c55565b91505092915050565b600060208284031215613d0257613d01612852565b5b600082015167ffffffffffffffff811115613d2057613d1f612857565b5b613d2c84828501613cbe565b91505092915050565b6000606082019050613d4a6000830186612a5e565b613d576020830185612e6b565b613d646040830184612a5e565b949350505050565b600082825260208201905092915050565b6000613d8882613b3a565b613d928185613d6c565b9350613da2818560208601612933565b613dab8161295d565b840191505092915050565b6000608082019050613dcb6000830187612a5e565b613dd86020830186612a5e565b613de56040830185612e6b565b8181036060830152613df78184613d7d565b905095945050505050565b600081519050613e1181612888565b92915050565b600060208284031215613e2d57613e2c612852565b5b6000613e3b84828501613e02565b91505092915050565b7f4e487b7100000000000000000000000000000000000000000000000000000000600052601260045260246000fd5b6000604082019050613e886000830185612a5e565b613e956020830184612f4b565b9392505050565b6000604082019050613eb16000830185612a5e565b613ebe6020830184612e6b565b939250505056fea26469706673582212201b0dce81e1b975eb39ef0fec07ac772b7a5b711f645d71d18c99e9674addc59b64736f6c63430008140033",
    "linkReferences": {},
    "deployedLinkReferences": {}
}