{
    "_format": "hh-sol-artifact-1",
    "contractName": "CopyrightNFT",
    "sourceName": "contracts/CopyrightNFT.sol",
    "abi": [
        {
            "inputs": [
                {
                    "internalType": "address",
                    "name": "initialOwner",
                    "type": "address"
                },
                {
                    "internalType": "address",
                    "name": "_srcNftAddress",
                    "type": "address"
                }
            ],
            "stateMutability": "nonpayable",
            "type": "constructor"
        },
        {
            "inputs": [],
            "name": "AccessControlBadConfirmation",
            "type": "error"
        },
        {
            "inputs": [
                {
                    "internalType": "address",
                    "name": "account",
                    "type": "address"
                },
                {
                    "internalType": "bytes32",
                    "name": "neededRole",
                    "type": "bytes32"
                }
            ],
            "name": "AccessControlUnauthorizedAccount",
            "type": "error"
        },
        {
            "inputs": [
                {
                    "internalType": "address",
                    "name": "sender",
                    "type": "address"
                },
                {
                    "internalType": "uint256",
                    "name": "tokenId",
                    "type": "uint256"
                },
                {
                    "internalType": "address",
                    "name": "owner",
                    "type": "address"
                }
            ],
            "name": "ERC721IncorrectOwner",
            "type": "error"
        },
        {
            "inputs": [
                {
                    "internalType": "address",
                    "name": "operator",
                    "type": "address"
                },
                {
                    "internalType": "uint256",
                    "name": "tokenId",
                    "type": "uint256"
                }
            ],
            "name": "ERC721InsufficientApproval",
            "type": "error"
        },
        {
            "inputs": [
                {
                    "internalType": "address",
                    "name": "approver",
                    "type": "address"
                }
            ],
            "name": "ERC721InvalidApprover",
            "type": "error"
        },
        {
            "inputs": [
                {
                    "internalType": "address",
                    "name": "operator",
                    "type": "address"
                }
            ],
            "name": "ERC721InvalidOperator",
            "type": "error"
        },
        {
            "inputs": [
                {
                    "internalType": "address",
                    "name": "owner",
                    "type": "address"
                }
            ],
            "name": "ERC721InvalidOwner",
            "type": "error"
        },
        {
            "inputs": [
                {
                    "internalType": "address",
                    "name": "receiver",
                    "type": "address"
                }
            ],
            "name": "ERC721InvalidReceiver",
            "type": "error"
        },
        {
            "inputs": [
                {
                    "internalType": "address",
                    "name": "sender",
                    "type": "address"
                }
            ],
            "name": "ERC721InvalidSender",
            "type": "error"
        },
        {
            "inputs": [
                {
                    "internalType": "uint256",
                    "name": "tokenId",
                    "type": "uint256"
                }
            ],
            "name": "ERC721NonexistentToken",
            "type": "error"
        },
        {
            "anonymous": false,
            "inputs": [
                {
                    "indexed": true,
                    "internalType": "address",
                    "name": "owner",
                    "type": "address"
                },
                {
                    "indexed": true,
                    "internalType": "address",
                    "name": "approved",
                    "type": "address"
                },
                {
                    "indexed": true,
                    "internalType": "uint256",
                    "name": "tokenId",
                    "type": "uint256"
                }
            ],
            "name": "Approval",
            "type": "event"
        },
        {
            "anonymous": false,
            "inputs": [
                {
                    "indexed": true,
                    "internalType": "address",
                    "name": "owner",
                    "type": "address"
                },
                {
                    "indexed": true,
                    "internalType": "address",
                    "name": "operator",
                    "type": "address"
                },
                {
                    "indexed": false,
                    "internalType": "bool",
                    "name": "approved",
                    "type": "bool"
                }
            ],
            "name": "ApprovalForAll",
            "type": "event"
        },
        {
            "anonymous": false,
            "inputs": [
                {
                    "indexed": true,
                    "internalType": "address",
                    "name": "owner",
                    "type": "address"
                },
                {
                    "indexed": true,
                    "internalType": "uint256",
                    "name": "tokenId",
                    "type": "uint256"
                }
            ],
            "name": "Burned",
            "type": "event"
        },
        {
            "anonymous": false,
            "inputs": [
                {
                    "indexed": false,
                    "internalType": "uint256",
                    "name": "tokenId",
                    "type": "uint256"
                },
                {
                    "indexed": false,
                    "internalType": "address",
                    "name": "to",
                    "type": "address"
                },
                {
                    "indexed": false,
                    "internalType": "uint256",
                    "name": "srcTokenId",
                    "type": "uint256"
                },
                {
                    "indexed": false,
                    "internalType": "string[]",
                    "name": "ownerNames",
                    "type": "string[]"
                },
                {
                    "indexed": false,
                    "internalType": "string[]",
                    "name": "ownerIds",
                    "type": "string[]"
                },
                {
                    "indexed": false,
                    "internalType": "uint256[]",
                    "name": "ownerStakes",
                    "type": "uint256[]"
                },
                {
                    "indexed": false,
                    "internalType": "enum CopyrightNFT.CopyrightType[]",
                    "name": "copyrightTypes",
                    "type": "uint8[]"
                }
            ],
            "name": "Minted",
            "type": "event"
        },
        {
            "anonymous": false,
            "inputs": [
                {
                    "indexed": true,
                    "internalType": "bytes32",
                    "name": "role",
                    "type": "bytes32"
                },
                {
                    "indexed": true,
                    "internalType": "bytes32",
                    "name": "previousAdminRole",
                    "type": "bytes32"
                },
                {
                    "indexed": true,
                    "internalType": "bytes32",
                    "name": "newAdminRole",
                    "type": "bytes32"
                }
            ],
            "name": "RoleAdminChanged",
            "type": "event"
        },
        {
            "anonymous": false,
            "inputs": [
                {
                    "indexed": true,
                    "internalType": "bytes32",
                    "name": "role",
                    "type": "bytes32"
                },
                {
                    "indexed": true,
                    "internalType": "address",
                    "name": "account",
                    "type": "address"
                },
                {
                    "indexed": true,
                    "internalType": "address",
                    "name": "sender",
                    "type": "address"
                }
            ],
            "name": "RoleGranted",
            "type": "event"
        },
        {
            "anonymous": false,
            "inputs": [
                {
                    "indexed": true,
                    "internalType": "bytes32",
                    "name": "role",
                    "type": "bytes32"
                },
                {
                    "indexed": true,
                    "internalType": "address",
                    "name": "account",
                    "type": "address"
                },
                {
                    "indexed": true,
                    "internalType": "address",
                    "name": "sender",
                    "type": "address"
                }
            ],
            "name": "RoleRevoked",
            "type": "event"
        },
        {
            "anonymous": false,
            "inputs": [
                {
                    "indexed": true,
                    "internalType": "address",
                    "name": "from",
                    "type": "address"
                },
                {
                    "indexed": true,
                    "internalType": "address",
                    "name": "to",
                    "type": "address"
                },
                {
                    "indexed": true,
                    "internalType": "uint256",
                    "name": "tokenId",
                    "type": "uint256"
                }
            ],
            "name": "Transfer",
            "type": "event"
        },
        {
            "inputs": [],
            "name": "DEFAULT_ADMIN_ROLE",
            "outputs": [
                {
                    "internalType": "bytes32",
                    "name": "",
                    "type": "bytes32"
                }
            ],
            "stateMutability": "view",
            "type": "function"
        },
        {
            "inputs": [
                {
                    "internalType": "address",
                    "name": "to",
                    "type": "address"
                },
                {
                    "internalType": "uint256",
                    "name": "tokenId",
                    "type": "uint256"
                }
            ],
            "name": "approve",
            "outputs": [],
            "stateMutability": "nonpayable",
            "type": "function"
        },
        {
            "inputs": [
                {
                    "internalType": "address",
                    "name": "owner",
                    "type": "address"
                }
            ],
            "name": "balanceOf",
            "outputs": [
                {
                    "internalType": "uint256",
                    "name": "",
                    "type": "uint256"
                }
            ],
            "stateMutability": "view",
            "type": "function"
        },
        {
            "inputs": [
                {
                    "internalType": "uint256",
                    "name": "tokenId",
                    "type": "uint256"
                }
            ],
            "name": "burn",
            "outputs": [],
            "stateMutability": "nonpayable",
            "type": "function"
        },
        {
            "inputs": [
                {
                    "internalType": "uint256",
                    "name": "tokenId",
                    "type": "uint256"
                }
            ],
            "name": "getApproved",
            "outputs": [
                {
                    "internalType": "address",
                    "name": "",
                    "type": "address"
                }
            ],
            "stateMutability": "view",
            "type": "function"
        },
        {
            "inputs": [
                {
                    "internalType": "uint256",
                    "name": "_tokenId",
                    "type": "uint256"
                }
            ],
            "name": "getCopyrightTypes",
            "outputs": [
                {
                    "internalType": "enum CopyrightNFT.CopyrightType[]",
                    "name": "",
                    "type": "uint8[]"
                }
            ],
            "stateMutability": "view",
            "type": "function"
        },
        {
            "inputs": [
                {
                    "internalType": "bytes32",
                    "name": "role",
                    "type": "bytes32"
                }
            ],
            "name": "getRoleAdmin",
            "outputs": [
                {
                    "internalType": "bytes32",
                    "name": "",
                    "type": "bytes32"
                }
            ],
            "stateMutability": "view",
            "type": "function"
        },
        {
            "inputs": [
                {
                    "internalType": "uint256",
                    "name": "_tokenId",
                    "type": "uint256"
                }
            ],
            "name": "getTokenInfo",
            "outputs": [
                {
                    "components": [
                        {
                            "internalType": "enum CopyrightNFT.CopyrightType[]",
                            "name": "copyrightTypes",
                            "type": "uint8[]"
                        },
                        {
                            "components": [
                                {
                                    "internalType": "string[]",
                                    "name": "ownerNames",
                                    "type": "string[]"
                                },
                                {
                                    "internalType": "string[]",
                                    "name": "ownerIds",
                                    "type": "string[]"
                                },
                                {
                                    "internalType": "uint256[]",
                                    "name": "ownerStake",
                                    "type": "uint256[]"
                                }
                            ],
                            "internalType": "struct CopyrightNFT.CopyrightInfo",
                            "name": "copyrightInfo",
                            "type": "tuple"
                        }
                    ],
                    "internalType": "struct CopyrightNFT.TokenInfo",
                    "name": "",
                    "type": "tuple"
                }
            ],
            "stateMutability": "view",
            "type": "function"
        },
        {
            "inputs": [
                {
                    "internalType": "bytes32",
                    "name": "role",
                    "type": "bytes32"
                },
                {
                    "internalType": "address",
                    "name": "account",
                    "type": "address"
                }
            ],
            "name": "grantRole",
            "outputs": [],
            "stateMutability": "nonpayable",
            "type": "function"
        },
        {
            "inputs": [
                {
                    "internalType": "bytes32",
                    "name": "role",
                    "type": "bytes32"
                },
                {
                    "internalType": "address",
                    "name": "account",
                    "type": "address"
                }
            ],
            "name": "hasRole",
            "outputs": [
                {
                    "internalType": "bool",
                    "name": "",
                    "type": "bool"
                }
            ],
            "stateMutability": "view",
            "type": "function"
        },
        {
            "inputs": [
                {
                    "internalType": "address",
                    "name": "owner",
                    "type": "address"
                },
                {
                    "internalType": "address",
                    "name": "operator",
                    "type": "address"
                }
            ],
            "name": "isApprovedForAll",
            "outputs": [
                {
                    "internalType": "bool",
                    "name": "",
                    "type": "bool"
                }
            ],
            "stateMutability": "view",
            "type": "function"
        },
        {
            "inputs": [],
            "name": "name",
            "outputs": [
                {
                    "internalType": "string",
                    "name": "",
                    "type": "string"
                }
            ],
            "stateMutability": "view",
            "type": "function"
        },
        {
            "inputs": [
                {
                    "internalType": "uint256",
                    "name": "tokenId",
                    "type": "uint256"
                }
            ],
            "name": "ownerOf",
            "outputs": [
                {
                    "internalType": "address",
                    "name": "",
                    "type": "address"
                }
            ],
            "stateMutability": "view",
            "type": "function"
        },
        {
            "inputs": [
                {
                    "internalType": "bytes32",
                    "name": "role",
                    "type": "bytes32"
                },
                {
                    "internalType": "address",
                    "name": "callerConfirmation",
                    "type": "address"
                }
            ],
            "name": "renounceRole",
            "outputs": [],
            "stateMutability": "nonpayable",
            "type": "function"
        },
        {
            "inputs": [
                {
                    "internalType": "bytes32",
                    "name": "role",
                    "type": "bytes32"
                },
                {
                    "internalType": "address",
                    "name": "account",
                    "type": "address"
                }
            ],
            "name": "revokeRole",
            "outputs": [],
            "stateMutability": "nonpayable",
            "type": "function"
        },
        {
            "inputs": [
                {
                    "internalType": "address",
                    "name": "to",
                    "type": "address"
                },
                {
                    "internalType": "uint256",
                    "name": "srcTokenId",
                    "type": "uint256"
                },
                {
                    "internalType": "string[]",
                    "name": "copyrightOnwerNames",
                    "type": "string[]"
                },
                {
                    "internalType": "string[]",
                    "name": "copyrightOwnerIds",
                    "type": "string[]"
                },
                {
                    "internalType": "uint256[]",
                    "name": "copyrightOwnerStakes",
                    "type": "uint256[]"
                },
                {
                    "internalType": "enum CopyrightNFT.CopyrightType[]",
                    "name": "_copyrightTypes",
                    "type": "uint8[]"
                }
            ],
            "name": "safeMint",
            "outputs": [],
            "stateMutability": "nonpayable",
            "type": "function"
        },
        {
            "inputs": [
                {
                    "internalType": "address",
                    "name": "from",
                    "type": "address"
                },
                {
                    "internalType": "address",
                    "name": "to",
                    "type": "address"
                },
                {
                    "internalType": "uint256",
                    "name": "tokenId",
                    "type": "uint256"
                }
            ],
            "name": "safeTransferFrom",
            "outputs": [],
            "stateMutability": "nonpayable",
            "type": "function"
        },
        {
            "inputs": [
                {
                    "internalType": "address",
                    "name": "from",
                    "type": "address"
                },
                {
                    "internalType": "address",
                    "name": "to",
                    "type": "address"
                },
                {
                    "internalType": "uint256",
                    "name": "tokenId",
                    "type": "uint256"
                },
                {
                    "internalType": "bytes",
                    "name": "data",
                    "type": "bytes"
                }
            ],
            "name": "safeTransferFrom",
            "outputs": [],
            "stateMutability": "nonpayable",
            "type": "function"
        },
        {
            "inputs": [
                {
                    "internalType": "address",
                    "name": "operator",
                    "type": "address"
                },
                {
                    "internalType": "bool",
                    "name": "approved",
                    "type": "bool"
                }
            ],
            "name": "setApprovalForAll",
            "outputs": [],
            "stateMutability": "nonpayable",
            "type": "function"
        },
        {
            "inputs": [
                {
                    "internalType": "bytes4",
                    "name": "interfaceId",
                    "type": "bytes4"
                }
            ],
            "name": "supportsInterface",
            "outputs": [
                {
                    "internalType": "bool",
                    "name": "",
                    "type": "bool"
                }
            ],
            "stateMutability": "view",
            "type": "function"
        },
        {
            "inputs": [],
            "name": "symbol",
            "outputs": [
                {
                    "internalType": "string",
                    "name": "",
                    "type": "string"
                }
            ],
            "stateMutability": "view",
            "type": "function"
        },
        {
            "inputs": [
                {
                    "internalType": "uint256",
                    "name": "tokenId",
                    "type": "uint256"
                }
            ],
            "name": "tokenURI",
            "outputs": [
                {
                    "internalType": "string",
                    "name": "",
                    "type": "string"
                }
            ],
            "stateMutability": "view",
            "type": "function"
        },
        {
            "inputs": [],
            "name": "totalSupply",
            "outputs": [
                {
                    "internalType": "uint256",
                    "name": "",
                    "type": "uint256"
                }
            ],
            "stateMutability": "view",
            "type": "function"
        },
        {
            "inputs": [
                {
                    "internalType": "address",
                    "name": "from",
                    "type": "address"
                },
                {
                    "internalType": "address",
                    "name": "to",
                    "type": "address"
                },
                {
                    "internalType": "uint256",
                    "name": "tokenId",
                    "type": "uint256"
                }
            ],
            "name": "transferFrom",
            "outputs": [],
            "stateMutability": "nonpayable",
            "type": "function"
        }
    ],
    "bytecode": "0x60a06040523480156200001157600080fd5b50604051620047c6380380620047c68339818101604052810190620000379190620002fc565b6040518060400160405280600c81526020017f436f707972696768744e465400000000000000000000000000000000000000008152506040518060400160405280600381526020017f434e5400000000000000000000000000000000000000000000000000000000008152508160009081620000b49190620005bd565b508060019081620000c69190620005bd565b5050508073ffffffffffffffffffffffffffffffffffffffff1660808173ffffffffffffffffffffffffffffffffffffffff1681525050620001126000801b836200011b60201b60201c565b505050620006a4565b60006200012f83836200021f60201b60201c565b620002145760016006600085815260200190815260200160002060000160008473ffffffffffffffffffffffffffffffffffffffff1673ffffffffffffffffffffffffffffffffffffffff16815260200190815260200160002060006101000a81548160ff021916908315150217905550620001b06200028a60201b60201c565b73ffffffffffffffffffffffffffffffffffffffff168273ffffffffffffffffffffffffffffffffffffffff16847f2f8788117e7eff1d82e926ec794901d17c78024a50270940304540a733656f0d60405160405180910390a46001905062000219565b600090505b92915050565b60006006600084815260200190815260200160002060000160008373ffffffffffffffffffffffffffffffffffffffff1673ffffffffffffffffffffffffffffffffffffffff16815260200190815260200160002060009054906101000a900460ff16905092915050565b600033905090565b600080fd5b600073ffffffffffffffffffffffffffffffffffffffff82169050919050565b6000620002c48262000297565b9050919050565b620002d681620002b7565b8114620002e257600080fd5b50565b600081519050620002f681620002cb565b92915050565b6000806040838503121562000316576200031562000292565b5b60006200032685828601620002e5565b92505060206200033985828601620002e5565b9150509250929050565b600081519050919050565b7f4e487b7100000000000000000000000000000000000000000000000000000000600052604160045260246000fd5b7f4e487b7100000000000000000000000000000000000000000000000000000000600052602260045260246000fd5b60006002820490506001821680620003c557607f821691505b602082108103620003db57620003da6200037d565b5b50919050565b60008190508160005260206000209050919050565b60006020601f8301049050919050565b600082821b905092915050565b600060088302620004457fffffffffffffffffffffffffffffffffffffffffffffffffffffffffffffffff8262000406565b62000451868362000406565b95508019841693508086168417925050509392505050565b6000819050919050565b6000819050919050565b60006200049e62000498620004928462000469565b62000473565b62000469565b9050919050565b6000819050919050565b620004ba836200047d565b620004d2620004c982620004a5565b84845462000413565b825550505050565b600090565b620004e9620004da565b620004f6818484620004af565b505050565b5b818110156200051e5762000512600082620004df565b600181019050620004fc565b5050565b601f8211156200056d576200053781620003e1565b6200054284620003f6565b8101602085101562000552578190505b6200056a6200056185620003f6565b830182620004fb565b50505b505050565b600082821c905092915050565b6000620005926000198460080262000572565b1980831691505092915050565b6000620005ad83836200057f565b9150826002028217905092915050565b620005c88262000343565b67ffffffffffffffff811115620005e457620005e36200034e565b5b620005f08254620003ac565b620005fd82828562000522565b600060209050601f83116001811462000635576000841562000620578287015190505b6200062c85826200059f565b8655506200069c565b601f1984166200064586620003e1565b60005b828110156200066f5784890151825560018201915060208501945060208101905062000648565b868310156200068f57848901516200068b601f8916826200057f565b8355505b6001600288020188555050505b505050505050565b608051614106620006c06000396000611ad001526141066000f3fe608060405234801561001057600080fd5b50600436106101585760003560e01c806370a08231116100c3578063b61854121161007c578063b6185412146103e9578063b88d4fde14610419578063c87b56dd14610435578063d547741f14610465578063e77fbdbe14610481578063e985e9c51461049d57610158565b806370a08231146103015780638c7a63ae1461033157806391d148541461036157806395d89b4114610391578063a217fddf146103af578063a22cb465146103cd57610158565b8063248a9ca311610115578063248a9ca3146102315780632f2ff15d1461026157806336568abe1461027d57806342842e0e1461029957806342966c68146102b55780636352211e146102d157610158565b806301ffc9a71461015d57806306fdde031461018d578063081812fc146101ab578063095ea7b3146101db57806318160ddd146101f757806323b872dd14610215575b600080fd5b6101776004803603810190610172919061286e565b6104cd565b60405161018491906128b6565b60405180910390f35b6101956104df565b6040516101a29190612961565b60405180910390f35b6101c560048036038101906101c091906129b9565b610571565b6040516101d29190612a27565b60405180910390f35b6101f560048036038101906101f09190612a6e565b61058d565b005b6101ff6105a3565b60405161020c9190612abd565b60405180910390f35b61022f600480360381019061022a9190612ad8565b6105a9565b005b61024b60048036038101906102469190612b61565b61065f565b6040516102589190612b9d565b60405180910390f35b61027b60048036038101906102769190612bb8565b61067f565b005b61029760048036038101906102929190612bb8565b6106a1565b005b6102b360048036038101906102ae9190612ad8565b61071c565b005b6102cf60048036038101906102ca91906129b9565b61073c565b005b6102eb60048036038101906102e691906129b9565b610834565b6040516102f89190612a27565b60405180910390f35b61031b60048036038101906103169190612bf8565b610846565b6040516103289190612abd565b60405180910390f35b61034b600480360381019061034691906129b9565b610900565b6040516103589190612fb7565b60405180910390f35b61037b60048036038101906103769190612bb8565b610bd8565b60405161038891906128b6565b60405180910390f35b610399610c43565b6040516103a69190612961565b60405180910390f35b6103b7610cd5565b6040516103c49190612b9d565b60405180910390f35b6103e760048036038101906103e29190613005565b610cdc565b005b61040360048036038101906103fe91906129b9565b610cf2565b60405161041091906130b4565b60405180910390f35b610433600480360381019061042e919061320b565b610d95565b005b61044f600480360381019061044a91906129b9565b610db2565b60405161045c9190612961565b60405180910390f35b61047f600480360381019061047a9190612bb8565b610e1b565b005b61049b600480360381019061049691906135c0565b610e3d565b005b6104b760048036038101906104b291906136bd565b6110bf565b6040516104c491906128b6565b60405180910390f35b60006104d882611153565b9050919050565b6060600080546104ee9061372c565b80601f016020809104026020016040519081016040528092919081815260200182805461051a9061372c565b80156105675780601f1061053c57610100808354040283529160200191610567565b820191906000526020600020905b81548152906001019060200180831161054a57829003601f168201915b5050505050905090565b600061057c826111cd565b5061058682611255565b9050919050565b61059f828261059a611292565b61129a565b5050565b60095481565b600073ffffffffffffffffffffffffffffffffffffffff168373ffffffffffffffffffffffffffffffffffffffff1614806106105750600073ffffffffffffffffffffffffffffffffffffffff168273ffffffffffffffffffffffffffffffffffffffff16145b61064f576040517f08c379a0000000000000000000000000000000000000000000000000000000008152600401610646906137a9565b60405180910390fd5b61065a8383836112ac565b505050565b600060066000838152602001908152602001600020600101549050919050565b6106888261065f565b610691816113ae565b61069b83836113c2565b50505050565b6106a9611292565b73ffffffffffffffffffffffffffffffffffffffff168173ffffffffffffffffffffffffffffffffffffffff161461070d576040517f6697b23200000000000000000000000000000000000000000000000000000000815260040160405180910390fd5b61071782826114b4565b505050565b61073783838360405180602001604052806000815250610d95565b505050565b6000801b610749816113ae565b600061075483610834565b905060086000848152602001908152602001600020600090556007600084815260200190815260200160002060008082016000610791919061257a565b60018201600080820160006107a691906125a2565b6001820160006107b691906125a2565b6002820160006107c691906125c3565b505050506107d3836115a7565b600960008154809291906107e6906137f8565b9190505550828173ffffffffffffffffffffffffffffffffffffffff167f696de425f79f4a40bc6d2122ca50507f0efbeabbff86a84871b7196ab8ea8df760405160405180910390a3505050565b600061083f826111cd565b9050919050565b60008073ffffffffffffffffffffffffffffffffffffffff168273ffffffffffffffffffffffffffffffffffffffff16036108b95760006040517f89c62b640000000000000000000000000000000000000000000000000000000081526004016108b09190612a27565b60405180910390fd5b600360008373ffffffffffffffffffffffffffffffffffffffff1673ffffffffffffffffffffffffffffffffffffffff168152602001908152602001600020549050919050565b6109086125e4565b60076000838152602001908152602001600020604051806040016040529081600082018054806020026020016040519081016040528092919081815260200182805480156109aa57602002820191906000526020600020906000905b82829054906101000a900460ff16600681111561098457610983612c51565b5b815260200190600101906020826000010492830192600103820291508084116109645790505b505050505081526020016001820160405180606001604052908160008201805480602002602001604051908101604052809291908181526020016000905b82821015610a94578382906000526020600020018054610a079061372c565b80601f0160208091040260200160405190810160405280929190818152602001828054610a339061372c565b8015610a805780601f10610a5557610100808354040283529160200191610a80565b820191906000526020600020905b815481529060010190602001808311610a6357829003601f168201915b5050505050815260200190600101906109e8565b50505050815260200160018201805480602002602001604051908101604052809291908181526020016000905b82821015610b6d578382906000526020600020018054610ae09061372c565b80601f0160208091040260200160405190810160405280929190818152602001828054610b0c9061372c565b8015610b595780601f10610b2e57610100808354040283529160200191610b59565b820191906000526020600020905b815481529060010190602001808311610b3c57829003601f168201915b505050505081526020019060010190610ac1565b50505050815260200160028201805480602002602001604051908101604052809291908181526020018280548015610bc457602002820191906000526020600020905b815481526020019060010190808311610bb0575b505050505081525050815250509050919050565b60006006600084815260200190815260200160002060000160008373ffffffffffffffffffffffffffffffffffffffff1673ffffffffffffffffffffffffffffffffffffffff16815260200190815260200160002060009054906101000a900460ff16905092915050565b606060018054610c529061372c565b80601f0160208091040260200160405190810160405280929190818152602001828054610c7e9061372c565b8015610ccb5780601f10610ca057610100808354040283529160200191610ccb565b820191906000526020600020905b815481529060010190602001808311610cae57829003601f168201915b5050505050905090565b6000801b81565b610cee610ce7611292565b838361162d565b5050565b606060076000838152602001908152602001600020600001805480602002602001604051908101604052809291908181526020018280548015610d8957602002820191906000526020600020906000905b82829054906101000a900460ff166006811115610d6357610d62612c51565b5b81526020019060010190602082600001049283019260010382029150808411610d435790505b50505050509050919050565b610da08484846105a9565b610dac8484848461179c565b50505050565b6060610dbd826111cd565b506000610dc8611953565b90506000815111610de85760405180602001604052806000815250610e13565b80610df28461196a565b604051602001610e0392919061385d565b6040516020818303038152906040525b915050919050565b610e248261065f565b610e2d816113ae565b610e3783836114b4565b50505050565b8573ffffffffffffffffffffffffffffffffffffffff16610e5d86611a38565b73ffffffffffffffffffffffffffffffffffffffff1614610eb3576040517f08c379a0000000000000000000000000000000000000000000000000000000008152600401610eaa906138cd565b60405180910390fd5b6000600860008781526020019081526020016000205414610f09576040517f08c379a0000000000000000000000000000000000000000000000000000000008152600401610f0090613939565b60405180910390fd5b82518451148015610f1b575081518351145b610f5a576040517f08c379a0000000000000000000000000000000000000000000000000000000008152600401610f51906139a5565b60405180910390fd5b6000600a6000815480929190610f6f906139c5565b91905055905060096000815480929190610f88906139c5565b91905055508060086000888152602001908152602001600020819055506040518060400160405280838152602001604051806060016040528088815260200187815260200186815250815250600760008381526020019081526020016000206000820151816000019080519060200190611003929190612604565b5060208201518160010160008201518160000190805190602001906110299291906126ba565b5060208201518160010190805190602001906110469291906126ba565b506040820151816002019080519060200190611063929190612713565b5050509050506110738782611bb6565b7f2180c3cde38fcf1a2e2ef987a023f77b7225a5a9922d4385cceb66e951cc661c818888888888886040516110ae9796959493929190613b02565b60405180910390a150505050505050565b6000600560008473ffffffffffffffffffffffffffffffffffffffff1673ffffffffffffffffffffffffffffffffffffffff16815260200190815260200160002060008373ffffffffffffffffffffffffffffffffffffffff1673ffffffffffffffffffffffffffffffffffffffff16815260200190815260200160002060009054906101000a900460ff16905092915050565b60007f7965db0b000000000000000000000000000000000000000000000000000000007bffffffffffffffffffffffffffffffffffffffffffffffffffffffff1916827bffffffffffffffffffffffffffffffffffffffffffffffffffffffff191614806111c657506111c582611bd4565b5b9050919050565b6000806111d983611cb6565b9050600073ffffffffffffffffffffffffffffffffffffffff168173ffffffffffffffffffffffffffffffffffffffff160361124c57826040517f7e2732890000000000000000000000000000000000000000000000000000000081526004016112439190612abd565b60405180910390fd5b80915050919050565b60006004600083815260200190815260200160002060009054906101000a900473ffffffffffffffffffffffffffffffffffffffff169050919050565b600033905090565b6112a78383836001611cf3565b505050565b600073ffffffffffffffffffffffffffffffffffffffff168273ffffffffffffffffffffffffffffffffffffffff160361131e5760006040517f64a0ae920000000000000000000000000000000000000000000000000000000081526004016113159190612a27565b60405180910390fd5b6000611332838361132d611292565b611eb8565b90508373ffffffffffffffffffffffffffffffffffffffff168173ffffffffffffffffffffffffffffffffffffffff16146113a8578382826040517f64283d7b00000000000000000000000000000000000000000000000000000000815260040161139f93929190613b8d565b60405180910390fd5b50505050565b6113bf816113ba611292565b6120d2565b50565b60006113ce8383610bd8565b6114a95760016006600085815260200190815260200160002060000160008473ffffffffffffffffffffffffffffffffffffffff1673ffffffffffffffffffffffffffffffffffffffff16815260200190815260200160002060006101000a81548160ff021916908315150217905550611446611292565b73ffffffffffffffffffffffffffffffffffffffff168273ffffffffffffffffffffffffffffffffffffffff16847f2f8788117e7eff1d82e926ec794901d17c78024a50270940304540a733656f0d60405160405180910390a4600190506114ae565b600090505b92915050565b60006114c08383610bd8565b1561159c5760006006600085815260200190815260200160002060000160008473ffffffffffffffffffffffffffffffffffffffff1673ffffffffffffffffffffffffffffffffffffffff16815260200190815260200160002060006101000a81548160ff021916908315150217905550611539611292565b73ffffffffffffffffffffffffffffffffffffffff168273ffffffffffffffffffffffffffffffffffffffff16847ff6391f5c32d9c69d2a47ea670b442974b53935d1edc7fd64eb21e047a839171b60405160405180910390a4600190506115a1565b600090505b92915050565b60006115b66000836000611eb8565b9050600073ffffffffffffffffffffffffffffffffffffffff168173ffffffffffffffffffffffffffffffffffffffff160361162957816040517f7e2732890000000000000000000000000000000000000000000000000000000081526004016116209190612abd565b60405180910390fd5b5050565b600073ffffffffffffffffffffffffffffffffffffffff168273ffffffffffffffffffffffffffffffffffffffff160361169e57816040517f5b08ba180000000000000000000000000000000000000000000000000000000081526004016116959190612a27565b60405180910390fd5b80600560008573ffffffffffffffffffffffffffffffffffffffff1673ffffffffffffffffffffffffffffffffffffffff16815260200190815260200160002060008473ffffffffffffffffffffffffffffffffffffffff1673ffffffffffffffffffffffffffffffffffffffff16815260200190815260200160002060006101000a81548160ff0219169083151502179055508173ffffffffffffffffffffffffffffffffffffffff168373ffffffffffffffffffffffffffffffffffffffff167f17307eab39ab6107e8899845ad3d59bd9653f200f220920489ca2b5937696c318360405161178f91906128b6565b60405180910390a3505050565b60008373ffffffffffffffffffffffffffffffffffffffff163b111561194d578273ffffffffffffffffffffffffffffffffffffffff1663150b7a026117e0611292565b8685856040518563ffffffff1660e01b81526004016118029493929190613c19565b6020604051808303816000875af192505050801561183e57506040513d601f19601f8201168201806040525081019061183b9190613c7a565b60015b6118c2573d806000811461186e576040519150601f19603f3d011682016040523d82523d6000602084013e611873565b606091505b5060008151036118ba57836040517f64a0ae920000000000000000000000000000000000000000000000000000000081526004016118b19190612a27565b60405180910390fd5b805181602001fd5b63150b7a0260e01b7bffffffffffffffffffffffffffffffffffffffffffffffffffffffff1916817bffffffffffffffffffffffffffffffffffffffffffffffffffffffff19161461194b57836040517f64a0ae920000000000000000000000000000000000000000000000000000000081526004016119429190612a27565b60405180910390fd5b505b50505050565b606060405180602001604052806000815250905090565b60606000600161197984612123565b01905060008167ffffffffffffffff811115611998576119976130e0565b5b6040519080825280601f01601f1916602001820160405280156119ca5781602001600182028036833780820191505090505b509050600082602001820190505b600115611a2d578080600190039150507f3031323334353637383961626364656600000000000000000000000000000000600a86061a8153600a8581611a2157611a20613ca7565b5b049450600085036119d8575b819350505050919050565b60008082604051602401611a4c9190612abd565b6040516020818303038152906040527f6352211e000000000000000000000000000000000000000000000000000000007bffffffffffffffffffffffffffffffffffffffffffffffffffffffff19166020820180517bffffffffffffffffffffffffffffffffffffffffffffffffffffffff838183161783525050505090506000807f000000000000000000000000000000000000000000000000000000000000000073ffffffffffffffffffffffffffffffffffffffff1683604051611b139190613d12565b600060405180830381855afa9150503d8060008114611b4e576040519150601f19603f3d011682016040523d82523d6000602084013e611b53565b606091505b509150915081611b98576040517f08c379a0000000000000000000000000000000000000000000000000000000008152600401611b8f90613d75565b60405180910390fd5b80806020019051810190611bac9190613dd3565b9350505050919050565b611bd0828260405180602001604052806000815250612276565b5050565b60007f80ac58cd000000000000000000000000000000000000000000000000000000007bffffffffffffffffffffffffffffffffffffffffffffffffffffffff1916827bffffffffffffffffffffffffffffffffffffffffffffffffffffffff19161480611c9f57507f5b5e139f000000000000000000000000000000000000000000000000000000007bffffffffffffffffffffffffffffffffffffffffffffffffffffffff1916827bffffffffffffffffffffffffffffffffffffffffffffffffffffffff1916145b80611caf5750611cae82612292565b5b9050919050565b60006002600083815260200190815260200160002060009054906101000a900473ffffffffffffffffffffffffffffffffffffffff169050919050565b8080611d2c5750600073ffffffffffffffffffffffffffffffffffffffff168273ffffffffffffffffffffffffffffffffffffffff1614155b15611e60576000611d3c846111cd565b9050600073ffffffffffffffffffffffffffffffffffffffff168373ffffffffffffffffffffffffffffffffffffffff1614158015611da757508273ffffffffffffffffffffffffffffffffffffffff168173ffffffffffffffffffffffffffffffffffffffff1614155b8015611dba5750611db881846110bf565b155b15611dfc57826040517fa9fbf51f000000000000000000000000000000000000000000000000000000008152600401611df39190612a27565b60405180910390fd5b8115611e5e57838573ffffffffffffffffffffffffffffffffffffffff168273ffffffffffffffffffffffffffffffffffffffff167f8c5be1e5ebec7d5bd14f71427d1e84f3dd0314c0f7b2291e5b200ac8c7c3b92560405160405180910390a45b505b836004600085815260200190815260200160002060006101000a81548173ffffffffffffffffffffffffffffffffffffffff021916908373ffffffffffffffffffffffffffffffffffffffff16021790555050505050565b600080611ec484611cb6565b9050600073ffffffffffffffffffffffffffffffffffffffff168373ffffffffffffffffffffffffffffffffffffffff1614611f0657611f058184866122fc565b5b600073ffffffffffffffffffffffffffffffffffffffff168173ffffffffffffffffffffffffffffffffffffffff1614611f9757611f48600085600080611cf3565b6001600360008373ffffffffffffffffffffffffffffffffffffffff1673ffffffffffffffffffffffffffffffffffffffff168152602001908152602001600020600082825403925050819055505b600073ffffffffffffffffffffffffffffffffffffffff168573ffffffffffffffffffffffffffffffffffffffff161461201a576001600360008773ffffffffffffffffffffffffffffffffffffffff1673ffffffffffffffffffffffffffffffffffffffff168152602001908152602001600020600082825401925050819055505b846002600086815260200190815260200160002060006101000a81548173ffffffffffffffffffffffffffffffffffffffff021916908373ffffffffffffffffffffffffffffffffffffffff160217905550838573ffffffffffffffffffffffffffffffffffffffff168273ffffffffffffffffffffffffffffffffffffffff167fddf252ad1be2c89b69c2b068fc378daa952ba7f163c4a11628f55a4df523b3ef60405160405180910390a4809150509392505050565b6120dc8282610bd8565b61211f5780826040517fe2517d3f000000000000000000000000000000000000000000000000000000008152600401612116929190613e00565b60405180910390fd5b5050565b600080600090507a184f03e93ff9f4daa797ed6e38ed64bf6a1f0100000000000000008310612181577a184f03e93ff9f4daa797ed6e38ed64bf6a1f010000000000000000838161217757612176613ca7565b5b0492506040810190505b6d04ee2d6d415b85acef810000000083106121be576d04ee2d6d415b85acef810000000083816121b4576121b3613ca7565b5b0492506020810190505b662386f26fc1000083106121ed57662386f26fc1000083816121e3576121e2613ca7565b5b0492506010810190505b6305f5e1008310612216576305f5e100838161220c5761220b613ca7565b5b0492506008810190505b612710831061223b57612710838161223157612230613ca7565b5b0492506004810190505b6064831061225e576064838161225457612253613ca7565b5b0492506002810190505b600a831061226d576001810190505b80915050919050565b61228083836123c0565b61228d600084848461179c565b505050565b60007f01ffc9a7000000000000000000000000000000000000000000000000000000007bffffffffffffffffffffffffffffffffffffffffffffffffffffffff1916827bffffffffffffffffffffffffffffffffffffffffffffffffffffffff1916149050919050565b6123078383836124b9565b6123bb57600073ffffffffffffffffffffffffffffffffffffffff168373ffffffffffffffffffffffffffffffffffffffff160361237c57806040517f7e2732890000000000000000000000000000000000000000000000000000000081526004016123739190612abd565b60405180910390fd5b81816040517f177e802f0000000000000000000000000000000000000000000000000000000081526004016123b2929190613e29565b60405180910390fd5b505050565b600073ffffffffffffffffffffffffffffffffffffffff168273ffffffffffffffffffffffffffffffffffffffff16036124325760006040517f64a0ae920000000000000000000000000000000000000000000000000000000081526004016124299190612a27565b60405180910390fd5b600061244083836000611eb8565b9050600073ffffffffffffffffffffffffffffffffffffffff168173ffffffffffffffffffffffffffffffffffffffff16146124b45760006040517f73c6ac6e0000000000000000000000000000000000000000000000000000000081526004016124ab9190612a27565b60405180910390fd5b505050565b60008073ffffffffffffffffffffffffffffffffffffffff168373ffffffffffffffffffffffffffffffffffffffff161415801561257157508273ffffffffffffffffffffffffffffffffffffffff168473ffffffffffffffffffffffffffffffffffffffff161480612532575061253184846110bf565b5b8061257057508273ffffffffffffffffffffffffffffffffffffffff1661255883611255565b73ffffffffffffffffffffffffffffffffffffffff16145b5b90509392505050565b50805460008255601f01602090049060005260206000209081019061259f9190612760565b50565b50805460008255906000526020600020908101906125c0919061277d565b50565b50805460008255906000526020600020908101906125e19190612760565b50565b6040518060400160405280606081526020016125fe6127a1565b81525090565b82805482825590600052602060002090601f016020900481019282156126a95791602002820160005b8382111561267a57835183826101000a81548160ff0219169083600681111561265957612658612c51565b5b0217905550926020019260010160208160000104928301926001030261262d565b80156126a75782816101000a81549060ff021916905560010160208160000104928301926001030261267a565b505b5090506126b69190612760565b5090565b828054828255906000526020600020908101928215612702579160200282015b828111156127015782518290816126f19190613ffe565b50916020019190600101906126da565b5b50905061270f919061277d565b5090565b82805482825590600052602060002090810192821561274f579160200282015b8281111561274e578251825591602001919060010190612733565b5b50905061275c9190612760565b5090565b5b80821115612779576000816000905550600101612761565b5090565b5b8082111561279d576000818161279491906127c2565b5060010161277e565b5090565b60405180606001604052806060815260200160608152602001606081525090565b5080546127ce9061372c565b6000825580601f106127e057506127ff565b601f0160209004906000526020600020908101906127fe9190612760565b5b50565b6000604051905090565b600080fd5b600080fd5b60007fffffffff0000000000000000000000000000000000000000000000000000000082169050919050565b61284b81612816565b811461285657600080fd5b50565b60008135905061286881612842565b92915050565b6000602082840312156128845761288361280c565b5b600061289284828501612859565b91505092915050565b60008115159050919050565b6128b08161289b565b82525050565b60006020820190506128cb60008301846128a7565b92915050565b600081519050919050565b600082825260208201905092915050565b60005b8381101561290b5780820151818401526020810190506128f0565b60008484015250505050565b6000601f19601f8301169050919050565b6000612933826128d1565b61293d81856128dc565b935061294d8185602086016128ed565b61295681612917565b840191505092915050565b6000602082019050818103600083015261297b8184612928565b905092915050565b6000819050919050565b61299681612983565b81146129a157600080fd5b50565b6000813590506129b38161298d565b92915050565b6000602082840312156129cf576129ce61280c565b5b60006129dd848285016129a4565b91505092915050565b600073ffffffffffffffffffffffffffffffffffffffff82169050919050565b6000612a11826129e6565b9050919050565b612a2181612a06565b82525050565b6000602082019050612a3c6000830184612a18565b92915050565b612a4b81612a06565b8114612a5657600080fd5b50565b600081359050612a6881612a42565b92915050565b60008060408385031215612a8557612a8461280c565b5b6000612a9385828601612a59565b9250506020612aa4858286016129a4565b9150509250929050565b612ab781612983565b82525050565b6000602082019050612ad26000830184612aae565b92915050565b600080600060608486031215612af157612af061280c565b5b6000612aff86828701612a59565b9350506020612b1086828701612a59565b9250506040612b21868287016129a4565b9150509250925092565b6000819050919050565b612b3e81612b2b565b8114612b4957600080fd5b50565b600081359050612b5b81612b35565b92915050565b600060208284031215612b7757612b7661280c565b5b6000612b8584828501612b4c565b91505092915050565b612b9781612b2b565b82525050565b6000602082019050612bb26000830184612b8e565b92915050565b60008060408385031215612bcf57612bce61280c565b5b6000612bdd85828601612b4c565b9250506020612bee85828601612a59565b9150509250929050565b600060208284031215612c0e57612c0d61280c565b5b6000612c1c84828501612a59565b91505092915050565b600081519050919050565b600082825260208201905092915050565b6000819050602082019050919050565b7f4e487b7100000000000000000000000000000000000000000000000000000000600052602160045260246000fd5b60078110612c9157612c90612c51565b5b50565b6000819050612ca282612c80565b919050565b6000612cb282612c94565b9050919050565b612cc281612ca7565b82525050565b6000612cd48383612cb9565b60208301905092915050565b6000602082019050919050565b6000612cf882612c25565b612d028185612c30565b9350612d0d83612c41565b8060005b83811015612d3e578151612d258882612cc8565b9750612d3083612ce0565b925050600181019050612d11565b5085935050505092915050565b600081519050919050565b600082825260208201905092915050565b6000819050602082019050919050565b600082825260208201905092915050565b6000612d93826128d1565b612d9d8185612d77565b9350612dad8185602086016128ed565b612db681612917565b840191505092915050565b6000612dcd8383612d88565b905092915050565b6000602082019050919050565b6000612ded82612d4b565b612df78185612d56565b935083602082028501612e0985612d67565b8060005b85811015612e455784840389528151612e268582612dc1565b9450612e3183612dd5565b925060208a01995050600181019050612e0d565b50829750879550505050505092915050565b600081519050919050565b600082825260208201905092915050565b6000819050602082019050919050565b612e8c81612983565b82525050565b6000612e9e8383612e83565b60208301905092915050565b6000602082019050919050565b6000612ec282612e57565b612ecc8185612e62565b9350612ed783612e73565b8060005b83811015612f08578151612eef8882612e92565b9750612efa83612eaa565b925050600181019050612edb565b5085935050505092915050565b60006060830160008301518482036000860152612f328282612de2565b91505060208301518482036020860152612f4c8282612de2565b91505060408301518482036040860152612f668282612eb7565b9150508091505092915050565b60006040830160008301518482036000860152612f908282612ced565b91505060208301518482036020860152612faa8282612f15565b9150508091505092915050565b60006020820190508181036000830152612fd18184612f73565b905092915050565b612fe28161289b565b8114612fed57600080fd5b50565b600081359050612fff81612fd9565b92915050565b6000806040838503121561301c5761301b61280c565b5b600061302a85828601612a59565b925050602061303b85828601612ff0565b9150509250929050565b600082825260208201905092915050565b600061306182612c25565b61306b8185613045565b935061307683612c41565b8060005b838110156130a757815161308e8882612cc8565b975061309983612ce0565b92505060018101905061307a565b5085935050505092915050565b600060208201905081810360008301526130ce8184613056565b905092915050565b600080fd5b600080fd5b7f4e487b7100000000000000000000000000000000000000000000000000000000600052604160045260246000fd5b61311882612917565b810181811067ffffffffffffffff82111715613137576131366130e0565b5b80604052505050565b600061314a612802565b9050613156828261310f565b919050565b600067ffffffffffffffff821115613176576131756130e0565b5b61317f82612917565b9050602081019050919050565b82818337600083830152505050565b60006131ae6131a98461315b565b613140565b9050828152602081018484840111156131ca576131c96130db565b5b6131d584828561318c565b509392505050565b600082601f8301126131f2576131f16130d6565b5b813561320284826020860161319b565b91505092915050565b600080600080608085870312156132255761322461280c565b5b600061323387828801612a59565b945050602061324487828801612a59565b9350506040613255878288016129a4565b925050606085013567ffffffffffffffff81111561327657613275612811565b5b613282878288016131dd565b91505092959194509250565b600067ffffffffffffffff8211156132a9576132a86130e0565b5b602082029050602081019050919050565b600080fd5b600067ffffffffffffffff8211156132da576132d96130e0565b5b6132e382612917565b9050602081019050919050565b60006133036132fe846132bf565b613140565b90508281526020810184848401111561331f5761331e6130db565b5b61332a84828561318c565b509392505050565b600082601f830112613347576133466130d6565b5b81356133578482602086016132f0565b91505092915050565b600061337361336e8461328e565b613140565b90508083825260208201905060208402830185811115613396576133956132ba565b5b835b818110156133dd57803567ffffffffffffffff8111156133bb576133ba6130d6565b5b8086016133c88982613332565b85526020850194505050602081019050613398565b5050509392505050565b600082601f8301126133fc576133fb6130d6565b5b813561340c848260208601613360565b91505092915050565b600067ffffffffffffffff8211156134305761342f6130e0565b5b602082029050602081019050919050565b600061345461344f84613415565b613140565b90508083825260208201905060208402830185811115613477576134766132ba565b5b835b818110156134a0578061348c88826129a4565b845260208401935050602081019050613479565b5050509392505050565b600082601f8301126134bf576134be6130d6565b5b81356134cf848260208601613441565b91505092915050565b600067ffffffffffffffff8211156134f3576134f26130e0565b5b602082029050602081019050919050565b6007811061351157600080fd5b50565b60008135905061352381613504565b92915050565b600061353c613537846134d8565b613140565b9050808382526020820190506020840283018581111561355f5761355e6132ba565b5b835b8181101561358857806135748882613514565b845260208401935050602081019050613561565b5050509392505050565b600082601f8301126135a7576135a66130d6565b5b81356135b7848260208601613529565b91505092915050565b60008060008060008060c087890312156135dd576135dc61280c565b5b60006135eb89828a01612a59565b96505060206135fc89828a016129a4565b955050604087013567ffffffffffffffff81111561361d5761361c612811565b5b61362989828a016133e7565b945050606087013567ffffffffffffffff81111561364a57613649612811565b5b61365689828a016133e7565b935050608087013567ffffffffffffffff81111561367757613676612811565b5b61368389828a016134aa565b92505060a087013567ffffffffffffffff8111156136a4576136a3612811565b5b6136b089828a01613592565b9150509295509295509295565b600080604083850312156136d4576136d361280c565b5b60006136e285828601612a59565b92505060206136f385828601612a59565b9150509250929050565b7f4e487b7100000000000000000000000000000000000000000000000000000000600052602260045260246000fd5b6000600282049050600182168061374457607f821691505b602082108103613757576137566136fd565b5b50919050565b7f546f6b656e206e6f74207472616e7366657261626c6500000000000000000000600082015250565b60006137936016836128dc565b915061379e8261375d565b602082019050919050565b600060208201905081810360008301526137c281613786565b9050919050565b7f4e487b7100000000000000000000000000000000000000000000000000000000600052601160045260246000fd5b600061380382612983565b915060008203613816576138156137c9565b5b600182039050919050565b600081905092915050565b6000613837826128d1565b6138418185613821565b93506138518185602086016128ed565b80840191505092915050565b6000613869828561382c565b9150613875828461382c565b91508190509392505050565b7f6f6e6c792073726320746f6b656e206f776e6572000000000000000000000000600082015250565b60006138b76014836128dc565b91506138c282613881565b602082019050919050565b600060208201905081810360008301526138e6816138aa565b9050919050565b7f737263546f6b656e496420616c7265616479206d696e74656400000000000000600082015250565b60006139236019836128dc565b915061392e826138ed565b602082019050919050565b6000602082019050818103600083015261395281613916565b9050919050565b7f696e76616c696420617267756d656e7473206c656e6774680000000000000000600082015250565b600061398f6018836128dc565b915061399a82613959565b602082019050919050565b600060208201905081810360008301526139be81613982565b9050919050565b60006139d082612983565b91507fffffffffffffffffffffffffffffffffffffffffffffffffffffffffffffffff8203613a0257613a016137c9565b5b600182019050919050565b600082825260208201905092915050565b6000613a2982612d4b565b613a338185613a0d565b935083602082028501613a4585612d67565b8060005b85811015613a815784840389528151613a628582612dc1565b9450613a6d83612dd5565b925060208a01995050600181019050613a49565b50829750879550505050505092915050565b600082825260208201905092915050565b6000613aaf82612e57565b613ab98185613a93565b9350613ac483612e73565b8060005b83811015613af5578151613adc8882612e92565b9750613ae783612eaa565b925050600181019050613ac8565b5085935050505092915050565b600060e082019050613b17600083018a612aae565b613b246020830189612a18565b613b316040830188612aae565b8181036060830152613b438187613a1e565b90508181036080830152613b578186613a1e565b905081810360a0830152613b6b8185613aa4565b905081810360c0830152613b7f8184613056565b905098975050505050505050565b6000606082019050613ba26000830186612a18565b613baf6020830185612aae565b613bbc6040830184612a18565b949350505050565b600081519050919050565b600082825260208201905092915050565b6000613beb82613bc4565b613bf58185613bcf565b9350613c058185602086016128ed565b613c0e81612917565b840191505092915050565b6000608082019050613c2e6000830187612a18565b613c3b6020830186612a18565b613c486040830185612aae565b8181036060830152613c5a8184613be0565b905095945050505050565b600081519050613c7481612842565b92915050565b600060208284031215613c9057613c8f61280c565b5b6000613c9e84828501613c65565b91505092915050565b7f4e487b7100000000000000000000000000000000000000000000000000000000600052601260045260246000fd5b600081905092915050565b6000613cec82613bc4565b613cf68185613cd6565b9350613d068185602086016128ed565b80840191505092915050565b6000613d1e8284613ce1565b915081905092915050565b7f63616c6c206f776e65724f66206661696c656400000000000000000000000000600082015250565b6000613d5f6013836128dc565b9150613d6a82613d29565b602082019050919050565b60006020820190508181036000830152613d8e81613d52565b9050919050565b6000613da0826129e6565b9050919050565b613db081613d95565b8114613dbb57600080fd5b50565b600081519050613dcd81613da7565b92915050565b600060208284031215613de957613de861280c565b5b6000613df784828501613dbe565b91505092915050565b6000604082019050613e156000830185612a18565b613e226020830184612b8e565b9392505050565b6000604082019050613e3e6000830185612a18565b613e4b6020830184612aae565b9392505050565b60008190508160005260206000209050919050565b60006020601f8301049050919050565b600082821b905092915050565b600060088302613eb47fffffffffffffffffffffffffffffffffffffffffffffffffffffffffffffffff82613e77565b613ebe8683613e77565b95508019841693508086168417925050509392505050565b6000819050919050565b6000613efb613ef6613ef184612983565b613ed6565b612983565b9050919050565b6000819050919050565b613f1583613ee0565b613f29613f2182613f02565b848454613e84565b825550505050565b600090565b613f3e613f31565b613f49818484613f0c565b505050565b5b81811015613f6d57613f62600082613f36565b600181019050613f4f565b5050565b601f821115613fb257613f8381613e52565b613f8c84613e67565b81016020851015613f9b578190505b613faf613fa785613e67565b830182613f4e565b50505b505050565b600082821c905092915050565b6000613fd560001984600802613fb7565b1980831691505092915050565b6000613fee8383613fc4565b9150826002028217905092915050565b614007826128d1565b67ffffffffffffffff8111156140205761401f6130e0565b5b61402a825461372c565b614035828285613f71565b600060209050601f8311600181146140685760008415614056578287015190505b6140608582613fe2565b8655506140c8565b601f19841661407686613e52565b60005b8281101561409e57848901518255600182019150602085019450602081019050614079565b868310156140bb57848901516140b7601f891682613fc4565b8355505b6001600288020188555050505b50505050505056fea264697066735822122086a06771bbe9196e8090c25e369213abd6e7507fe5a2719871e446f514a2597f64736f6c63430008140033",
    "linkReferences": {},
    "deployedLinkReferences": {}
}