{
    "_format": "hh-sol-artifact-1",
    "contractName": "AssetNFT",
    "sourceName": "contracts/AssetNFT.sol",
    "abi": [
        {
            "inputs": [
                {
                    "internalType": "address",
                    "name": "initialOwner",
                    "type": "address"
                }
            ],
            "stateMutability": "nonpayable",
            "type": "constructor"
        },
        {
            "inputs": [],
            "name": "AccessControlBadConfirmation",
            "type": "error"
        },
        {
            "inputs": [
                {
                    "internalType": "address",
                    "name": "account",
                    "type": "address"
                },
                {
                    "internalType": "bytes32",
                    "name": "neededRole",
                    "type": "bytes32"
                }
            ],
            "name": "AccessControlUnauthorizedAccount",
            "type": "error"
        },
        {
            "inputs": [
                {
                    "internalType": "address",
                    "name": "sender",
                    "type": "address"
                },
                {
                    "internalType": "uint256",
                    "name": "tokenId",
                    "type": "uint256"
                },
                {
                    "internalType": "address",
                    "name": "owner",
                    "type": "address"
                }
            ],
            "name": "ERC721IncorrectOwner",
            "type": "error"
        },
        {
            "inputs": [
                {
                    "internalType": "address",
                    "name": "operator",
                    "type": "address"
                },
                {
                    "internalType": "uint256",
                    "name": "tokenId",
                    "type": "uint256"
                }
            ],
            "name": "ERC721InsufficientApproval",
            "type": "error"
        },
        {
            "inputs": [
                {
                    "internalType": "address",
                    "name": "approver",
                    "type": "address"
                }
            ],
            "name": "ERC721InvalidApprover",
            "type": "error"
        },
        {
            "inputs": [
                {
                    "internalType": "address",
                    "name": "operator",
                    "type": "address"
                }
            ],
            "name": "ERC721InvalidOperator",
            "type": "error"
        },
        {
            "inputs": [
                {
                    "internalType": "address",
                    "name": "owner",
                    "type": "address"
                }
            ],
            "name": "ERC721InvalidOwner",
            "type": "error"
        },
        {
            "inputs": [
                {
                    "internalType": "address",
                    "name": "receiver",
                    "type": "address"
                }
            ],
            "name": "ERC721InvalidReceiver",
            "type": "error"
        },
        {
            "inputs": [
                {
                    "internalType": "address",
                    "name": "sender",
                    "type": "address"
                }
            ],
            "name": "ERC721InvalidSender",
            "type": "error"
        },
        {
            "inputs": [
                {
                    "internalType": "uint256",
                    "name": "tokenId",
                    "type": "uint256"
                }
            ],
            "name": "ERC721NonexistentToken",
            "type": "error"
        },
        {
            "anonymous": false,
            "inputs": [
                {
                    "indexed": true,
                    "internalType": "address",
                    "name": "owner",
                    "type": "address"
                },
                {
                    "indexed": true,
                    "internalType": "address",
                    "name": "approved",
                    "type": "address"
                },
                {
                    "indexed": true,
                    "internalType": "uint256",
                    "name": "tokenId",
                    "type": "uint256"
                }
            ],
            "name": "Approval",
            "type": "event"
        },
        {
            "anonymous": false,
            "inputs": [
                {
                    "indexed": true,
                    "internalType": "address",
                    "name": "owner",
                    "type": "address"
                },
                {
                    "indexed": true,
                    "internalType": "address",
                    "name": "operator",
                    "type": "address"
                },
                {
                    "indexed": false,
                    "internalType": "bool",
                    "name": "approved",
                    "type": "bool"
                }
            ],
            "name": "ApprovalForAll",
            "type": "event"
        },
        {
            "anonymous": false,
            "inputs": [
                {
                    "indexed": false,
                    "internalType": "uint256",
                    "name": "_fromTokenId",
                    "type": "uint256"
                },
                {
                    "indexed": false,
                    "internalType": "uint256",
                    "name": "_toTokenId",
                    "type": "uint256"
                }
            ],
            "name": "BatchMetadataUpdate",
            "type": "event"
        },
        {
            "anonymous": false,
            "inputs": [
                {
                    "indexed": false,
                    "internalType": "address",
                    "name": "owner",
                    "type": "address"
                },
                {
                    "indexed": false,
                    "internalType": "uint256",
                    "name": "tokenId",
                    "type": "uint256"
                }
            ],
            "name": "Burned",
            "type": "event"
        },
        {
            "anonymous": false,
            "inputs": [
                {
                    "indexed": false,
                    "internalType": "uint256",
                    "name": "tokenId",
                    "type": "uint256"
                },
                {
                    "indexed": false,
                    "internalType": "address",
                    "name": "to",
                    "type": "address"
                },
                {
                    "indexed": false,
                    "internalType": "bool",
                    "name": "isConsigned",
                    "type": "bool"
                },
                {
                    "indexed": false,
                    "internalType": "address",
                    "name": "originContract",
                    "type": "address"
                },
                {
                    "indexed": false,
                    "internalType": "uint256",
                    "name": "originTokenId",
                    "type": "uint256"
                },
                {
                    "indexed": false,
                    "internalType": "string",
                    "name": "originTokenURI",
                    "type": "string"
                },
                {
                    "indexed": false,
                    "internalType": "string[5]",
                    "name": "assetInfos",
                    "type": "string[5]"
                },
                {
                    "indexed": false,
                    "internalType": "string[]",
                    "name": "creatorNames",
                    "type": "string[]"
                },
                {
                    "indexed": false,
                    "internalType": "string[]",
                    "name": "creatorIds",
                    "type": "string[]"
                },
                {
                    "indexed": false,
                    "internalType": "bool[2]",
                    "name": "validityInfos",
                    "type": "bool[2]"
                }
            ],
            "name": "Consigned",
            "type": "event"
        },
        {
            "anonymous": false,
            "inputs": [
                {
                    "indexed": false,
                    "internalType": "uint256",
                    "name": "_tokenId",
                    "type": "uint256"
                }
            ],
            "name": "MetadataUpdate",
            "type": "event"
        },
        {
            "anonymous": false,
            "inputs": [
                {
                    "indexed": false,
                    "internalType": "uint256",
                    "name": "tokenId",
                    "type": "uint256"
                },
                {
                    "indexed": false,
                    "internalType": "address",
                    "name": "to",
                    "type": "address"
                },
                {
                    "indexed": false,
                    "internalType": "bool",
                    "name": "isConsigned",
                    "type": "bool"
                },
                {
                    "indexed": false,
                    "internalType": "address",
                    "name": "originContract",
                    "type": "address"
                },
                {
                    "indexed": false,
                    "internalType": "uint256",
                    "name": "originTokenId",
                    "type": "uint256"
                },
                {
                    "indexed": false,
                    "internalType": "string",
                    "name": "originTokenURI",
                    "type": "string"
                },
                {
                    "indexed": false,
                    "internalType": "string[5]",
                    "name": "assetInfos",
                    "type": "string[5]"
                },
                {
                    "indexed": false,
                    "internalType": "string[]",
                    "name": "creatorNames",
                    "type": "string[]"
                },
                {
                    "indexed": false,
                    "internalType": "string[]",
                    "name": "creatorIds",
                    "type": "string[]"
                },
                {
                    "indexed": false,
                    "internalType": "bool[2]",
                    "name": "validityInfos",
                    "type": "bool[2]"
                }
            ],
            "name": "Minted",
            "type": "event"
        },
        {
            "anonymous": false,
            "inputs": [
                {
                    "indexed": true,
                    "internalType": "bytes32",
                    "name": "role",
                    "type": "bytes32"
                },
                {
                    "indexed": true,
                    "internalType": "bytes32",
                    "name": "previousAdminRole",
                    "type": "bytes32"
                },
                {
                    "indexed": true,
                    "internalType": "bytes32",
                    "name": "newAdminRole",
                    "type": "bytes32"
                }
            ],
            "name": "RoleAdminChanged",
            "type": "event"
        },
        {
            "anonymous": false,
            "inputs": [
                {
                    "indexed": true,
                    "internalType": "bytes32",
                    "name": "role",
                    "type": "bytes32"
                },
                {
                    "indexed": true,
                    "internalType": "address",
                    "name": "account",
                    "type": "address"
                },
                {
                    "indexed": true,
                    "internalType": "address",
                    "name": "sender",
                    "type": "address"
                }
            ],
            "name": "RoleGranted",
            "type": "event"
        },
        {
            "anonymous": false,
            "inputs": [
                {
                    "indexed": true,
                    "internalType": "bytes32",
                    "name": "role",
                    "type": "bytes32"
                },
                {
                    "indexed": true,
                    "internalType": "address",
                    "name": "account",
                    "type": "address"
                },
                {
                    "indexed": true,
                    "internalType": "address",
                    "name": "sender",
                    "type": "address"
                }
            ],
            "name": "RoleRevoked",
            "type": "event"
        },
        {
            "anonymous": false,
            "inputs": [
                {
                    "indexed": true,
                    "internalType": "address",
                    "name": "from",
                    "type": "address"
                },
                {
                    "indexed": true,
                    "internalType": "address",
                    "name": "to",
                    "type": "address"
                },
                {
                    "indexed": true,
                    "internalType": "uint256",
                    "name": "tokenId",
                    "type": "uint256"
                }
            ],
            "name": "Transfer",
            "type": "event"
        },
        {
            "anonymous": false,
            "inputs": [
                {
                    "indexed": false,
                    "internalType": "address",
                    "name": "originContract",
                    "type": "address"
                },
                {
                    "indexed": false,
                    "internalType": "uint256",
                    "name": "originTokenId",
                    "type": "uint256"
                },
                {
                    "indexed": false,
                    "internalType": "uint256",
                    "name": "tokenId",
                    "type": "uint256"
                }
            ],
            "name": "Unconsigned",
            "type": "event"
        },
        {
            "inputs": [],
            "name": "DEFAULT_ADMIN_ROLE",
            "outputs": [
                {
                    "internalType": "bytes32",
                    "name": "",
                    "type": "bytes32"
                }
            ],
            "stateMutability": "view",
            "type": "function"
        },
        {
            "inputs": [
                {
                    "internalType": "address",
                    "name": "to",
                    "type": "address"
                },
                {
                    "internalType": "uint256",
                    "name": "tokenId",
                    "type": "uint256"
                }
            ],
            "name": "approve",
            "outputs": [],
            "stateMutability": "nonpayable",
            "type": "function"
        },
        {
            "inputs": [
                {
                    "internalType": "address",
                    "name": "owner",
                    "type": "address"
                }
            ],
            "name": "balanceOf",
            "outputs": [
                {
                    "internalType": "uint256",
                    "name": "",
                    "type": "uint256"
                }
            ],
            "stateMutability": "view",
            "type": "function"
        },
        {
            "inputs": [
                {
                    "internalType": "uint256",
                    "name": "tokenId",
                    "type": "uint256"
                }
            ],
            "name": "burn",
            "outputs": [],
            "stateMutability": "nonpayable",
            "type": "function"
        },
        {
            "inputs": [
                {
                    "internalType": "address",
                    "name": "to",
                    "type": "address"
                },
                {
                    "internalType": "address",
                    "name": "originContract",
                    "type": "address"
                },
                {
                    "internalType": "uint256",
                    "name": "originTokenId",
                    "type": "uint256"
                },
                {
                    "internalType": "string",
                    "name": "originTokenURI",
                    "type": "string"
                },
                {
                    "internalType": "string[5]",
                    "name": "assetInfos",
                    "type": "string[5]"
                },
                {
                    "internalType": "string[]",
                    "name": "creatorNames",
                    "type": "string[]"
                },
                {
                    "internalType": "string[]",
                    "name": "creatorIds",
                    "type": "string[]"
                },
                {
                    "internalType": "bool[2]",
                    "name": "validityInfos",
                    "type": "bool[2]"
                }
            ],
            "name": "consign",
            "outputs": [],
            "stateMutability": "nonpayable",
            "type": "function"
        },
        {
            "inputs": [
                {
                    "internalType": "uint256",
                    "name": "tokenId",
                    "type": "uint256"
                }
            ],
            "name": "getApproved",
            "outputs": [
                {
                    "internalType": "address",
                    "name": "",
                    "type": "address"
                }
            ],
            "stateMutability": "view",
            "type": "function"
        },
        {
            "inputs": [
                {
                    "internalType": "address",
                    "name": "_originAddress",
                    "type": "address"
                },
                {
                    "internalType": "uint256",
                    "name": "_originTokenId",
                    "type": "uint256"
                }
            ],
            "name": "getConsignedTokenId",
            "outputs": [
                {
                    "internalType": "uint256",
                    "name": "",
                    "type": "uint256"
                }
            ],
            "stateMutability": "view",
            "type": "function"
        },
        {
            "inputs": [
                {
                    "internalType": "bytes32",
                    "name": "role",
                    "type": "bytes32"
                }
            ],
            "name": "getRoleAdmin",
            "outputs": [
                {
                    "internalType": "bytes32",
                    "name": "",
                    "type": "bytes32"
                }
            ],
            "stateMutability": "view",
            "type": "function"
        },
        {
            "inputs": [
                {
                    "internalType": "uint256",
                    "name": "_tokenId",
                    "type": "uint256"
                }
            ],
            "name": "getTokenInfo",
            "outputs": [
                {
                    "components": [
                        {
                            "internalType": "bool",
                            "name": "isConsigned",
                            "type": "bool"
                        },
                        {
                            "components": [
                                {
                                    "internalType": "address",
                                    "name": "orginAddress",
                                    "type": "address"
                                },
                                {
                                    "internalType": "uint256",
                                    "name": "originTokenId",
                                    "type": "uint256"
                                },
                                {
                                    "internalType": "string",
                                    "name": "originTokenURI",
                                    "type": "string"
                                }
                            ],
                            "internalType": "struct AssetNFT.OrginInfo",
                            "name": "orginInfo",
                            "type": "tuple"
                        },
                        {
                            "components": [
                                {
                                    "internalType": "string",
                                    "name": "assetName",
                                    "type": "string"
                                },
                                {
                                    "internalType": "string",
                                    "name": "assetDescription",
                                    "type": "string"
                                },
                                {
                                    "internalType": "string",
                                    "name": "assetURI",
                                    "type": "string"
                                },
                                {
                                    "internalType": "string",
                                    "name": "assetHash",
                                    "type": "string"
                                },
                                {
                                    "internalType": "string",
                                    "name": "assetDNA",
                                    "type": "string"
                                }
                            ],
                            "internalType": "struct AssetNFT.AssetInfo",
                            "name": "assetInfo",
                            "type": "tuple"
                        },
                        {
                            "components": [
                                {
                                    "internalType": "string[]",
                                    "name": "creatorNames",
                                    "type": "string[]"
                                },
                                {
                                    "internalType": "string[]",
                                    "name": "creatorIds",
                                    "type": "string[]"
                                }
                            ],
                            "internalType": "struct AssetNFT.CreatorInfo",
                            "name": "creatorInfo",
                            "type": "tuple"
                        },
                        {
                            "components": [
                                {
                                    "internalType": "bool",
                                    "name": "violateCopyRight",
                                    "type": "bool"
                                },
                                {
                                    "internalType": "bool",
                                    "name": "reportCopyRight",
                                    "type": "bool"
                                }
                            ],
                            "internalType": "struct AssetNFT.CopyrightValidityInfo",
                            "name": "copyrightValidityInfo",
                            "type": "tuple"
                        }
                    ],
                    "internalType": "struct AssetNFT.TokenInfo",
                    "name": "",
                    "type": "tuple"
                }
            ],
            "stateMutability": "view",
            "type": "function"
        },
        {
            "inputs": [
                {
                    "internalType": "bytes32",
                    "name": "role",
                    "type": "bytes32"
                },
                {
                    "internalType": "address",
                    "name": "account",
                    "type": "address"
                }
            ],
            "name": "grantRole",
            "outputs": [],
            "stateMutability": "nonpayable",
            "type": "function"
        },
        {
            "inputs": [
                {
                    "internalType": "bytes32",
                    "name": "role",
                    "type": "bytes32"
                },
                {
                    "internalType": "address",
                    "name": "account",
                    "type": "address"
                }
            ],
            "name": "hasRole",
            "outputs": [
                {
                    "internalType": "bool",
                    "name": "",
                    "type": "bool"
                }
            ],
            "stateMutability": "view",
            "type": "function"
        },
        {
            "inputs": [
                {
                    "internalType": "address",
                    "name": "owner",
                    "type": "address"
                },
                {
                    "internalType": "address",
                    "name": "operator",
                    "type": "address"
                }
            ],
            "name": "isApprovedForAll",
            "outputs": [
                {
                    "internalType": "bool",
                    "name": "",
                    "type": "bool"
                }
            ],
            "stateMutability": "view",
            "type": "function"
        },
        {
            "inputs": [],
            "name": "name",
            "outputs": [
                {
                    "internalType": "string",
                    "name": "",
                    "type": "string"
                }
            ],
            "stateMutability": "view",
            "type": "function"
        },
        {
            "inputs": [],
            "name": "nextTokenId",
            "outputs": [
                {
                    "internalType": "uint256",
                    "name": "",
                    "type": "uint256"
                }
            ],
            "stateMutability": "view",
            "type": "function"
        },
        {
            "inputs": [
                {
                    "internalType": "uint256",
                    "name": "tokenId",
                    "type": "uint256"
                }
            ],
            "name": "ownerOf",
            "outputs": [
                {
                    "internalType": "address",
                    "name": "",
                    "type": "address"
                }
            ],
            "stateMutability": "view",
            "type": "function"
        },
        {
            "inputs": [
                {
                    "internalType": "bytes32",
                    "name": "role",
                    "type": "bytes32"
                },
                {
                    "internalType": "address",
                    "name": "callerConfirmation",
                    "type": "address"
                }
            ],
            "name": "renounceRole",
            "outputs": [],
            "stateMutability": "nonpayable",
            "type": "function"
        },
        {
            "inputs": [
                {
                    "internalType": "bytes32",
                    "name": "role",
                    "type": "bytes32"
                },
                {
                    "internalType": "address",
                    "name": "account",
                    "type": "address"
                }
            ],
            "name": "revokeRole",
            "outputs": [],
            "stateMutability": "nonpayable",
            "type": "function"
        },
        {
            "inputs": [
                {
                    "internalType": "address",
                    "name": "to",
                    "type": "address"
                },
                {
                    "internalType": "string[5]",
                    "name": "assetInfos",
                    "type": "string[5]"
                },
                {
                    "internalType": "string[]",
                    "name": "creatorNames",
                    "type": "string[]"
                },
                {
                    "internalType": "string[]",
                    "name": "creatorIds",
                    "type": "string[]"
                },
                {
                    "internalType": "bool[2]",
                    "name": "validityInfos",
                    "type": "bool[2]"
                }
            ],
            "name": "safeMint",
            "outputs": [],
            "stateMutability": "nonpayable",
            "type": "function"
        },
        {
            "inputs": [
                {
                    "internalType": "address",
                    "name": "from",
                    "type": "address"
                },
                {
                    "internalType": "address",
                    "name": "to",
                    "type": "address"
                },
                {
                    "internalType": "uint256",
                    "name": "tokenId",
                    "type": "uint256"
                }
            ],
            "name": "safeTransferFrom",
            "outputs": [],
            "stateMutability": "nonpayable",
            "type": "function"
        },
        {
            "inputs": [
                {
                    "internalType": "address",
                    "name": "from",
                    "type": "address"
                },
                {
                    "internalType": "address",
                    "name": "to",
                    "type": "address"
                },
                {
                    "internalType": "uint256",
                    "name": "tokenId",
                    "type": "uint256"
                },
                {
                    "internalType": "bytes",
                    "name": "data",
                    "type": "bytes"
                }
            ],
            "name": "safeTransferFrom",
            "outputs": [],
            "stateMutability": "nonpayable",
            "type": "function"
        },
        {
            "inputs": [
                {
                    "internalType": "address",
                    "name": "operator",
                    "type": "address"
                },
                {
                    "internalType": "bool",
                    "name": "approved",
                    "type": "bool"
                }
            ],
            "name": "setApprovalForAll",
            "outputs": [],
            "stateMutability": "nonpayable",
            "type": "function"
        },
        {
            "inputs": [
                {
                    "internalType": "bytes4",
                    "name": "interfaceId",
                    "type": "bytes4"
                }
            ],
            "name": "supportsInterface",
            "outputs": [
                {
                    "internalType": "bool",
                    "name": "",
                    "type": "bool"
                }
            ],
            "stateMutability": "view",
            "type": "function"
        },
        {
            "inputs": [],
            "name": "symbol",
            "outputs": [
                {
                    "internalType": "string",
                    "name": "",
                    "type": "string"
                }
            ],
            "stateMutability": "view",
            "type": "function"
        },
        {
            "inputs": [
                {
                    "internalType": "uint256",
                    "name": "tokenId",
                    "type": "uint256"
                }
            ],
            "name": "tokenURI",
            "outputs": [
                {
                    "internalType": "string",
                    "name": "",
                    "type": "string"
                }
            ],
            "stateMutability": "view",
            "type": "function"
        },
        {
            "inputs": [],
            "name": "totalSupply",
            "outputs": [
                {
                    "internalType": "uint256",
                    "name": "",
                    "type": "uint256"
                }
            ],
            "stateMutability": "view",
            "type": "function"
        },
        {
            "inputs": [
                {
                    "internalType": "address",
                    "name": "from",
                    "type": "address"
                },
                {
                    "internalType": "address",
                    "name": "to",
                    "type": "address"
                },
                {
                    "internalType": "uint256",
                    "name": "tokenId",
                    "type": "uint256"
                }
            ],
            "name": "transferFrom",
            "outputs": [],
            "stateMutability": "nonpayable",
            "type": "function"
        },
        {
            "inputs": [
                {
                    "internalType": "address",
                    "name": "originContract",
                    "type": "address"
                },
                {
                    "internalType": "uint256",
                    "name": "originTokenId",
                    "type": "uint256"
                }
            ],
            "name": "unconsign",
            "outputs": [],
            "stateMutability": "nonpayable",
            "type": "function"
        }
    ],
    "bytecode": "0x60806040523480156200001157600080fd5b5060405162005a3738038062005a378339818101604052810190620000379190620002c7565b6040518060400160405280600881526020017f41737365744e46540000000000000000000000000000000000000000000000008152506040518060400160405280600381526020017f414e5400000000000000000000000000000000000000000000000000000000008152508160009081620000b4919062000573565b508060019081620000c6919062000573565b505050620000de6000801b82620000e660201b60201c565b50506200065a565b6000620000fa8383620001ea60201b60201c565b620001df5760016007600085815260200190815260200160002060000160008473ffffffffffffffffffffffffffffffffffffffff1673ffffffffffffffffffffffffffffffffffffffff16815260200190815260200160002060006101000a81548160ff0219169083151502179055506200017b6200025560201b60201c565b73ffffffffffffffffffffffffffffffffffffffff168273ffffffffffffffffffffffffffffffffffffffff16847f2f8788117e7eff1d82e926ec794901d17c78024a50270940304540a733656f0d60405160405180910390a460019050620001e4565b600090505b92915050565b60006007600084815260200190815260200160002060000160008373ffffffffffffffffffffffffffffffffffffffff1673ffffffffffffffffffffffffffffffffffffffff16815260200190815260200160002060009054906101000a900460ff16905092915050565b600033905090565b600080fd5b600073ffffffffffffffffffffffffffffffffffffffff82169050919050565b60006200028f8262000262565b9050919050565b620002a18162000282565b8114620002ad57600080fd5b50565b600081519050620002c18162000296565b92915050565b600060208284031215620002e057620002df6200025d565b5b6000620002f084828501620002b0565b91505092915050565b600081519050919050565b7f4e487b7100000000000000000000000000000000000000000000000000000000600052604160045260246000fd5b7f4e487b7100000000000000000000000000000000000000000000000000000000600052602260045260246000fd5b600060028204905060018216806200037b57607f821691505b60208210810362000391576200039062000333565b5b50919050565b60008190508160005260206000209050919050565b60006020601f8301049050919050565b600082821b905092915050565b600060088302620003fb7fffffffffffffffffffffffffffffffffffffffffffffffffffffffffffffffff82620003bc565b620004078683620003bc565b95508019841693508086168417925050509392505050565b6000819050919050565b6000819050919050565b6000620004546200044e62000448846200041f565b62000429565b6200041f565b9050919050565b6000819050919050565b620004708362000433565b620004886200047f826200045b565b848454620003c9565b825550505050565b600090565b6200049f62000490565b620004ac81848462000465565b505050565b5b81811015620004d457620004c860008262000495565b600181019050620004b2565b5050565b601f8211156200052357620004ed8162000397565b620004f884620003ac565b8101602085101562000508578190505b620005206200051785620003ac565b830182620004b1565b50505b505050565b600082821c905092915050565b6000620005486000198460080262000528565b1980831691505092915050565b600062000563838362000535565b9150826002028217905092915050565b6200057e82620002f9565b67ffffffffffffffff8111156200059a576200059962000304565b5b620005a6825462000362565b620005b3828285620004d8565b600060209050601f831160018114620005eb5760008415620005d6578287015190505b620005e2858262000555565b86555062000652565b601f198416620005fb8662000397565b60005b828110156200062557848901518255600182019150602085019450602081019050620005fe565b8683101562000645578489015162000641601f89168262000535565b8355505b6001600288020188555050505b505050505050565b6153cd806200066a6000396000f3fe608060405234801561001057600080fd5b50600436106101a95760003560e01c80636352211e116100f9578063a22cb46511610097578063c87b56dd11610071578063c87b56dd146104dc578063d547741f1461050c578063e985e9c514610528578063f0e4549914610558576101a9565b8063a22cb46514610488578063b88d4fde146104a4578063c274465f146104c0576101a9565b80638c7a63ae116100d35780638c7a63ae146103ec57806391d148541461041c57806395d89b411461044c578063a217fddf1461046a576101a9565b80636352211e1461036e57806370a082311461039e57806375794a3c146103ce576101a9565b806323b872dd1161016657806336568abe1161014057806336568abe146102fe57806342842e0e1461031a57806342966c681461033657806349fa4ef914610352576101a9565b806323b872dd14610296578063248a9ca3146102b25780632f2ff15d146102e2576101a9565b806301ffc9a7146101ae57806306fdde03146101de578063081812fc146101fc578063095ea7b31461022c578063161a70bf1461024857806318160ddd14610278575b600080fd5b6101c860048036038101906101c39190613836565b610574565b6040516101d5919061387e565b60405180910390f35b6101e6610586565b6040516101f39190613929565b60405180910390f35b61021660048036038101906102119190613981565b610618565b60405161022391906139ef565b60405180910390f35b61024660048036038101906102419190613a36565b610634565b005b610262600480360381019061025d9190613a36565b61064a565b60405161026f9190613a85565b60405180910390f35b6102806106a5565b60405161028d9190613a85565b60405180910390f35b6102b060048036038101906102ab9190613aa0565b6106ab565b005b6102cc60048036038101906102c79190613b29565b610768565b6040516102d99190613b65565b60405180910390f35b6102fc60048036038101906102f79190613b80565b610788565b005b61031860048036038101906103139190613b80565b6107aa565b005b610334600480360381019061032f9190613aa0565b610825565b005b610350600480360381019061034b9190613981565b610845565b005b61036c60048036038101906103679190613a36565b610a57565b005b61038860048036038101906103839190613981565b610f37565b60405161039591906139ef565b60405180910390f35b6103b860048036038101906103b39190613bc0565b610f49565b6040516103c59190613a85565b60405180910390f35b6103d6611003565b6040516103e39190613a85565b60405180910390f35b61040660048036038101906104019190613981565b611009565b6040516104139190613eff565b60405180910390f35b61043660048036038101906104319190613b80565b611655565b604051610443919061387e565b60405180910390f35b6104546116c0565b6040516104619190613929565b60405180910390f35b610472611752565b60405161047f9190613b65565b60405180910390f35b6104a2600480360381019061049d9190613f4d565b611759565b005b6104be60048036038101906104b991906140c2565b61176f565b005b6104da60048036038101906104d5919061444c565b61178c565b005b6104f660048036038101906104f19190613981565b611b52565b6040516105039190613929565b60405180910390f35b61052660048036038101906105219190613b80565b611b64565b005b610542600480360381019061053d919061451b565b611b86565b60405161054f919061387e565b60405180910390f35b610572600480360381019061056d919061455b565b611c1a565b005b600061057f826120ed565b9050919050565b606060008054610595906146b0565b80601f01602080910402602001604051908101604052809291908181526020018280546105c1906146b0565b801561060e5780601f106105e35761010080835404028352916020019161060e565b820191906000526020600020905b8154815290600101906020018083116105f157829003601f168201915b5050505050905090565b600061062382612167565b5061062d826121ef565b9050919050565b610646828261064161222c565b612234565b5050565b6000600b60008473ffffffffffffffffffffffffffffffffffffffff1673ffffffffffffffffffffffffffffffffffffffff168152602001908152602001600020600083815260200190815260200160002054905092915050565b60085481565b3073ffffffffffffffffffffffffffffffffffffffff168373ffffffffffffffffffffffffffffffffffffffff1614801561071957503073ffffffffffffffffffffffffffffffffffffffff1661070182610f37565b73ffffffffffffffffffffffffffffffffffffffff16145b610758576040517f08c379a000000000000000000000000000000000000000000000000000000000815260040161074f9061472d565b60405180910390fd5b610763838383612246565b505050565b600060076000838152602001908152602001600020600101549050919050565b61079182610768565b61079a81612348565b6107a4838361235c565b50505050565b6107b261222c565b73ffffffffffffffffffffffffffffffffffffffff168173ffffffffffffffffffffffffffffffffffffffff1614610816576040517f6697b23200000000000000000000000000000000000000000000000000000000815260040160405180910390fd5b610820828261244e565b505050565b6108408383836040518060200160405280600081525061176f565b505050565b3373ffffffffffffffffffffffffffffffffffffffff1661086582612541565b73ffffffffffffffffffffffffffffffffffffffff161480610890575061088f6000801b33611655565b5b6108cf576040517f08c379a00000000000000000000000000000000000000000000000000000000081526004016108c690614799565b60405180910390fd5b60006108da82610f37565b9050600a6000838152602001908152602001600020600080820160006101000a81549060ff021916905560018201600080820160006101000a81549073ffffffffffffffffffffffffffffffffffffffff0219169055600182016000905560028201600061094891906135e8565b5050600482016000808201600061095f91906135e8565b60018201600061096f91906135e8565b60028201600061097f91906135e8565b60038201600061098f91906135e8565b60048201600061099f91906135e8565b505060098201600080820160006109b69190613628565b6001820160006109c69190613628565b5050600b8201600080820160006101000a81549060ff02191690556000820160016101000a81549060ff021916905550505050610a028261257e565b60086000815480929190610a15906147e8565b91905055507f696de425f79f4a40bc6d2122ca50507f0efbeabbff86a84871b7196ab8ea8df78183604051610a4b929190614811565b60405180910390a15050565b81610a6181612604565b610aa0576040517f08c379a0000000000000000000000000000000000000000000000000000000008152600401610a9790614886565b60405180910390fd5b6000600b60008573ffffffffffffffffffffffffffffffffffffffff1673ffffffffffffffffffffffffffffffffffffffff168152602001908152602001600020600084815260200190815260200160002054905060008103610b38576040517f08c379a0000000000000000000000000000000000000000000000000000000008152600401610b2f906148f2565b60405180910390fd5b6000600a600083815260200190815260200160002090508060000160009054906101000a900460ff16610ba0576040517f08c379a0000000000000000000000000000000000000000000000000000000008152600401610b97906148f2565b60405180910390fd5b3373ffffffffffffffffffffffffffffffffffffffff16610bc083612541565b73ffffffffffffffffffffffffffffffffffffffff1614610c16576040517f08c379a0000000000000000000000000000000000000000000000000000000008152600401610c0d9061495e565b60405180910390fd5b600030610c2284612541565b86604051602401610c359392919061497e565b6040516020818303038152906040527f23b872dd000000000000000000000000000000000000000000000000000000007bffffffffffffffffffffffffffffffffffffffffffffffffffffffff19166020820180517bffffffffffffffffffffffffffffffffffffffffffffffffffffffff8381831617835250505050905060008673ffffffffffffffffffffffffffffffffffffffff1682604051610cdb91906149fc565b6000604051808303816000865af19150503d8060008114610d18576040519150601f19603f3d011682016040523d82523d6000602084013e610d1d565b606091505b5050905080610d61576040517f08c379a0000000000000000000000000000000000000000000000000000000008152600401610d5890614a85565b60405180910390fd5b600b60008873ffffffffffffffffffffffffffffffffffffffff1673ffffffffffffffffffffffffffffffffffffffff168152602001908152602001600020600087815260200190815260200160002060009055600a6000858152602001908152602001600020600080820160006101000a81549060ff021916905560018201600080820160006101000a81549073ffffffffffffffffffffffffffffffffffffffff02191690556001820160009055600282016000610e2191906135e8565b50506004820160008082016000610e3891906135e8565b600182016000610e4891906135e8565b600282016000610e5891906135e8565b600382016000610e6891906135e8565b600482016000610e7891906135e8565b50506009820160008082016000610e8f9190613628565b600182016000610e9f9190613628565b5050600b8201600080820160006101000a81549060ff02191690556000820160016101000a81549060ff021916905550505050610edb8461257e565b60086000815480929190610eee906147e8565b91905055507fabb872d070e88ba3c8fd7bc0a3b4d4ad0c289d9a962446e8d7d93f0a7c4496af878786604051610f2693929190614aa5565b60405180910390a150505050505050565b6000610f4282612167565b9050919050565b60008073ffffffffffffffffffffffffffffffffffffffff168273ffffffffffffffffffffffffffffffffffffffff1603610fbc5760006040517f89c62b64000000000000000000000000000000000000000000000000000000008152600401610fb391906139ef565b60405180910390fd5b600360008373ffffffffffffffffffffffffffffffffffffffff1673ffffffffffffffffffffffffffffffffffffffff168152602001908152602001600020549050919050565b60095481565b611011613649565b600a60008381526020019081526020016000206040518060a00160405290816000820160009054906101000a900460ff16151515158152602001600182016040518060600160405290816000820160009054906101000a900473ffffffffffffffffffffffffffffffffffffffff1673ffffffffffffffffffffffffffffffffffffffff1673ffffffffffffffffffffffffffffffffffffffff168152602001600182015481526020016002820180546110ca906146b0565b80601f01602080910402602001604051908101604052809291908181526020018280546110f6906146b0565b80156111435780601f1061111857610100808354040283529160200191611143565b820191906000526020600020905b81548152906001019060200180831161112657829003601f168201915b5050505050815250508152602001600482016040518060a0016040529081600082018054611170906146b0565b80601f016020809104026020016040519081016040528092919081815260200182805461119c906146b0565b80156111e95780601f106111be576101008083540402835291602001916111e9565b820191906000526020600020905b8154815290600101906020018083116111cc57829003601f168201915b50505050508152602001600182018054611202906146b0565b80601f016020809104026020016040519081016040528092919081815260200182805461122e906146b0565b801561127b5780601f106112505761010080835404028352916020019161127b565b820191906000526020600020905b81548152906001019060200180831161125e57829003601f168201915b50505050508152602001600282018054611294906146b0565b80601f01602080910402602001604051908101604052809291908181526020018280546112c0906146b0565b801561130d5780601f106112e25761010080835404028352916020019161130d565b820191906000526020600020905b8154815290600101906020018083116112f057829003601f168201915b50505050508152602001600382018054611326906146b0565b80601f0160208091040260200160405190810160405280929190818152602001828054611352906146b0565b801561139f5780601f106113745761010080835404028352916020019161139f565b820191906000526020600020905b81548152906001019060200180831161138257829003601f168201915b505050505081526020016004820180546113b8906146b0565b80601f01602080910402602001604051908101604052809291908181526020018280546113e4906146b0565b80156114315780601f1061140657610100808354040283529160200191611431565b820191906000526020600020905b81548152906001019060200180831161141457829003601f168201915b50505050508152505081526020016009820160405180604001604052908160008201805480602002602001604051908101604052809291908181526020016000905b8282101561151f578382906000526020600020018054611492906146b0565b80601f01602080910402602001604051908101604052809291908181526020018280546114be906146b0565b801561150b5780601f106114e05761010080835404028352916020019161150b565b820191906000526020600020905b8154815290600101906020018083116114ee57829003601f168201915b505050505081526020019060010190611473565b50505050815260200160018201805480602002602001604051908101604052809291908181526020016000905b828210156115f857838290600052602060002001805461156b906146b0565b80601f0160208091040260200160405190810160405280929190818152602001828054611597906146b0565b80156115e45780601f106115b9576101008083540402835291602001916115e4565b820191906000526020600020905b8154815290600101906020018083116115c757829003601f168201915b50505050508152602001906001019061154c565b50505050815250508152602001600b82016040518060400160405290816000820160009054906101000a900460ff161515151581526020016000820160019054906101000a900460ff161515151581525050815250509050919050565b60006007600084815260200190815260200160002060000160008373ffffffffffffffffffffffffffffffffffffffff1673ffffffffffffffffffffffffffffffffffffffff16815260200190815260200160002060009054906101000a900460ff16905092915050565b6060600180546116cf906146b0565b80601f01602080910402602001604051908101604052809291908181526020018280546116fb906146b0565b80156117485780601f1061171d57610100808354040283529160200191611748565b820191906000526020600020905b81548152906001019060200180831161172b57829003601f168201915b5050505050905090565b6000801b81565b61176b61176461222c565b838361261d565b5050565b61177a8484846106ab565b6117868484848461278c565b50505050565b6000600960008154809291906117a190614adc565b919050559050600860008154809291906117ba90614adc565b91905055506040518060a001604052806000151581526020016040518060600160405280600073ffffffffffffffffffffffffffffffffffffffff168152602001600081526020016040518060200160405280600081525081525081526020016040518060a001604052808860006005811061183957611838614b24565b5b602002015181526020018860016005811061185757611856614b24565b5b602002015181526020018860026005811061187557611874614b24565b5b602002015181526020018860036005811061189357611892614b24565b5b60200201518152602001886004600581106118b1576118b0614b24565b5b6020020151815250815260200160405180604001604052808781526020018681525081526020016040518060400160405280856000600281106118f7576118f6614b24565b5b6020020151151581526020018560016002811061191757611916614b24565b5b60200201511515815250815250600a600083815260200190815260200160002060008201518160000160006101000a81548160ff02191690831515021790555060208201518160010160008201518160000160006101000a81548173ffffffffffffffffffffffffffffffffffffffff021916908373ffffffffffffffffffffffffffffffffffffffff1602179055506020820151816001015560408201518160020190816119c69190614cff565b50505060408201518160040160008201518160000190816119e79190614cff565b5060208201518160010190816119fd9190614cff565b506040820151816002019081611a139190614cff565b506060820151816003019081611a299190614cff565b506080820151816004019081611a3f9190614cff565b5050506060820151816009016000820151816000019080519060200190611a67929190613692565b506020820151816001019080519060200190611a84929190613692565b505050608082015181600b0160008201518160000160006101000a81548160ff02191690831515021790555060208201518160000160016101000a81548160ff0219169083151502179055505050905050611af78186600260058110611aed57611aec614b24565b5b6020020151612943565b611b01868261299f565b7fafa64a8017ae86746919fc6b081d5e45822b519192c4df50e2317038af10f490818760008060008a8a8a8a604051611b4299989796959493929190614ff6565b60405180910390a1505050505050565b6060611b5d826129bd565b9050919050565b611b6d82610768565b611b7681612348565b611b80838361244e565b50505050565b6000600560008473ffffffffffffffffffffffffffffffffffffffff1673ffffffffffffffffffffffffffffffffffffffff16815260200190815260200160002060008373ffffffffffffffffffffffffffffffffffffffff1673ffffffffffffffffffffffffffffffffffffffff16815260200190815260200160002060009054906101000a900460ff16905092915050565b86611c2481612604565b611c63576040517f08c379a0000000000000000000000000000000000000000000000000000000008152600401611c5a90614886565b60405180910390fd5b6000600b60008a73ffffffffffffffffffffffffffffffffffffffff1673ffffffffffffffffffffffffffffffffffffffff16815260200190815260200160002060008981526020019081526020016000205414611cf6576040517f08c379a0000000000000000000000000000000000000000000000000000000008152600401611ced906150f8565b60405180910390fd5b600060096000815480929190611d0b90614adc565b91905055905060086000815480929190611d2490614adc565b919050555080600b60008b73ffffffffffffffffffffffffffffffffffffffff1673ffffffffffffffffffffffffffffffffffffffff16815260200190815260200160002060008a8152602001908152602001600020819055506040518060a0016040528060011515815260200160405180606001604052808c73ffffffffffffffffffffffffffffffffffffffff1681526020018b81526020018a81525081526020016040518060a0016040528089600060058110611de757611de6614b24565b5b6020020151815260200189600160058110611e0557611e04614b24565b5b6020020151815260200189600260058110611e2357611e22614b24565b5b6020020151815260200189600360058110611e4157611e40614b24565b5b6020020151815260200189600460058110611e5f57611e5e614b24565b5b602002015181525081526020016040518060400160405280888152602001878152508152602001604051806040016040528086600060028110611ea557611ea4614b24565b5b60200201511515815260200186600160028110611ec557611ec4614b24565b5b60200201511515815250815250600a600083815260200190815260200160002060008201518160000160006101000a81548160ff02191690831515021790555060208201518160010160008201518160000160006101000a81548173ffffffffffffffffffffffffffffffffffffffff021916908373ffffffffffffffffffffffffffffffffffffffff160217905550602082015181600101556040820151816002019081611f749190614cff565b5050506040820151816004016000820151816000019081611f959190614cff565b506020820151816001019081611fab9190614cff565b506040820151816002019081611fc19190614cff565b506060820151816003019081611fd79190614cff565b506080820151816004019081611fed9190614cff565b5050506060820151816009016000820151816000019080519060200190612015929190613692565b506020820151816001019080519060200190612032929190613692565b505050608082015181600b0160008201518160000160006101000a81548160ff02191690831515021790555060208201518160000160016101000a81548160ff021916908315150217905550505090505061208d8188612943565b6120978a8261299f565b7f673aa2ed80168859ab432b475e8a99d2780ea3e93f2c732d5c36ce9d69255053818b60018c8c8c8c8c8c8c6040516120d99a99989796959493929190615118565b60405180910390a150505050505050505050565b60007f7965db0b000000000000000000000000000000000000000000000000000000007bffffffffffffffffffffffffffffffffffffffffffffffffffffffff1916827bffffffffffffffffffffffffffffffffffffffffffffffffffffffff19161480612160575061215f82612ad0565b5b9050919050565b60008061217383612541565b9050600073ffffffffffffffffffffffffffffffffffffffff168173ffffffffffffffffffffffffffffffffffffffff16036121e657826040517f7e2732890000000000000000000000000000000000000000000000000000000081526004016121dd9190613a85565b60405180910390fd5b80915050919050565b60006004600083815260200190815260200160002060009054906101000a900473ffffffffffffffffffffffffffffffffffffffff169050919050565b600033905090565b6122418383836001612b31565b505050565b600073ffffffffffffffffffffffffffffffffffffffff168273ffffffffffffffffffffffffffffffffffffffff16036122b85760006040517f64a0ae920000000000000000000000000000000000000000000000000000000081526004016122af91906139ef565b60405180910390fd5b60006122cc83836122c761222c565b612cf6565b90508373ffffffffffffffffffffffffffffffffffffffff168173ffffffffffffffffffffffffffffffffffffffff1614612342578382826040517f64283d7b000000000000000000000000000000000000000000000000000000008152600401612339939291906151d0565b60405180910390fd5b50505050565b6123598161235461222c565b612f10565b50565b60006123688383611655565b6124435760016007600085815260200190815260200160002060000160008473ffffffffffffffffffffffffffffffffffffffff1673ffffffffffffffffffffffffffffffffffffffff16815260200190815260200160002060006101000a81548160ff0219169083151502179055506123e061222c565b73ffffffffffffffffffffffffffffffffffffffff168273ffffffffffffffffffffffffffffffffffffffff16847f2f8788117e7eff1d82e926ec794901d17c78024a50270940304540a733656f0d60405160405180910390a460019050612448565b600090505b92915050565b600061245a8383611655565b156125365760006007600085815260200190815260200160002060000160008473ffffffffffffffffffffffffffffffffffffffff1673ffffffffffffffffffffffffffffffffffffffff16815260200190815260200160002060006101000a81548160ff0219169083151502179055506124d361222c565b73ffffffffffffffffffffffffffffffffffffffff168273ffffffffffffffffffffffffffffffffffffffff16847ff6391f5c32d9c69d2a47ea670b442974b53935d1edc7fd64eb21e047a839171b60405160405180910390a46001905061253b565b600090505b92915050565b60006002600083815260200190815260200160002060009054906101000a900473ffffffffffffffffffffffffffffffffffffffff169050919050565b600061258d6000836000612cf6565b9050600073ffffffffffffffffffffffffffffffffffffffff168173ffffffffffffffffffffffffffffffffffffffff160361260057816040517f7e2732890000000000000000000000000000000000000000000000000000000081526004016125f79190613a85565b60405180910390fd5b5050565b600080823b905060008163ffffffff1611915050919050565b600073ffffffffffffffffffffffffffffffffffffffff168273ffffffffffffffffffffffffffffffffffffffff160361268e57816040517f5b08ba1800000000000000000000000000000000000000000000000000000000815260040161268591906139ef565b60405180910390fd5b80600560008573ffffffffffffffffffffffffffffffffffffffff1673ffffffffffffffffffffffffffffffffffffffff16815260200190815260200160002060008473ffffffffffffffffffffffffffffffffffffffff1673ffffffffffffffffffffffffffffffffffffffff16815260200190815260200160002060006101000a81548160ff0219169083151502179055508173ffffffffffffffffffffffffffffffffffffffff168373ffffffffffffffffffffffffffffffffffffffff167f17307eab39ab6107e8899845ad3d59bd9653f200f220920489ca2b5937696c318360405161277f919061387e565b60405180910390a3505050565b60008373ffffffffffffffffffffffffffffffffffffffff163b111561293d578273ffffffffffffffffffffffffffffffffffffffff1663150b7a026127d061222c565b8685856040518563ffffffff1660e01b81526004016127f29493929190615251565b6020604051808303816000875af192505050801561282e57506040513d601f19601f8201168201806040525081019061282b91906152b2565b60015b6128b2573d806000811461285e576040519150601f19603f3d011682016040523d82523d6000602084013e612863565b606091505b5060008151036128aa57836040517f64a0ae920000000000000000000000000000000000000000000000000000000081526004016128a191906139ef565b60405180910390fd5b805181602001fd5b63150b7a0260e01b7bffffffffffffffffffffffffffffffffffffffffffffffffffffffff1916817bffffffffffffffffffffffffffffffffffffffffffffffffffffffff19161461293b57836040517f64a0ae9200000000000000000000000000000000000000000000000000000000815260040161293291906139ef565b60405180910390fd5b505b50505050565b806006600084815260200190815260200160002090816129639190614cff565b507ff8e1a15aba9398e019f0b49df1a4fde98ee17ae345cb5f6b5e2c27f5033e8ce7826040516129939190613a85565b60405180910390a15050565b6129b9828260405180602001604052806000815250612f61565b5050565b60606129c882612167565b5060006006600084815260200190815260200160002080546129e9906146b0565b80601f0160208091040260200160405190810160405280929190818152602001828054612a15906146b0565b8015612a625780601f10612a3757610100808354040283529160200191612a62565b820191906000526020600020905b815481529060010190602001808311612a4557829003601f168201915b505050505090506000612a73612f7d565b90506000815103612a88578192505050612acb565b600082511115612abd578082604051602001612aa592919061531b565b60405160208183030381529060405292505050612acb565b612ac684612f94565b925050505b919050565b6000634906490660e01b7bffffffffffffffffffffffffffffffffffffffffffffffffffffffff1916827bffffffffffffffffffffffffffffffffffffffffffffffffffffffff19161480612b2a5750612b2982612ffd565b5b9050919050565b8080612b6a5750600073ffffffffffffffffffffffffffffffffffffffff168273ffffffffffffffffffffffffffffffffffffffff1614155b15612c9e576000612b7a84612167565b9050600073ffffffffffffffffffffffffffffffffffffffff168373ffffffffffffffffffffffffffffffffffffffff1614158015612be557508273ffffffffffffffffffffffffffffffffffffffff168173ffffffffffffffffffffffffffffffffffffffff1614155b8015612bf85750612bf68184611b86565b155b15612c3a57826040517fa9fbf51f000000000000000000000000000000000000000000000000000000008152600401612c3191906139ef565b60405180910390fd5b8115612c9c57838573ffffffffffffffffffffffffffffffffffffffff168273ffffffffffffffffffffffffffffffffffffffff167f8c5be1e5ebec7d5bd14f71427d1e84f3dd0314c0f7b2291e5b200ac8c7c3b92560405160405180910390a45b505b836004600085815260200190815260200160002060006101000a81548173ffffffffffffffffffffffffffffffffffffffff021916908373ffffffffffffffffffffffffffffffffffffffff16021790555050505050565b600080612d0284612541565b9050600073ffffffffffffffffffffffffffffffffffffffff168373ffffffffffffffffffffffffffffffffffffffff1614612d4457612d438184866130df565b5b600073ffffffffffffffffffffffffffffffffffffffff168173ffffffffffffffffffffffffffffffffffffffff1614612dd557612d86600085600080612b31565b6001600360008373ffffffffffffffffffffffffffffffffffffffff1673ffffffffffffffffffffffffffffffffffffffff168152602001908152602001600020600082825403925050819055505b600073ffffffffffffffffffffffffffffffffffffffff168573ffffffffffffffffffffffffffffffffffffffff1614612e58576001600360008773ffffffffffffffffffffffffffffffffffffffff1673ffffffffffffffffffffffffffffffffffffffff168152602001908152602001600020600082825401925050819055505b846002600086815260200190815260200160002060006101000a81548173ffffffffffffffffffffffffffffffffffffffff021916908373ffffffffffffffffffffffffffffffffffffffff160217905550838573ffffffffffffffffffffffffffffffffffffffff168273ffffffffffffffffffffffffffffffffffffffff167fddf252ad1be2c89b69c2b068fc378daa952ba7f163c4a11628f55a4df523b3ef60405160405180910390a4809150509392505050565b612f1a8282611655565b612f5d5780826040517fe2517d3f000000000000000000000000000000000000000000000000000000008152600401612f5492919061533f565b60405180910390fd5b5050565b612f6b83836131a3565b612f78600084848461278c565b505050565b606060405180602001604052806000815250905090565b6060612f9f82612167565b506000612faa612f7d565b90506000815111612fca5760405180602001604052806000815250612ff5565b80612fd48461329c565b604051602001612fe592919061531b565b6040516020818303038152906040525b915050919050565b60007f80ac58cd000000000000000000000000000000000000000000000000000000007bffffffffffffffffffffffffffffffffffffffffffffffffffffffff1916827bffffffffffffffffffffffffffffffffffffffffffffffffffffffff191614806130c857507f5b5e139f000000000000000000000000000000000000000000000000000000007bffffffffffffffffffffffffffffffffffffffffffffffffffffffff1916827bffffffffffffffffffffffffffffffffffffffffffffffffffffffff1916145b806130d857506130d78261336a565b5b9050919050565b6130ea8383836133d4565b61319e57600073ffffffffffffffffffffffffffffffffffffffff168373ffffffffffffffffffffffffffffffffffffffff160361315f57806040517f7e2732890000000000000000000000000000000000000000000000000000000081526004016131569190613a85565b60405180910390fd5b81816040517f177e802f000000000000000000000000000000000000000000000000000000008152600401613195929190614811565b60405180910390fd5b505050565b600073ffffffffffffffffffffffffffffffffffffffff168273ffffffffffffffffffffffffffffffffffffffff16036132155760006040517f64a0ae9200000000000000000000000000000000000000000000000000000000815260040161320c91906139ef565b60405180910390fd5b600061322383836000612cf6565b9050600073ffffffffffffffffffffffffffffffffffffffff168173ffffffffffffffffffffffffffffffffffffffff16146132975760006040517f73c6ac6e00000000000000000000000000000000000000000000000000000000815260040161328e91906139ef565b60405180910390fd5b505050565b6060600060016132ab84613495565b01905060008167ffffffffffffffff8111156132ca576132c9613f97565b5b6040519080825280601f01601f1916602001820160405280156132fc5781602001600182028036833780820191505090505b509050600082602001820190505b60011561335f578080600190039150507f3031323334353637383961626364656600000000000000000000000000000000600a86061a8153600a858161335357613352615368565b5b0494506000850361330a575b819350505050919050565b60007f01ffc9a7000000000000000000000000000000000000000000000000000000007bffffffffffffffffffffffffffffffffffffffffffffffffffffffff1916827bffffffffffffffffffffffffffffffffffffffffffffffffffffffff1916149050919050565b60008073ffffffffffffffffffffffffffffffffffffffff168373ffffffffffffffffffffffffffffffffffffffff161415801561348c57508273ffffffffffffffffffffffffffffffffffffffff168473ffffffffffffffffffffffffffffffffffffffff16148061344d575061344c8484611b86565b5b8061348b57508273ffffffffffffffffffffffffffffffffffffffff16613473836121ef565b73ffffffffffffffffffffffffffffffffffffffff16145b5b90509392505050565b600080600090507a184f03e93ff9f4daa797ed6e38ed64bf6a1f01000000000000000083106134f3577a184f03e93ff9f4daa797ed6e38ed64bf6a1f01000000000000000083816134e9576134e8615368565b5b0492506040810190505b6d04ee2d6d415b85acef81000000008310613530576d04ee2d6d415b85acef8100000000838161352657613525615368565b5b0492506020810190505b662386f26fc10000831061355f57662386f26fc10000838161355557613554615368565b5b0492506010810190505b6305f5e1008310613588576305f5e100838161357e5761357d615368565b5b0492506008810190505b61271083106135ad5761271083816135a3576135a2615368565b5b0492506004810190505b606483106135d057606483816135c6576135c5615368565b5b0492506002810190505b600a83106135df576001810190505b80915050919050565b5080546135f4906146b0565b6000825580601f106136065750613625565b601f01602090049060005260206000209081019061362491906136eb565b5b50565b50805460008255906000526020600020908101906136469190613708565b50565b6040518060a0016040528060001515815260200161366561372c565b8152602001613672613763565b815260200161367f613792565b815260200161368c6137ac565b81525090565b8280548282559060005260206000209081019282156136da579160200282015b828111156136d95782518290816136c99190614cff565b50916020019190600101906136b2565b5b5090506136e79190613708565b5090565b5b808211156137045760008160009055506001016136ec565b5090565b5b80821115613728576000818161371f91906135e8565b50600101613709565b5090565b6040518060600160405280600073ffffffffffffffffffffffffffffffffffffffff16815260200160008152602001606081525090565b6040518060a0016040528060608152602001606081526020016060815260200160608152602001606081525090565b604051806040016040528060608152602001606081525090565b60405180604001604052806000151581526020016000151581525090565b6000604051905090565b600080fd5b600080fd5b60007fffffffff0000000000000000000000000000000000000000000000000000000082169050919050565b613813816137de565b811461381e57600080fd5b50565b6000813590506138308161380a565b92915050565b60006020828403121561384c5761384b6137d4565b5b600061385a84828501613821565b91505092915050565b60008115159050919050565b61387881613863565b82525050565b6000602082019050613893600083018461386f565b92915050565b600081519050919050565b600082825260208201905092915050565b60005b838110156138d35780820151818401526020810190506138b8565b60008484015250505050565b6000601f19601f8301169050919050565b60006138fb82613899565b61390581856138a4565b93506139158185602086016138b5565b61391e816138df565b840191505092915050565b6000602082019050818103600083015261394381846138f0565b905092915050565b6000819050919050565b61395e8161394b565b811461396957600080fd5b50565b60008135905061397b81613955565b92915050565b600060208284031215613997576139966137d4565b5b60006139a58482850161396c565b91505092915050565b600073ffffffffffffffffffffffffffffffffffffffff82169050919050565b60006139d9826139ae565b9050919050565b6139e9816139ce565b82525050565b6000602082019050613a0460008301846139e0565b92915050565b613a13816139ce565b8114613a1e57600080fd5b50565b600081359050613a3081613a0a565b92915050565b60008060408385031215613a4d57613a4c6137d4565b5b6000613a5b85828601613a21565b9250506020613a6c8582860161396c565b9150509250929050565b613a7f8161394b565b82525050565b6000602082019050613a9a6000830184613a76565b92915050565b600080600060608486031215613ab957613ab86137d4565b5b6000613ac786828701613a21565b9350506020613ad886828701613a21565b9250506040613ae98682870161396c565b9150509250925092565b6000819050919050565b613b0681613af3565b8114613b1157600080fd5b50565b600081359050613b2381613afd565b92915050565b600060208284031215613b3f57613b3e6137d4565b5b6000613b4d84828501613b14565b91505092915050565b613b5f81613af3565b82525050565b6000602082019050613b7a6000830184613b56565b92915050565b60008060408385031215613b9757613b966137d4565b5b6000613ba585828601613b14565b9250506020613bb685828601613a21565b9150509250929050565b600060208284031215613bd657613bd56137d4565b5b6000613be484828501613a21565b91505092915050565b613bf681613863565b82525050565b613c05816139ce565b82525050565b613c148161394b565b82525050565b600082825260208201905092915050565b6000613c3682613899565b613c408185613c1a565b9350613c508185602086016138b5565b613c59816138df565b840191505092915050565b6000606083016000830151613c7c6000860182613bfc565b506020830151613c8f6020860182613c0b565b5060408301518482036040860152613ca78282613c2b565b9150508091505092915050565b600060a0830160008301518482036000860152613cd18282613c2b565b91505060208301518482036020860152613ceb8282613c2b565b91505060408301518482036040860152613d058282613c2b565b91505060608301518482036060860152613d1f8282613c2b565b91505060808301518482036080860152613d398282613c2b565b9150508091505092915050565b600081519050919050565b600082825260208201905092915050565b6000819050602082019050919050565b6000613d7e8383613c2b565b905092915050565b6000602082019050919050565b6000613d9e82613d46565b613da88185613d51565b935083602082028501613dba85613d62565b8060005b85811015613df65784840389528151613dd78582613d72565b9450613de283613d86565b925060208a01995050600181019050613dbe565b50829750879550505050505092915050565b60006040830160008301518482036000860152613e258282613d93565b91505060208301518482036020860152613e3f8282613d93565b9150508091505092915050565b604082016000820151613e626000850182613bed565b506020820151613e756020850182613bed565b50505050565b600060c083016000830151613e936000860182613bed565b5060208301518482036020860152613eab8282613c64565b91505060408301518482036040860152613ec58282613cb4565b91505060608301518482036060860152613edf8282613e08565b9150506080830151613ef46080860182613e4c565b508091505092915050565b60006020820190508181036000830152613f198184613e7b565b905092915050565b613f2a81613863565b8114613f3557600080fd5b50565b600081359050613f4781613f21565b92915050565b60008060408385031215613f6457613f636137d4565b5b6000613f7285828601613a21565b9250506020613f8385828601613f38565b9150509250929050565b600080fd5b600080fd5b7f4e487b7100000000000000000000000000000000000000000000000000000000600052604160045260246000fd5b613fcf826138df565b810181811067ffffffffffffffff82111715613fee57613fed613f97565b5b80604052505050565b60006140016137ca565b905061400d8282613fc6565b919050565b600067ffffffffffffffff82111561402d5761402c613f97565b5b614036826138df565b9050602081019050919050565b82818337600083830152505050565b600061406561406084614012565b613ff7565b90508281526020810184848401111561408157614080613f92565b5b61408c848285614043565b509392505050565b600082601f8301126140a9576140a8613f8d565b5b81356140b9848260208601614052565b91505092915050565b600080600080608085870312156140dc576140db6137d4565b5b60006140ea87828801613a21565b94505060206140fb87828801613a21565b935050604061410c8782880161396c565b925050606085013567ffffffffffffffff81111561412d5761412c6137d9565b5b61413987828801614094565b91505092959194509250565b600067ffffffffffffffff8211156141605761415f613f97565b5b602082029050919050565b600080fd5b600067ffffffffffffffff82111561418b5761418a613f97565b5b614194826138df565b9050602081019050919050565b60006141b46141af84614170565b613ff7565b9050828152602081018484840111156141d0576141cf613f92565b5b6141db848285614043565b509392505050565b600082601f8301126141f8576141f7613f8d565b5b81356142088482602086016141a1565b91505092915050565b600061422461421f84614145565b613ff7565b9050806020840283018581111561423e5761423d61416b565b5b835b8181101561428557803567ffffffffffffffff81111561426357614262613f8d565b5b80860161427089826141e3565b85526020850194505050602081019050614240565b5050509392505050565b600082601f8301126142a4576142a3613f8d565b5b60056142b1848285614211565b91505092915050565b600067ffffffffffffffff8211156142d5576142d4613f97565b5b602082029050602081019050919050565b60006142f96142f4846142ba565b613ff7565b9050808382526020820190506020840283018581111561431c5761431b61416b565b5b835b8181101561436357803567ffffffffffffffff81111561434157614340613f8d565b5b80860161434e89826141e3565b8552602085019450505060208101905061431e565b5050509392505050565b600082601f83011261438257614381613f8d565b5b81356143928482602086016142e6565b91505092915050565b600067ffffffffffffffff8211156143b6576143b5613f97565b5b602082029050919050565b60006143d46143cf8461439b565b613ff7565b905080602084028301858111156143ee576143ed61416b565b5b835b8181101561441757806144038882613f38565b8452602084019350506020810190506143f0565b5050509392505050565b600082601f83011261443657614435613f8d565b5b60026144438482856143c1565b91505092915050565b600080600080600060c08688031215614468576144676137d4565b5b600061447688828901613a21565b955050602086013567ffffffffffffffff811115614497576144966137d9565b5b6144a38882890161428f565b945050604086013567ffffffffffffffff8111156144c4576144c36137d9565b5b6144d08882890161436d565b935050606086013567ffffffffffffffff8111156144f1576144f06137d9565b5b6144fd8882890161436d565b925050608061450e88828901614421565b9150509295509295909350565b60008060408385031215614532576145316137d4565b5b600061454085828601613a21565b925050602061455185828601613a21565b9150509250929050565b600080600080600080600080610120898b03121561457c5761457b6137d4565b5b600061458a8b828c01613a21565b985050602061459b8b828c01613a21565b97505060406145ac8b828c0161396c565b965050606089013567ffffffffffffffff8111156145cd576145cc6137d9565b5b6145d98b828c016141e3565b955050608089013567ffffffffffffffff8111156145fa576145f96137d9565b5b6146068b828c0161428f565b94505060a089013567ffffffffffffffff811115614627576146266137d9565b5b6146338b828c0161436d565b93505060c089013567ffffffffffffffff811115614654576146536137d9565b5b6146608b828c0161436d565b92505060e06146718b828c01614421565b9150509295985092959890939650565b7f4e487b7100000000000000000000000000000000000000000000000000000000600052602260045260246000fd5b600060028204905060018216806146c857607f821691505b6020821081036146db576146da614681565b5b50919050565b7f4f6e6c79207468697320636f6e74726163742063616e207472616e7366657200600082015250565b6000614717601f836138a4565b9150614722826146e1565b602082019050919050565b600060208201905081810360008301526147468161470a565b9050919050565b7f6e6f74206f776e6572206f72206d616e616765722e0000000000000000000000600082015250565b60006147836015836138a4565b915061478e8261474d565b602082019050919050565b600060208201905081810360008301526147b281614776565b9050919050565b7f4e487b7100000000000000000000000000000000000000000000000000000000600052601160045260246000fd5b60006147f38261394b565b915060008203614806576148056147b9565b5b600182039050919050565b600060408201905061482660008301856139e0565b6148336020830184613a76565b9392505050565b7f6973206e6f74206120636f6e747261637420616464726573732e000000000000600082015250565b6000614870601a836138a4565b915061487b8261483a565b602082019050919050565b6000602082019050818103600083015261489f81614863565b9050919050565b7f6e6f7420636f6e7369676e65642e000000000000000000000000000000000000600082015250565b60006148dc600e836138a4565b91506148e7826148a6565b602082019050919050565b6000602082019050818103600083015261490b816148cf565b9050919050565b7f6e6f74206f776e65722e00000000000000000000000000000000000000000000600082015250565b6000614948600a836138a4565b915061495382614912565b602082019050919050565b600060208201905081810360008301526149778161493b565b9050919050565b600060608201905061499360008301866139e0565b6149a060208301856139e0565b6149ad6040830184613a76565b949350505050565b600081519050919050565b600081905092915050565b60006149d6826149b5565b6149e081856149c0565b93506149f08185602086016138b5565b80840191505092915050565b6000614a0882846149cb565b915081905092915050565b7f6f726967696e20756e636f6e7369676e2066756e6374696f6e2069736e27742060008201527f63616c6c65640000000000000000000000000000000000000000000000000000602082015250565b6000614a6f6026836138a4565b9150614a7a82614a13565b604082019050919050565b60006020820190508181036000830152614a9e81614a62565b9050919050565b6000606082019050614aba60008301866139e0565b614ac76020830185613a76565b614ad46040830184613a76565b949350505050565b6000614ae78261394b565b91507fffffffffffffffffffffffffffffffffffffffffffffffffffffffffffffffff8203614b1957614b186147b9565b5b600182019050919050565b7f4e487b7100000000000000000000000000000000000000000000000000000000600052603260045260246000fd5b60008190508160005260206000209050919050565b60006020601f8301049050919050565b600082821b905092915050565b600060088302614bb57fffffffffffffffffffffffffffffffffffffffffffffffffffffffffffffffff82614b78565b614bbf8683614b78565b95508019841693508086168417925050509392505050565b6000819050919050565b6000614bfc614bf7614bf28461394b565b614bd7565b61394b565b9050919050565b6000819050919050565b614c1683614be1565b614c2a614c2282614c03565b848454614b85565b825550505050565b600090565b614c3f614c32565b614c4a818484614c0d565b505050565b5b81811015614c6e57614c63600082614c37565b600181019050614c50565b5050565b601f821115614cb357614c8481614b53565b614c8d84614b68565b81016020851015614c9c578190505b614cb0614ca885614b68565b830182614c4f565b50505b505050565b600082821c905092915050565b6000614cd660001984600802614cb8565b1980831691505092915050565b6000614cef8383614cc5565b9150826002028217905092915050565b614d0882613899565b67ffffffffffffffff811115614d2157614d20613f97565b5b614d2b82546146b0565b614d36828285614c72565b600060209050601f831160018114614d695760008415614d57578287015190505b614d618582614ce3565b865550614dc9565b601f198416614d7786614b53565b60005b82811015614d9f57848901518255600182019150602085019450602081019050614d7a565b86831015614dbc5784890151614db8601f891682614cc5565b8355505b6001600288020188555050505b505050505050565b6000819050919050565b6000614df6614df1614dec84614dd1565b614bd7565b61394b565b9050919050565b614e0681614ddb565b82525050565b50565b6000614e1c6000836138a4565b9150614e2782614e0c565b600082019050919050565b600060059050919050565b600081905092915050565b6000819050919050565b6000602082019050919050565b6000614e6a82614e32565b614e748185614e3d565b935083602082028501614e8685614e48565b8060005b85811015614ec25784840389528151614ea38582613d72565b9450614eae83614e52565b925060208a01995050600181019050614e8a565b50829750879550505050505092915050565b600082825260208201905092915050565b6000614ef082613d46565b614efa8185614ed4565b935083602082028501614f0c85613d62565b8060005b85811015614f485784840389528151614f298582613d72565b9450614f3483613d86565b925060208a01995050600181019050614f10565b50829750879550505050505092915050565b600060029050919050565b600081905092915050565b6000819050919050565b6000614f868383613bed565b60208301905092915050565b6000602082019050919050565b614fa881614f5a565b614fb28184614f65565b9250614fbd82614f70565b8060005b83811015614fee578151614fd58782614f7a565b9650614fe083614f92565b925050600181019050614fc1565b505050505050565b60006101608201905061500c600083018c613a76565b615019602083018b6139e0565b615026604083018a61386f565b61503360608301896139e0565b6150406080830188614dfd565b81810360a083015261505181614e0f565b905081810360c08301526150658187614e5f565b905081810360e08301526150798186614ee5565b905081810361010083015261508e8185614ee5565b905061509e610120830184614f9f565b9a9950505050505050505050565b7f616c726561647920636f6e7369676e65642e0000000000000000000000000000600082015250565b60006150e26012836138a4565b91506150ed826150ac565b602082019050919050565b60006020820190508181036000830152615111816150d5565b9050919050565b60006101608201905061512e600083018d613a76565b61513b602083018c6139e0565b615148604083018b61386f565b615155606083018a6139e0565b6151626080830189613a76565b81810360a083015261517481886138f0565b905081810360c08301526151888187614e5f565b905081810360e083015261519c8186614ee5565b90508181036101008301526151b18185614ee5565b90506151c1610120830184614f9f565b9b9a5050505050505050505050565b60006060820190506151e560008301866139e0565b6151f26020830185613a76565b6151ff60408301846139e0565b949350505050565b600082825260208201905092915050565b6000615223826149b5565b61522d8185615207565b935061523d8185602086016138b5565b615246816138df565b840191505092915050565b600060808201905061526660008301876139e0565b61527360208301866139e0565b6152806040830185613a76565b81810360608301526152928184615218565b905095945050505050565b6000815190506152ac8161380a565b92915050565b6000602082840312156152c8576152c76137d4565b5b60006152d68482850161529d565b91505092915050565b600081905092915050565b60006152f582613899565b6152ff81856152df565b935061530f8185602086016138b5565b80840191505092915050565b600061532782856152ea565b915061533382846152ea565b91508190509392505050565b600060408201905061535460008301856139e0565b6153616020830184613b56565b9392505050565b7f4e487b7100000000000000000000000000000000000000000000000000000000600052601260045260246000fdfea26469706673582212201d9161c396a93978089011a8b08eccefdb7e8b320469040970145422a3344be164736f6c63430008140033",
    "linkReferences": {},
    "deployedLinkReferences": {}
}